S01C00004465745F496E74656C6C6967656E74655F4875732E7372656319
S1130000FBC0000027C1000025C1000023C100007F
S113001021C100001FC100001DC100001BC1000060
S113002019C1000017C1000015C1000013C1000070
S113003011C100000FC100000DC100000BC1000080
S113004009C10000D3C1000005C1000003C10000C4
S11300507DC20000FFC00000FDC00000FEC500001E
S1130060F9C0000030C5000064C50000F3C0000002
S1130070F1C00000EFC00000EDC00000EBC00000C4
S1130080E1C10000E7C00000E5C000008AC2000032
S1130090E1C00000DFC00000DDC000004DC300006F
S11300A0D9C00000D7C00000F9C10000D3C00000CF
S11300B0D1C00000CFC00000CDC000001BC20000B2
S11300C0C9C00000C7C00000C5C00000C3C0000014
S11300D0C1C00000BFC00000BDC00000BBC0000024
S11300E0B9C00000F306F606E506E906EF062D079B
S11300F0FA06FE06040708070C07120716071A0774
S11301002D0720072407280700000A0B02090C0DFD
S11301100E080703040100000000000000000000B6
S113012000000000000000000000000000000000CB
S11301300000000012111000000000000000000088
S113014000000000000000000000000000000102A8
S113015010202008081020401020408002010201D5
S1130160080402010102040810204080804020108D
S113017008040201800402018040201008040201E6
S1130180080402010102040810204080010204084E
S11301901020408005050505070508080808020227
S11301A002020A0A0808040404040101010101010D
S11301B001010303030303030303040707070C0CF0
S11301C00C0C0C0C0C0C02020202060606060606B7
S11301D006060B0B0B0B0B0B0B0B00002200250070
S11301E028002B002E00310034000201000005011C
S11301F008010B016005CB0511241FBECFEFD1E22E
S1130200DEBFCDBF00E00CBF12E0A0E0B2E0ECED39
S1130210F0E100E00BBF02C007900D92A432B107D9
S1130220D9F724E0A4E2B2E001C01D92A832B207DB
S1130230E1F710E0CCEFD0E000E005C02197010920
S1130240802FFE0141D7CA3FD10780E00807B1F7EC
S1130250D0D442C7D5CE0895089580E090E00895A3
S1130260CF92DF92EF92FF920F931F93CF93DF937E
S11302707B016A01082F10E0E801CB5DDD4F888126
S113028087FF04C0FB011182108224C08CE0809F90
S11302909001819F300D11248881A901480F511DBF
S11302A087FD5A958091240290E04817590794F4E9
S11302B08881A901480F511D87FD5A95CA01FA0189
S11302C0EE0FFF1F8E0F9F1FFC01E75DFD4F808126
S11302D086FD19C088818F5F88838CE0809F9001A0
S11302E0819F300D11248881A901480F511D87FD7C
S11302F05A958091240290E048175907B4F48881F4
S11303008C303CF112C08881280F311D87FD3A954D
S1130310F901EE0FFF1F2E0F3F1FF901E75DFD4F9F
S1130320808160E08F739AD5D5CFF7018081918168
S1130330049680349C4918F480E49CE904C0F701D5
S1130340808191810496F601918380838FEF888365
S113035044C0F701408151818881B901680F711D42
S113036087FD7A95CB01FB01EE0FFF1F8E0F9F1FB8
S1130370FC01E75DFD4F81819281840F951FF60199
S1130380918380838881A901480F511D87FD5A9567
S1130390CA01FA01EE0FFF1F8E0F9F1FFC01E75DDC
S11303A0FD4F808186FF19C08881280F311D87FD8C
S11303B03A95F901EE0FFF1F2E0F3F1FF901E75D7C
S11303C0FD4F808161E08F73DF91CF911F910F9179
S11303D0FF90EF90DF90CF9041C5DF91CF911F91B7
S11303E00F91FF90EF90DF90CF9008951F920F929E
S11303F00FB60F9211240BB60F922F933F934F9386
S11304005F936F937F938F939F93AF93BF93EF9378
S1130410FF9348E850E064E870E081E021DFFF9159
S1130420EF91BF91AF919F918F917F916F915F9168
S11304304F913F912F910F900BBE0F900FBE0F90D5
S11304401F9018951F920F920FB60F9211240BB69E
S11304500F922F933F934F935F936F937F938F9359
S11304609F93AF93BF93EF93FF9348E950E064E900
S113047070E082E0F5DEFF91EF91BF91AF919F9123
S11304808F917F916F915F914F913F912F910F9039
S11304900BBE0F900FBE0F901F9018951F920F92D6
S11304A00FB60F9211240BB60F922F933F934F93D5
S11304B05F936F937F938F939F93AF93BF93EF93C8
S11304C0FF9348EA50E064EA70E083E0C9DEFF91FC
S11304D0EF91BF91AF919F918F917F916F915F91B8
S11304E04F913F912F910F900BBE0F900FBE0F9025
S11304F01F9018951F920F920FB60F9211240BB6EE
S11305000F922F933F934F935F936F937F938F93A8
S11305109F93AF93BF93EF93FF9348E251E064E25C
S113052071E080E09DDEFF91EF91BF91AF919F91CB
S11305308F917F916F915F914F913F912F910F9088
S11305400BBE0F900FBE0F901F9018951F920F9225
S11305500FB60F9211240BB60F922F933F934F9324
S11305605F936F937F938F939F93AF93BF93EF9317
S1130570FF93E091B902F091BA021995FF91EF91BE
S1130580BF91AF919F918F917F916F915F914F91A7
S11305903F912F910F900BBE0F900FBE0F901F90A5
S11305A018951F920F920FB60F9211240BB60F924B
S11305B02F933F934F935F936F937F938F939F9367
S11305C0AF93BF93EF93FF93E091BB02F091BC0212
S11305D01995FF91EF91BF91AF919F918F917F9169
S11305E06F915F914F913F912F910F900BBE0F90A0
S11305F00FBE0F901F9018951092300381E08093E6
S11306002E0310922D0361E084E128D461E085E19A
S113061025D4E9EBF0E080818E7F808380818D7F1B
S1130620808388E48093B80085E48093BC000895B7
S1130630ECEBF0E080818A7B808360E084E10ED47F
S113064060E085E10BC44091DF02262F30E0240FE7
S1130650311D21323105DCF4209130032430C9F4FA
S1130660FC0180E090E0861758F43091DF0221917C
S1130670DC01AF51BD4FA30FB11D2C930196F3CFF5
S11306808091DF02680F6093DF0280E0089581E0CB
S1130690089582E0089585EC8093BC0010923003A5
S11306A00895CF93DF9391E090932803882351F02A
S11306B0C091B800D091BA00BBDF9EDFD093BA00DE
S11306C0C093B800DF91CF91089585ED8093BC006D
S11306D08091290390912A03A0912B03B0912C03BC
S11306E00796A11DB11D23E0B695A795979587950B
S11306F02A95D1F72091BC0024FF1BC04091290307
S113070050912A0360912B0370912C03452B462BA7
S1130710472B81F30097A105B10541F025E32A9504
S1130720F1F700000197A109B109E4CF80912703F3
S1130730B8CF1092300308951F920F920FB60F9204
S113074011240BB60F922F933F934F935F936F93A4
S11307507F938F939F93AF93BF93EF93FF93809176
S1130760B900887F803609F49DC070F5883209F499
S11307705CC090F4803109F455C038F4882309F43E
S1130780F3C0883009F44EC0F2C0883109F44DC07A
S1130790803209F45EC0EBC0803409F469C050F4BF
S11307A0803309F456C0883309F0E1C08093BD0258
S11307B072DFDDC0803509F44FC0883509F45DC0AF
S11307C0883409F0D4C0D2C0883909F4C3C0A8F46D
S11307D0883709F467C038F4883609F463C0803771
S11307E009F460C0C4C0883809F4B4C0803909F47D
S11307F05FC0803809F0BBC05BC0803B09F482C095
S113080038F4803A09F466C0883A09F47BC0AFC072
S1130810803C09F4A3C0883C09F4A0C0883B09F4D7
S113082086C0A5C080912F0310C0909102038091CF
S11308300103981770F5E091020381E08E0F809315
S11308400203F0E0ED5FFC4F80818093BB0085ECF8
S113085082C08093BD028AC0E091020381E08E0FC2
S1130860809302038091BB00F0E0ED5FFC4F808336
S113087090910203809101036AC0E091020381E038
S11308808E0F809302038091BB00F0E0ED5FFC4F7C
S1130890808380912E03811169C081E080932D03B0
S11308A084EA5DC083E0809330031092BE02CFCF10
S11308B08091BE02803208F04DC0E091BE0281E01A
S11308C08E0F8093BE028091BB00F0E0E154FD4F97
S11308D08083BDCFE0DE8091BE02803230F4E091AF
S11308E0BE02F0E0E154FD4F10826091BE0270E060
S11308F0E0912303F09124038FEB92E01995109279
S1130900BE0235C084E0809330031092E00210925E
S1130910DF02E0912503F091260319958091DF020F
S1130920811105C081E08093DF021092E102E09121
S1130930E00281E08E0F8093E002F0E0EF51FD4F82
S113094080818093BB009091E0028091DF02981730
S113095008F47DCF85E88093BC0009C085EC8093C2
S1130960BC001092300303C01092BD02AEDEFF91B2
S1130970EF91BF91AF919F918F917F916F915F9113
S11309804F913F912F910F900BBE0F900FBE0F9080
S11309901F9018958091600390E020916103821B61
S11309A0910908959091610380916003981750F420
S11309B0E92FF0E0EE59FC4F208130E09F5F9093E7
S11309C0610302C02FEF3FEFC9010895E091610375
S11309D080916003E81730F4F0E0EE59FC4F808119
S11309E090E008958FEF9FEF08950895CF92DF92DE
S11309F0EF92FF920F931F93CF93DF937C01CB0170
S1130A008A0120913D03222389F0EB016B01C40E7E
S1130A10D51ECC15DD0561F06991D701ED91FC91EE
S1130A200190F081E02DC7011995F3CF642F0BDEFF
S1130A30C801DF91CF911F910F91FF90EF90DF904C
S1130A40CF900895CF93DF931F92CDB7DEB769831C
S1130A5020913D032223D1F020913E03203240F027
S1130A6021E030E0FC013383228380E090E014C075
S1130A7080913F03E82FF0E0E05CFC4F9981908384
S1130A808F5F80933F0380933E0304C061E0CE01F7
S1130A900196D9DD81E090E00F90DF91CF91089528
S1130AA0FC011382128288EE93E0A0E0B0E084831C
S1130AB09583A683B78384E092E09183808308952D
S1130AC081E393E0EDCF1F920F920FB60F921124A2
S1130AD00BB60F922F938F939F93EF93FF93E09115
S1130AE09203F09193038081E0919803F09199032C
S1130AF082FD12C0908180919B038F5F8F73209140
S1130B009C03821751F0E0919B03F0E0EE57FC4FF9
S1130B10958F80939B0301C08081FF91EF919F91FA
S1130B208F912F910F900BBE0F900FBE0F901F90BF
S1130B3018951F920F920FB60F9211240BB60F92B5
S1130B402F933F934F935F936F937F938F939F93D1
S1130B50AF93BF93EF93FF9382E893E026D2FF9184
S1130B60EF91BF91AF919F918F917F916F915F9121
S1130B704F913F912F910F900BBE0F900FBE0F908E
S1130B801F90189582E893E097D121E0892B09F40E
S1130B9020E0822F0895E2E8F3E01382128288EEC7
S1130BA093E0A0E0B0E084839583A683B78386E1D5
S1130BB092E09183808385EC90E09587848784EC30
S1130BC090E09787868780EC90E0918B808B81EC16
S1130BD090E0938B828B82EC90E0958B848B86ECF7
S1130BE090E0978B868B118E128E138E148E08953F
S1130BF008957DD0FDDF2FDBC9E9D7E02DDB2097F9
S1130C00E9F397D1FBCFCF92DF92EF92FF920F934C
S1130C101F93CF93DF936C017A018B01C0E0D0E086
S1130C20CE15DF0581F0D8016D918D01D601ED91CE
S1130C30FC910190F081E02DC6011995892B11F0EA
S1130C402196EECF7E01C701DF91CF911F910F91C5
S1130C50FF90EF90DF90CF9008951F920F920FB600
S1130C600F9211242F933F938F939F93AF93BF932E
S1130C708091200490912104A0912204B091230436
S1130C8030911F0423E0230F2D3720F40196A11D7A
S1130C90B11D05C026E8230F0296A11DB11D2093A6
S1130CA01F048093200490932104A0932204B09302
S1130CB023048091240490912504A0912604B091EA
S1130CC027040196A11DB11D80932404909325044B
S1130CD0A0932604B0932704BF91AF919F918F9165
S1130CE03F912F910F900FBE0F901F9018957894FD
S1130CF084B5826084BD84B5816084BD85B582601D
S1130D0085BD85B5816085BDEEE6F0E080818160BA
S1130D108083E1E8F0E010828081826080838081BA
S1130D2081608083E0E8F0E0808181608083E1EB92
S1130D30F0E0808184608083E0EBF0E0808181607A
S1130D408083E1E9F0E0808182608083808181603A
S1130D508083E0E9F0E0808181608083E1EAF0E073
S1130D60808182608083808181608083E0EAF0E01A
S1130D70808181608083E1E2F1E080818260808310
S1130D80808181608083E0E2F1E080818160808302
S1130D90EAE7F0E0808184608083808182608083E0
S1130DA08081816080838081806880831092C1000B
S1130DB0089590E0FC013197E231F10508F04DC04F
S1130DC08827EE58FF4F8F4F7FC1809180008F7727
S1130DD003C0809180008F7D80938000089580916E
S1130DE08000877FF9CF84B58F7702C084B58F7D6B
S1130DF084BD08958091B0008F7703C08091B000C6
S1130E008F7D8093B0000895809190008F7707C004
S1130E10809190008F7D03C080919000877F8093A4
S1130E20900008958091A0008F7707C08091A00062
S1130E308F7D03C08091A000877F8093A0000895D8
S1130E40809120018F7707C0809120018F7D03C09E
S1130E5080912001877F8093200108951F93CF9371
S1130E60DF93282F30E0F901E85FFE4F8491F90108
S1130E70E25BFE4FD491F901EC56FE4FC491CC23B2
S1130E80B9F0162F811195DFEC2FF0E0EE0FFF1F64
S1130E90E652FE4FA591B4919FB7F894111104C086
S1130EA08C91D095D82302C0EC91DE2BDC939FBFAC
S1130EB0DF91CF911F910895FC01918D228D892F8F
S1130EC090E0805C9F4F821B91098F73992708954E
S1130ED0FC01918D828D981731F0828DE80FF11D00
S1130EE0858D90E008958FEF9FEF0895FC01918D1B
S1130EF0828D981761F0828DDF01A80FB11D5D9678
S1130F008C91928D9F5F9F73928F90E008958FEFE5
S1130F109FEF0895FC01538D448D252F30E0842FDD
S1130F2090E0821B930B541710F0CF96089501970D
S1130F30089582EC95E0892B39F080E090E0892BCC
S1130F4019F020DE811125C080E090E0892B41F06A
S1130F5080E090E0892B21F00E94000081111CC0E8
S1130F6080E090E0892B41F080E090E0892B21F033
S1130F700E940000811113C080E090E0892BA1F051
S1130F8080E090E0892B81F00E94000081110AC06A
S1130F9008950E940000D8CF0E940000E1CF0E9473
S1130FA00000EACF0C9400000895FC01848DDF0159
S1130FB0A80FB11DA35ABF4F2C91848D90E00196C8
S1130FC08F739927848FA689B7892C93A089B189B7
S1130FD08C91837080648C93938D848D981306C058
S1130FE00288F389E02D80818F7D80830895EF92BC
S1130FF0FF920F931F93CF93DF93EC0181E0888FCF
S11310009B8D8C8D981305C0E889F989808185FDB5
S113101025C0F62E0B8D10E00F5F1F4F0F731127A5
S1131020E02E8C8DE8120BC00FB607FCFACFE889CE
S1131030F989808185FFF5CFCE01B7DFF2CF8B8DA3
S1131040FE01E80FF11DE35AFF4FF0829FB7F894B9
S11310500B8FEA89FB89808180620AC09FB7F8946C
S1131060EE89FF896083E889F989808183708064CF
S113107080839FBF81E090E0DF91CF911F910F911A
S1131080FF90EF900895CF93DF93EC01888D882330
S1131090C1F0EA89FB89808185FD05C0A889B989E9
S11310A08C9186FD0EC00FB607FCF5CF808185FFBD
S11310B0F2CFA889B9898C9185FFEDCFCE0175DF78
S11310C0E8CFDF91CF910895EE0FFF1F881F8BBFEC
S10F10D00790F691E02D1994F894FFCFDE
S11310DC000000002205F6042D01F504CA04D20414
S11310ECE60400000000F70703068A0743085C07C0
S10710FC7607680700
S9030000FC
