S01C00004465745F496E74656C6C6967656E74655F4875732E7372656319
S11300004BC600007AC6000078C6000076C6000021
S113001074C6000072C6000070C600006EC6000000
S11300206CC600006AC6000068C6000066C6000010
S113003064C6000062C6000060C600005EC6000020
S11300405CC600000C941E4C58C6000056C6000046
S11300500C945B5052C6000050C600000C94325EF3
S11300604CC600000C94755B0C94AB5B46C6000058
S113007044C6000042C6000040C600003EC6000060
S11300800C94554C3AC6000038C600000C949250AB
S113009034C6000032C6000030C600000C94615320
S11300A02CC600002AC600000C948C4C26C6000006
S11300B024C6000022C6000020C600000C94C34CD5
S11300C01CC600001AC6000018C6000016C60000B0
S11300D014C6000012C6000010C600000EC60000C0
S11300E00CC600009E5FA35FA85FB25FBC5F356073
S11300F0C65FCE5FD65FE05FEA5FF45F03600D60CA
S11301003560176021602B6058605B604A604E6008
S1130110546092605F60636069606D607160776075
S11301207B607F609260856089608D6054656D70CE
S11301306572617475723A200048756D69646974FA
S1130140793A200025005353443133303620616C12
S11301506C6F636174696F6E206661696C656400BD
S11301604D656E7500413A2054696D6520616E6479
S1130170204461746500423A2054656D7072657460
S113018075726500433A2048756D69646974790035
S113019000000000003E5B4F5B3E3E6B4F6B3E1C1D
S11301A03E7C3E1C183C7E3C181C577D571C1C5E34
S11301B07F5E1C00183C1800FFE7C3E7FF0018240B
S11301C01800FFE7DBE7FF30483A060E26297929B5
S11301D026407F050507407F05253F5A3CE73C5AEA
S11301E07F3E1C1C08081C1C3E7F14227F22145FC7
S11301F05F005F5F06097F017F006689956A606022
S113020060606094A2FFA29408047E040810207E1B
S1130210201008082A1C08081C2A08081E101010A0
S1130220100C1E0C1E0C30383E3830060E3E0E06E6
S1130230000000000000005F000000070007001439
S11302407F147F14242A7F2A1223130864623649F8
S11302505620500008070300001C224100004122E0
S11302601C002A1C7F1C2A08083E080800807030E5
S11302700008080808080000606000201008040254
S11302803E5149453E00427F40007249494946215A
S113029041494D331814127F1027454545393C4ACE
S11302A049493141211109073649494936464949E5
S11302B0291E00001400000040340000000814222D
S11302C0411414141414004122140802015909069B
S11302D03E415D594E7C1211127C7F494949363E9C
S11302E0414141227F4141413E7F494949417F0982
S11302F00909013E414151737F0808087F00417F8D
S113030041002040413F017F081422417F4040408A
S1130310407F021C027F7F0408107F3E4141413E22
S11303207F090909063E4151215E7F0919294626A4
S11303304949493203017F01033F4040403F1F20A8
S113034040201F3F4038403F63140814630304787F
S113035004036159494D43007F414141020408109F
S113036020004141417F04020102044040404040DA
S1130370000307080020545478407F284444383848
S113038044444428384444287F38545454180008BA
S11303907E090218A4A49C787F0804047800447D94
S11303A040002040403D007F1028440000417F4031
S11303B0007C047804787C08040478384444443885
S11303C0FC1824241818242418FC7C080404084865
S11303D05454542404043F44243C4040207C1C20B6
S11303E040201C3C4030403C44281028444C909011
S11303F0907C4464544C440008364100000077006B
S113040000004136080002010204023C2623263C77
S11304101EA1A161123A4040207A38545455592102
S113042055557941225454784221555478402054EA
S11304305579400C1E527212395555555939545438
S1130440545939555454580000457C410002457DA7
S1130450420001457C407D1211127DF0282528F0D0
S11304607C545545002054547C547C0A097F4932FD
S1130470494949323A4444443A324A4848303A4174
S113048041217A3A42402078009DA0A07D3D42421D
S1130490423D3D4040403D3C24FF2424487E4943A6
S11304A0662B2FFC2F2BFF0929F620C0887E090319
S11304B020545479410000447D413048484A323840
S11304C04040227A007A0A0A727D0D19317D26296C
S11304D0292F28262929292630484D402038080864
S11304E0080808080808382F10C8ACBA2F10283498
S11304F0FA00007B000008142A142222142A14088B
S11305005500550055AA55AA55AAFF55FF55FF0099
S11305100000FF00101010FF00141414FF0010104E
S1130520FF00FF1010F010F0141414FC001414F762
S113053000FF0000FF00FF1414F404FC141417104F
S11305401F10101F101F1414141F00101010F0009F
S11305500000001F101010101F10101010F01000D9
S11305600000FF101010101010101010FF100000E9
S113057000FF140000FF00FF00001F10170000FC24
S113058004F414141710171414F404F40000FF00F6
S1130590F714141414141414F700F714141417147F
S11305A010101F101F141414F4141010F010F00085
S11305B0001F101F0000001F14000000FC140000A6
S11305C0F010F01010FF10FF141414FF141010108A
S11305D01F00000000F010FFFFFFFFFFF0F0F0F03D
S11305E0F0FFFFFF0000000000FFFF0F0F0F0F0FD1
S11305F03844443844FC4A4A4A347E02020606021D
S11306007E027E0263554941633844443C04407E83
S1130610201E2006027E020299A5E7A5991C2A49FC
S11306202A1C4C7201724C304A4D4D303048784887
S113063030BC625A463D3E494949007E0101017E73
S11306402A2A2A2A2A44445F444440514A444040C6
S1130650444A51400000FF0103E080FF0000080805
S11306606B6B083612362436060F090F0600001885
S1130670180000001010003040FF0101001F0101AC
S11306801E00191D1712003C3C3C3C0000000000F9
S113069000000000000180000000000000000000D5
S11306A0038000000000000000000007C0000000FC
S11306B000000000000007C000000000000000006F
S11306C0000FC00000000000000000001FE0000058
S11306D0000000000000001FE00000000000000017
S11306E000003FE00000000000000000003FF000B8
S11306F000000000000000007FF000000000000087
S1130700001FF87FF0000000000000003FFE7FF0B3
S1130710000000000000003FFF7FF0000000000028
S113072000001FFFFBE0000000000000000FFFF9C5
S1130730FFC00000000000000FFFF9FFF8000000F8
S113074000000007FFF1FFFF00000000000003FCB1
S113075073FFFF80000000000001FE3FFFFF8000E8
S11307600000000000FF1E0FFF000000000000005A
S11307707FFE1FFC000000000000003FFFFFF800A8
S11307800000000000000FDFFFE000000000000098
S1130790001F19FFC0000000000000003F3CFF00E4
S11307A0000000000000007E7CF800000000000053
S11307B000007FFE7C0000000000000000FFFFFC42
S11307C00000000000000000FFFFFE000000000029
S11307D0000000FFFFFE0000000000000001FFEF2A
S11307E0FE0000000000000001FFCFFE000000003A
S11307F000000003FF07FE0000000000000003FCEF
S113080007FE0000000000000003F003FE000000EB
S113081000000000018000FE000000000000000055
S113082000007E000000000000000000003E000008
S113083000000000000000000C00000000000007A1
S11308408000FC000003C0000000078001FC0000E1
S113085003C0000000078001FC000003C00000008A
S1130860078001E00000001E000000078001E00096
S113087000001E007FE3F79FF9FDE7787BDFC0FFF0
S1130880F7FFBFFDFDFF787BDFC0FFF7FFBFFDFD76
S1130890FF787BDFC0F0F787BC3DE1FF787BDE00AB
S11308A0F0F787BC3DE1F0787BDE0000F787803D00
S11308B0E1E0787BDE007FF7879FFDE1E0787BDE77
S11308C000FFF787BFFDE1E0787BDE00F0F787BC2F
S11308D03DE1E0787BDE00F0F787BC3DE1E0787B2A
S11308E0DE00F0F787BC3DE1E0787BDE00FFF7FF38
S11308F0BFFDE1E07FFBDFC0FFF7FFBFFDE1E07F6D
S1130900FBDFC07CF3F39F3DE1E03E7BCFC0000002
S1130910000000000000000000FFFFFFFFFFFFFFDA
S1130920FFFFFFC0FFFFFFFFFD68DB111A31C0FFAF
S1130930FFFFFFFD2B5AFB6AEFC0FFFFFFFFFD4BDC
S11309405B3B1A33C0FFFFFFFFFD6B5BDB6AFDC03F
S11309500000600000000000000000000000000033
S113096000E00000000000000000000000000001A2
S1130970E00000000000000000000000000001F0A2
S11309800000000000000000000000000003F00070
S113099000000000000000000000000007F000005C
S11309A0000000000000000000000007F800000044
S11309B0000000000000000000000FF80000000329
S11309C0C0007E000001E0007F0FF800000003C0BB
S11309D000FE000001E000FFEFF800000003C0008B
S11309E0FE000001E000FFFFF800000003C000F07B
S11309F00000000F007FFE7FC0000003C000F00075
S1130A0000000F003FFE7FF83FF1FBCFFCFEF3BC7C
S1130A103DEFE01FFE7FFF7FFBFFDFFEFEFFBC3DDF
S1130A20EFE01FC6FFFF7FFBFFDFFEFEFFBC3DEFD5
S1130A30E00FE3C7FE787BC3DE1EF0FFBC3DEF0092
S1130A4007FF87FC787BC3DE1EF0F83C3DEF000116
S1130A50FFFFF0007BC3C01EF0F03C3DEF0001F34C
S1130A607FE03FFBC3CFFEF0F03C3DEF0003E33FEC
S1130A70807FFBC3DFFEF0F03C3DEF0007E73C0066
S1130A80787BC3DE1EF0F03C3DEF0007FFBE00782C
S1130A907BC3DE1EF0F03C3DEF0007FFFE00787BD9
S1130AA0C3DE1EF0F03C3DEF000FFFFE007FFBFFB6
S1130AB0DFFEF0F03FFDEFE00FFFFF007FFBFFDF05
S1130AC0FEF0F03FFDEFE00FF9FF003E79F9CF9E15
S1130AD0F0F01F3DE7E01FF1FF0000000000000000
S1130AE000000000001F80FF007FFFFFFFFFFFFFEB
S1130AF0FFFFFFE01C007F007FFFFFFFFEB46D8857
S1130B008D18E000001F007FFFFFFFFE95AD7DB54F
S1130B1077E000000F007FFFFFFFFEA5AD9D8D195C
S1130B20E0000006007FFFFFFFFEB5ADEDB57EE0FF
S1130B30AED580A8D300408D2000A1C8DB40A4A678
S1130B402EAF0080C0E0F0F8FCFE000103070F1F89
S1130B503F7F2200FF21001F1C1F1E1F1E1F1F1E80
S1130B601F1E1F00000A0B02090C0D0E08070304C8
S1130B700100000000000000000000000000000070
S1130B80000000000000000000000000000000124F
S1130B901110000000000000000000000000000030
S1130BA000000000000000000001021020200808DE
S1130BB010204010204080020102010804020101BB
S1130BC002040810204080804020100804020180A4
S1130BD004020180402010080402010804020101FB
S1130BE002040810204080010204081020408005FF
S1130BF0050505070508080808020202020A0A0892
S1130C0008040404040101010101010101030303B7
S1130C100303030303040707070C0C0C0C0C0C0C54
S1130C200C0202020206060606060606060B0B0B5B
S1130C300B0B0B0B0B000020002300260029002CBB
S1130C40002F003200000100000301060109010029
S1130C50002200250028002B002E00310034000261
S1130C60010000050108010B0100002100240027F8
S1130C70002A002D003000330001010000040107A8
S1130C80010A0100C3071E087709FA0D5111A011CA
S1130C90B657DD5B2A08060E11241FBECFEFD1E242
S1130CA0DEBFCDBF00E00CBF13E0A0E0B2E0ECEC8F
S1130CB0FBEC00E00BBF02C007900D92A636B10713
S1130CC0D9F726E0A6E6B3E001C01D92AB37B20720
S1130CD0E1F716E0CAE4D6E000E006C02197010976
S1130CE0802FFE010E945463C234D10780E00807BC
S1130CF0A9F70E940B5C0C94D56582C9CF92DF9250
S1130D00EF92FF920F931F93E82FF92F05C0015024
S1130D1011092109310961F1908196239417B9F3DE
S1130D2005C0015011092109310911F1908196235F
S1130D309413F7CFC12CD12CE12CF12C0AC08FEFE6
S1130D40C81AD80AE80AF80A0C151D052E053F052D
S1130D5079F080818623841791F36C2D7D2D8E2D5F
S1130D609F2D1F910F91FF90EF90DF90CF900895EA
S1130D7060E070E080E090E01F910F91FF90EF90B1
S1130D80DF90CF900895CF93DF93CDB7DEB760E0C7
S1130D9086E693E00E948131DC01CB01BC01CD01E8
S1130DA0DF91CF910895CF93DF93CDB7DEB740E0C5
S1130DB060E086E693E00E94F42FDC01CB01BC01E5
S1130DC0CD01DF91CF910895CF93DF9300D01F928F
S1130DD0CDB7DEB7E8DFDC01CB0189839A83AB832F
S1130DE0BC838091060290910702A0910802B09101
S1130DF0090220910A0230910B0240910C02509199
S1130E000D02BC01CD010E94F257DC01CB01298106
S1130E103A814B815C81BC01CD010E94A159181615
S1130E200CF46CD08091060290910702A091080204
S1130E30B091090220910A0230910B0240910C02F8
S1130E4050910D02BC01CD010E94F357DC01CB018E
S1130E5029813A814B815C81BC01CD010E945758A4
S1130E6088230CF457D08091060290910702A09138
S1130E700802B091090220910A0230910B024091BC
S1130E800C0250910D02BC01CD010E94F257DC010D
S1130E90CB0129813A814B815C81BC01CD010E9447
S1130EA0575888230CF022C08091060290910702C3
S1130EB0A0910802B091090220910A0230910B021C
S1130EC040910C0250910D02BC01CD010E94F357D8
S1130ED0DC01CB0129813A814B815C81BC01CD01CC
S1130EE00E94A15918160CF001C020D000000F90E8
S1130EF00F900F900F90DF91CF910895CF93DF93D0
S1130F00CDB7DEB78FD6A1D2D0D2DBD20000DF912D
S1130F10CF910895CF93DF93CDB7DEB730D7ADD25D
S1130F20C4D2B7D20000DF91CF910895CF93DF935D
S1130F30CDB7DEB7D3D795D2ACD2C3D20000DF9100
S1130F40CF910895CF93DF9300D01F92CDB7DEB732
S1130F509A8389837C836B8389819A81019759F46D
S1130F608B819C81019639F426E04BE062E086E6B1
S1130F7093E00E947A2F00000F900F900F900F9033
S1130F80DF91CF910895CF93DF93CDB7DEB76FEFA5
S1130F907FEF81E090E0D6DFDF91CF910895CF938A
S1130FA0DF931F921F92CDB7DEB789E793E00E94CB
S1130FB06439DC01CB01BC01CD010E94C358DC01C2
S1130FC0CB019A83898389819A810F900F90DF9155
S1130FD0CF910895CF93DF9300D01F92CDB7DEB7A2
S1130FE09A8389837C836B8389819A81019791F4A5
S1130FF08B819C81019671F4209110023091110231
S113100080910E0290910F02A901BC0189E793E03F
S11310100E94B83889819A81892B41F48B819C8103
S1131020019621F489E793E00E94E03800000F90D4
S11310300F900F900F90DF91CF910895CF93DF938E
S1131040CDB7DEB76FEF7FEF81E090E0C3DFDF91D4
S1131050CF910895CF93DF93CDB7DEB76FEF7FEFD6
S113106080E090E0B7DFDF91CF910895CF93DF93D5
S113107000D01F92CDB7DEB769837A838B839C83BC
S11310808FE793E00E9455418CE291E0BC018FE729
S113109093E00E94585C89819A81AB81BC8120E0F5
S11310A030E0AC01BD018FE793E00E94315E6FED4B
S11310B08FE793E00E947D5C00000F900F900F90EB
S11310C00F90DF91CF910895CF93DF9300D01F92BB
S11310D0CDB7DEB769837A838B839C838FE793E0F4
S11310E00E94554189E391E0BC018FE793E00E949F
S11310F0585C89819A81AB81BC8120E030E0AC01ED
S1131100BD018FE793E00E94315E84E491E0BC016D
S11311108FE793E00E94585C00000F900F900F90AF
S11311200F90DF91CF910895EF92FF920F931F9349
S1131130CF93DF93CDB7DEB72C970FB6F894DEBF0D
S11311400FBECDBFE982FA820B831C832D833E83BD
S11311504F83588769877A878B879C878FE793E0CB
S11311600E94554189819A810E94D7574AE050E0F4
S1131170BC018FE793E00E94545D6FE372E08FE758
S113118093E00E947C5C8B81882F90E00E94D7576B
S11311904AE050E0BC018FE793E00E94545D6FE3A6
S11311A072E08FE793E00E947C5C8C81882F90E052
S11311B00E94D7574AE050E0BC018FE793E00E94B9
S11311C0545D61E472E08FE793E00E947C5C41E04F
S11311D060E08FE793E00E946B418D81882F90E05F
S11311E00E94D7574AE050E0BC018FE793E00E9489
S11311F0545D63E472E08FE793E00E947C5C8E812F
S1131200882F90E00E94D7574AE050E0BC018FE756
S113121093E00E94545D63E472E08FE793E00E94E0
S11312207C5C8F81882F90E00E94D7574AE050E081
S1131230BC018FE793E00E94545D65E472E08FE7A0
S113124093E00E947C5C00002C960FB6F894DEBFFD
S11312500FBECDBFDF91CF911F910F91FF90EF9003
S11312600895CF92EF920F93CF93DF9300D01F9204
S1131270CDB7DEB79A8389837C836B8389819A8116
S1131280019751F58B819C81019631F580911C0267
S113129090911D02682F80911A0290911B02582F81
S11312A08091180290911902482F80911602909112
S11312B01702282F8091140290911502382F8091E3
S11312C0120290911302C62EE52E042F432F682F8D
S11312D08FE793E00E94463F00000F900F900F901D
S11312E00F90DF91CF910F91EF90CF900895CF930E
S11312F0DF93CDB7DEB76FEF7FEF81E090E0B1DF32
S1131300DF91CF910895AF92BF92CF92DF92EF9287
S1131310FF920F931F93CF93DF93CDB7DEB786E38E
S11313200E94535F092E000CAA0BBB0B1F921F9245
S11313301F922FEF2F93A12CB12C6501EE24EA9478
S113134013E0F12E00E010E020E030E0A901BC0140
S1131350CD010E9457610F900F900F900F90DC0108
S1131360CB01909398038093970387E30E94535F84
S1131370092E000CAA0BBB0B1F921F921F922FEF7A
S11313802F93A12CB12C6501EE24EA9413E0F12EE5
S113139000E010E020E030E0A901BC01CD010E9492
S11313A057610F900F900F900F90DC01CB01909339
S11313B09A038093990388E30E94535F092E000CDB
S11313C0AA0BBB0B1F921F921F922FEF2F93A12CDE
S11313D0B12C6501EE24EA9413E0F12E00E010E054
S11313E020E030E0A901BC01CD010E9457610F90BB
S11313F00F900F900F90DC01CB0190939C0380938E
S11314009B038091970390919803BC018AE20E9408
S1131410785F8091990390919A03BC018BE20E94BA
S1131420785F80919B0390919C03BC018CE20E94A5
S1131430785F0000DF91CF911F910F91FF90EF90A3
S1131440DF90CF90BF90AF900895CF93DF93CDB747
S1131450DEB761E089E00E94CF600000DF91CF91A8
S11314600895CF93DF93CDB7DEB761E087E00E94A4
S1131470CF600000DF91CF910895CF93DF93CDB774
S1131480DEB761E088E00E94CF600000DF91CF9179
S11314900895CF93DF93CDB7DEB760E089E00E9473
S11314A0CF600000DF91CF910895CF93DF93CDB744
S11314B0DEB760E087E00E94CF600000DF91CF914B
S11314C00895CF93DF93CDB7DEB760E088E00E9444
S11314D0CF600000DF91CF910895CF93DF9300D0C8
S11314E000D0CDB7DEB79A8389834B835C836D8349
S11314F07E838B819C81AD81BE81E981FA8126E066
S1131500AC01BD01CF010E94125B000026960FB60C
S1131510F894DEBF0FBECDBFDF91CF9108950F9336
S1131520CF93DF93CDB7DEB72E970FB6F894DEBF17
S11315300FBECDBF40E855E260E070E081ED95E07C
S1131540CCDF0E94D74F83E594E00E940E4567E309
S113155086E693E00E94CA2F20E042E060E18FE734
S113156093E00E94FC3F83EA93E00E947C358AE08A
S113157090E0A0E0B0E089839A83AB83BC8381E8E8
S113158090E020E1FC01208380E890E0FC011082DF
S11315908FEF94E09E838D8389819A81AB81BC8196
S11315A08F839887A987BA878F819885A985BA85FB
S11315B0880F991FAA1FBB1F880F991FAA1FBB1F43
S11315C0880F991FAA1FBB1F8B879C87AD87BE8777
S11315D08B859C85AD85BE850097A140B10550F4EF
S11315E081E0809302058B859C859093010580930F
S11315F0000576C08B859C85AD85BE850097A84087
S1131600B105A0F482E0809302058B859C85AD85AD
S1131610BE85689412F8B695A79597958795169404
S1131620D1F790930105809300055AC08B859C8562
S1131630AD85BE850097A044B105A0F483E08093F6
S113164002058B859C85AD85BE85689415F8B69595
S1131650A795979587951694D1F790930105809354
S113166000053EC08B859C85AD85BE850097A10590
S1131670B14080F484E0809302058B859C85AD8520
S1131680BE85892F9A2FAB2FBB279093010580939A
S1131690000526C08B859C85AD85BE850097A10578
S11316A0B440A8F485E0809302058B859C85AD85C4
S11316B0BE85072E7AE0B695A795979587957A9576
S11316C0D1F7702D909301058093000509C085E042
S11316D0809302058FEF9FEF90930105809300059F
S11316E086E890E02091000530910105FC013183EA
S11316F0208381E890E0209102052061FC01208391
S113170001E021E04CE362E08FEA93E00E943023A1
S1131710982F81E08927882341F086E491E0BC0179
S113172081ED95E00E94875CFFCF61E08AE20E9430
S1131730936061E08BE20E94936061E08CE20E941E
S1131740936061E089E00E94936061E087E00E9419
S1131750936061E088E00E94936080910E02909112
S11317600F0261E00E949360809110029091110237
S113177060E00E9493606AE070E083E694E00E9477
S1131780E44D8FEA93E00E9480288FE793E00E9463
S1131790554100002E960FB6F894DEBF0FBECDBFA4
S11317A0DF91CF910F910895EF92FF920F931F93C2
S11317B0CF93DF93CDB7DEB76F970FB6F894DEBF44
S11317C00FBECDBF80919D03882309F462C00E949F
S11317D07C5EDC01CB0189839A83AB83BC83E8D034
S11317E08FEE93E00E94763A8D838D81882349F0B1
S11317F06D8181ED95E00E94A75C6EE973E08D81B7
S113180029D180919F039091A003A091A103B0914D
S1131810A2039C01AD0189819A81AB81BC81821BA9
S1131820930BA40BB50B20911E0230911F02409123
S113183020025091210282179307A407B50708F1EB
S113184080919E038823E9F0CE010E960E94C25730
S1131850EE84FF84088919892A893B894C895D892A
S11318606E897F89888D998D5FDC89819A81AB81AE
S1131870BC8180939F039093A003A093A103B09392
S1131880A20341DDA1DA8BDB9F838E838E819F814E
S113189014D590919D0381E089278823A9F183E5DC
S11318A094E00E94454A982F81E08927882349F4CF
S11318B083E594E00E947B4A982F81E0892788235E
S11318C011F081E001C080E08823E9F4CE014A965A
S11318D01DD49E01265E3F4FCE010896B9010E9499
S11318E02962CE0108966DE973E067D4CE010896AB
S11318F00E9496618FEA93E00E948028CE014A9666
S11319000E94966101C000006F960FB6F894DEBF86
S11319100FBECDBFDF91CF911F910F91FF90EF903C
S11319200895CF93DF9300D000D0CDB7DEB79A836C
S113193089837C836B835E834D8389819A812B8128
S11319403C81FC013587248789819A812D813E81E0
S1131950FC0137872687000026960FB6F894DEBF71
S11319600FBECDBFDF91CF910895CF93DF9300D009
S11319701F92CDB7DEB79A8389837C836B83898179
S11319809A812B813C81FC01338B228B89819A8142
S1131990FC012289338989819A81FC01318B208B56
S11319A000000F900F900F900F90DF91CF9108954A
S11319B0CF93DF93CDB7DEB78FEA93E00E94802800
S11319C061E08FEA93E00E940F1F61E070E08FEA0C
S11319D093E0CBDF40E050E060E070E08FEA93E01A
S11319E0A0DF80E691E0BC018FEA93E00E94875C6F
S11319F04AE050E060E070E08FEA93E092DF85E631
S1131A0091E0BC018FEA93E00E94875C44E150E0DE
S1131A1060E070E08FEA93E084DF86E791E0BC0148
S1131A208FEA93E00E94875C4EE150E060E070E052
S1131A308FEA93E076DF84E891E0BC018FEA93E0DB
S1131A400E94875C8FEA93E00E94DE2C0000DF9105
S1131A50CF910895CF93DF93CDB7DEB72B970FB611
S1131A60F894DEBF0FBECDBF89877B876A878985DF
S1131A70882F90E08234910501F183349105B1F10E
S1131A808134910509F04BC066E472E081ED95E084
S1131A900E94975C8A859B8521E0FC0120838A85CE
S1131AA09B85FC018081882F90E04AE050E0BC01D6
S1131AB081ED95E00E945A5D32C063E572E081EDEC
S1131AC095E00E94975C6FD9DC01CB0189839A83EE
S1131AD0AB83BC8389819A81AB81BC81BC01CD017C
S1131AE0C5DA8A859B85FC01108219C060E672E024
S1131AF081ED95E00E94975C46D9DC01CB018D8392
S1131B009E83AF83B8878D819E81AF81B885BC01E8
S1131B10CD01DADA8A859B85FC0110820000000081
S1131B202B960FB6F894DEBF0FBECDBFDF91CF91D9
S1131B3008958F929F92AF92BF92CF92DF92EF92CD
S1131B40FF920F93CF93DF9300D01F92CDB7DEB7F0
S1131B509A8389837C836B8389819A81019769F550
S1131B608B819C81019649F50F2EF0EA8F2EF6E8C1
S1131B709F2EAA24A394B12CF02D0F2EF0E8CF2E83
S1131B80FAE1DF2EF6E0EF2EF12CF02D04E025EC47
S1131B9035E040E460E88FEA93E00E9440206894D6
S1131BA0EE24E2F804E026E332E042E352E062E2AB
S1131BB072E08FEE93E00E94D23989819A81892B59
S1131BC041F48B819C81019621F48FEA93E00E9479
S1131BD0D22000000F900F900F900F90DF91CF91C3
S1131BE00F91FF90EF90DF90CF90BF90AF909F90B8
S1131BF08F900895CF93DF93CDB7DEB76FEF7FEF6C
S1131C0081E090E096DFDF91CF910895CF93DF9349
S1131C10CDB7DEB76FEF7FEF80E090E08ADFDF9132
S1131C20CF910895CF93DF93CDB7DEB72C970FB63E
S1131C30F894DEBF0FBECDBF80913A0290913B0273
S1131C4089831B821A8289818B3071F461E08BE075
S1131C500E94936080E890E020E830E0F901208160
S1131C602068FC01208321C089818C3071F461E0FB
S1131C708CE00E94936080E890E020E830E0F90175
S1131C8020812062FC01208310C089818D3069F499
S1131C9061E08DE00E94936080E890E020E830E00D
S1131CA0F90120812860FC0120838FEF94E09D835B
S1131CB08C8389818E838A819B8198878F8380918D
S1131CC0000590910105CC01A0E0B0E089879A87D6
S1131CD0AB87BC878F819885CC01A0E0B0E02985D3
S1131CE03A854B855C85BC01CD010E940763DC010C
S1131CF0CB0189879A87AB87BC8789859A85AB8511
S1131D00BC85072E7AE0B695A795979587957A9521
S1131D10D1F7702D89879A87AB87BC878E818B30EA
S1131D2041F488E890E029853A85FC0131832083D9
S1131D3015C08E818C3041F48AE890E029853A857B
S1131D40FC01318320830AC08E818D3039F48CE804
S1131D5090E029853A85FC013183208381E890E075
S1131D60209102052061FC01208300002C960FB60F
S1131D70F894DEBF0FBECDBFDF91CF910895CF930E
S1131D80DF93CDB7DEB72C970FB6F894DEBF0FBE46
S1131D90CDBF80913A0290913B02898388EE93E013
S1131DA09B838A8389818B3071F461E08BE00E948C
S1131DB0936080E890E020E830E0F9012081206819
S1131DC0FC01208321C089818C3071F461E08CE0B6
S1131DD00E94936080E890E020E830E0F9012081DF
S1131DE02062FC01208310C089818D3069F461E098
S1131DF08DE00E94936080E890E020E830E0F901F3
S1131E0020812860FC0120838FEF94E09D838C83E4
S1131E1089818E838A819B8198878F838091000535
S1131E2090910105CC01A0E0B0E089879A87AB8747
S1131E30BC878F819885CC01A0E0B0E029853A85E4
S1131E404B855C85BC01CD010E940763DC01CB019D
S1131E5089879A87AB87BC8789859A85AB85BC853A
S1131E60072E7AE0B695A795979587957A95D1F739
S1131E70702D89879A87AB87BC878E818B3041F41C
S1131E8088E890E029853A85FC013183208315C0D8
S1131E908E818C3041F48AE890E029853A85FC01F2
S1131EA0318320830AC08E818D3039F48CE890E030
S1131EB029853A85FC013183208381E890E02091D3
S1131EC002052061FC01208300002C960FB6F894D3
S1131ED0DEBF0FBECDBFDF91CF910895CF93DF93C7
S1131EE0CDB7DEB72C970FB6F894DEBF0FBECDBFCB
S1131EF080913A0290913B02898384EF91E09B8325
S1131F008A8389818B3071F461E08BE00E94936055
S1131F1080E890E020E830E0F90120812068FC01AD
S1131F20208321C089818C3071F461E08CE00E94AF
S1131F30936080E890E020E830E0F901208120629D
S1131F40FC01208310C089818D3069F461E08DE04B
S1131F500E94936080E890E020E830E0F90120815D
S1131F602860FC0120838FEF94E09D838C8389811A
S1131F708E838A819B8198878F83809100059091BD
S1131F800105CC01A0E0B0E089879A87AB87BC87C4
S1131F908F819885CC01A0E0B0E029853A854B85F6
S1131FA05C85BC01CD010E940763DC01CB018987FC
S1131FB09A87AB87BC8789859A85AB85BC85072EB4
S1131FC07AE0B695A795979587957A95D1F7702D70
S1131FD089879A87AB87BC878E818B3041F488E8E8
S1131FE090E029853A85FC013183208315C08E81D8
S1131FF08C3041F48AE890E029853A85FC013183EC
S113200020830AC08E818D3039F48CE890E02985D4
S11320103A85FC013183208381E890E02091020518
S11320202061FC01208300002C960FB6F894DEBFDB
S11320300FBECDBFDF91CF910895CF93DF9300D032
S11320401F92CDB7DEB79A8389837C836B832B8100
S11320503C8189819A81B9010E949D6289819A811A
S11320600F900F900F900F90DF91CF910895CF9321
S1132070DF9300D01F92CDB7DEB79A8389837C8328
S11320806B832B813C8189819A81B9010E94A3626F
S113209089819A810F900F900F900F90DF91CF91CB
S11320A00895CF93DF9300D01F92CDB7DEB79A8304
S11320B089837C836B832B813C8189819A81B901DB
S11320C00E94E0620F900F900F900F90DF91CF91DC
S11320D00895CF93DF9300D01F92CDB7DEB79A83D4
S11320E089837C836B832B813C8189819A81B901AB
S11320F00E94E062982F81E0992309F080E00F901C
S11321000F900F900F90DF91CF910895CF93DF93AD
S1132110CDB7DEB729970FB6F894DEBF0FBECDBF9B
S113212099878887888599856DE672E00E940062A8
S11321301982909155048981891778F58981882FAE
S113214090E08A5A9B4FFC018081803118F48EE61E
S113215092E002C081E792E028853985BC01C9017B
S113216086DF8981882F90E08A5A9B4FFC01208169
S1132170CE01029640E1622F0E9446629E012E5FCC
S11321803F4F88859985B90158DFCE0102960E9498
S1132190966189818F5F8983CCCF888599850E94D8
S11321A0F06200008885998529960FB6F894DEBF01
S11321B00FBECDBFDF91CF910895CF93DF93CDB7FD
S11321C0DEB72A970FB6F894DEBF0FBECDBF98874F
S11321D08F837A87698763E772E0CE0101960E9454
S11321E000628F8198859E012F5F3F4FB90159DFAF
S11321F0982F81E0992309F480E0882361F0898590
S11322009A8521E0FC01208360E872E081ED95E08D
S11322100E94975C18C08F8198859E012F5F3F4F65
S1132220B90157DF982F81E0992309F480E08823CE
S113223051F089859A85FC0110826DE872E081ED88
S113224095E00E94975CCE0101960E949661000081
S11322502A960FB6F894DEBF0FBECDBFDF91CF91A3
S11322600895CF93DF9300D01F92CDB7DEB79A8342
S113227089837C836B8389819A81019751F48B8153
S11322809C81019631F445E065E383E594E00E9486
S1132290DC4200000F900F900F900F90DF91CF91D0
S11322A00895CF93DF93CDB7DEB76FEF7FEF81E073
S11322B090E0D7DFDF91CF910895CF93DF931F9202
S11322C01F92CDB7DEB79A83898380913C029091A7
S11322D03D0229813A812817390744F489819A817A
S11322E0BC0183E694E00E948F4E06C06AE570E06C
S11322F083E694E00E948F4E00000F900F90DF91D0
S1132300CF910895CF93DF9300D01F92CDB7DEB75E
S11323109A8389837C836B8389819A81019741F4B1
S11323208B819C81019621F483E694E00E94B04D58
S113233000000F900F900F900F90DF91CF910895B0
S1132340CF93DF93CDB7DEB76FEF7FEF81E090E0FF
S1132350D9DFDF91CF9108950F93CF93DF93CDB75A
S1132360DEB728970FB6F894DEBF0FBECDBF9A83B1
S113237089834B835C836D837E832F8308878B8162
S11323809C81AD81BE81E981FA8108852F81AC01F0
S1132390BD01CF010BD0000028960FB6F894DEBF24
S11323A00FBECDBFDF91CF910F9108950F93CF93BF
S11323B0DF93CDB7DEB765970FB6F894DEBF0FBED7
S11323C0CDBF9F878E87488B598B6A8B7B8B2C8BD9
S11323D00D8B8E859F859A83898388899989AA899B
S11323E0BB898B839C83AD83BE838C898F838D89CA
S11323F0888780E092E1AAE7B0E089879A87AB8773
S1132400BC871D868D858630E8F42B813C814D8107
S11324105E8189859A85AB85BC85281739074A076B
S11324205B0780F489859A85AB85BC85B695A795AD
S11324309795879589879A87AB87BC878D858F5FAA
S11324408D87E0CF8D85863011F487E08D879D855B
S113245081E089278D878F81882311F480E701C06B
S113246080E598859C70292F282B8D85882F90E0F6
S1132470959587958370822B282F89819A81FC01F9
S113248020838D85282F217089819A81FC012183E5
S1132490000065960FB6F894DEBF0FBECDBFDF9186
S11324A0CF910F910895CF93DF9300D0CDB7DEB7CE
S11324B09B838A838091FC04882331F18FE590E02B
S11324C0FC0180818983F8948091FC048130C9F4F3
S11324D08DE390E0FC0180818093FE048DE390E025
S11324E02DE330E0F9012081322F2091FD04209565
S11324F02323FC0120838FE590E02981FC012083C4
S113250003C089818093FE048CE490E02A81FC015D
S113251020838DE490E02B81FC01208300000F9048
S11325200F900F90DF91CF910895CF93DF931F9277
S1132530CDB7DEB78091FC048823E1F08FE590E00D
S1132540FC0180818983F8948091FC04813061F4DA
S11325508DE390E02091FE04FC0120838FE590E060
S11325602981FC01208306C08FE590E02091FE04C0
S1132570FC01208300000F90DF91CF910895CF9349
S1132580DF931F921F92CDB7DEB79A8389832EE51E
S113259033E089819A81FC013183208389819A8186
S11325A0FC011382128200000F900F90DF91CF91F3
S11325B00895CF93DF931F921F92CDB7DEB79A830E
S11325C0898380E090E00F900F90DF91CF91089580
S11325D0CF93DF931F921F92CDB7DEB79A8389837F
S11325E000000F900F90DF91CF910895CF93DF9368
S11325F01F921F92CDB7DEB79A83898389819A810E
S1132600FC01808591850F900F90DF91CF91089503
S1132610CF93DF931F921F92CDB7DEB79A8389833E
S113262089819A81FC01828593850F900F90DF91B7
S1132630CF910895CF93DF931F921F92CDB7DEB74A
S11326409A83898389819A81FC0186890F900F90EE
S1132650DF91CF910895CF93DF93CDB7DEB727975E
S11326600FB6F894DEBF0FBECDBF9E838D836F83FC
S11326708F81282F30E0C901880F991F880F991F77
S1132680880F991FAC01421B530B9A018D819E81C7
S113269002969A83898389819A81FC014591549198
S11326A0CF015C834B839A8389838B819C81820FC6
S11326B0931F27960FB6F894DEBF0FBECDBFDF91F0
S11326C0CF910895CF93DF9300D000D0CDB7DEB77C
S11326D09E838D838D819E819A83898389819A814A
S11326E0FC0125913491CF013C832B839A83898308
S11326F08B819C8126960FB6F894DEBF0FBECDBFAA
S1132700DF91CF910895CF93DF9300D000D0CDB760
S1132710DEB79A8389837C836B835E834D8389814F
S11327209A812DDF21EA32E089819A81FC0131838B
S1132730208389819A812B813C81FC013583248308
S113274089819A812D813E81FC0137832683898189
S11327509A81FC012481358189819A81FC01318728
S1132760208789819A81FC012681378189819A8118
S1132770FC013387228789819A81FC01168A898129
S11327809A81FC011586148689819A81FC0124852D
S1132790358589819A81FC013787268789819A81C9
S11327A021E0FC01258B89819A81FC01258989819D
S11327B09A81FC01248B89819A812FEF3FEFFC01E0
S11327C0338B228B89819A81FC0122893389898107
S11327D09A81FC01318B208B89819A8121E0FC0153
S11327E0278B89819A81FC01108E89819A81FC0151
S11327F0128E118E000026960FB6F894DEBF0FBE1F
S1132800CDBFDF91CF910895EF92FF920F931F9365
S1132810CF93DF93CDB7DEB76E970FB6F894DEBFD4
S11328200FBECDBF9C8B8B8B7E8B6D8B588F4F8B4C
S11328303A8F298F1C8F0B8FFE8EED8E2B8D3C8D46
S11328408F89988DA901481B590BCA0199231CF43F
S1132850919581959109AC01298D3A8D8D899E8937
S1132860B901681B790BCB0199231CF491958195CF
S1132870910921E0841795070CF020E0822F90E065
S11328809E838D838D819E81892BC1F08D899E8944
S113289098878F838F89988D9E8B8D8B8F81988558
S11328A0988F8F8B898D9A8D9A8789878B8D9C8D34
S11328B09A8F898F89859A859C8F8B8F2D893E89E4
S11328C0898D9A8D82179307C4F48D899E899C877C
S11328D08B87898D9A8D9E8B8D8B8B859C859A8F0A
S11328E0898F8F89988D9E878D878B8D9C8D988FEE
S11328F08F8B8D859E859C8F8B8F298D3A8D8D89AD
S11329009E89D901A81BB90BCD01988B8F872B8D7C
S11329103C8D8F89988DF901E81BF90BCF01992320
S11329201CF49195819591099A8B898B8F8598894F
S113293099230CF40196959587959A8389832F8919
S1132940388D8B8D9C8D281739072CF481E090E00D
S11329509C838B8304C08FEF9FEF9C838B832D8993
S11329603E89898D9A8D821793070CF44DC08D8111
S11329709E81892B99F08B899C89DC018D919C9196
S11329800C96DC01ED91FC912D8D3E8D4D895E8977
S11329906F89788D8B899C89199512C08B899C8944
S11329A0FC01808191810C96DC01ED91FC912D8DCF
S11329B03E8D4F89588D6D897E898B899C891995A7
S11329C029813A8189899A89F901E81BF90BCF0198
S11329D09A83898389819A81992384F42F89388DF4
S11329E08B819C81820F931F988F8F8B29813A81D1
S11329F08F859889820F931F9A8389838D899E89F5
S1132A0001969E8B8D8BABCF00006E960FB6F8941B
S1132A10DEBF0FBECDBFDF91CF911F910F91FF900D
S1132A20EF900895CF93DF931F921F92CDB7DEB737
S1132A309A83898300000F900F90DF91CF910895BE
S1132A40CF93DF93CDB7DEB728970FB6F894DEBFE8
S1132A500FBECDBF9A8389837C836B835E834D8352
S1132A6038872F8389819A81DC018D919C91089606
S1132A70DC01ED91FC912F8138854D815E816B8164
S1132A807C8189819A811995000028960FB6F89463
S1132A90DEBF0FBECDBFDF91CF9108950F931F937B
S1132AA0CF93DF93CDB7DEB72A970FB6F894DEBF86
S1132AB00FBECDBF9A8389837C836B835E834D83F2
S1132AC038872F831A87098789819A81DC018D9140
S1132AD09C914C96DC01ED91FC91A985BA852F81DE
S1132AE038854D815E816B817C8189819A818D01DC
S1132AF0199500002A960FB6F894DEBF0FBECDBF1D
S1132B00DF91CF911F910F9108950F931F93CF934E
S1132B10DF93CDB7DEB72A970FB6F894DEBF0FBEAA
S1132B20CDBF9A8389837C836B835E834D8338878F
S1132B302F831A87098789819A81DC018D919C9161
S1132B404E96DC01ED91FC91A985BA852F813885DB
S1132B504D815E816B817C8189819A818D0119957A
S1132B6000002A960FB6F894DEBF0FBECDBFDF91EA
S1132B70CF911F910F910895EF92FF920F931F939E
S1132B80CF93DF93CDB7DEB72C970FB6F894DEBFA3
S1132B900FBECDBF9A8389837C836B835E834D8311
S1132BA038872F831A870987FC86EB8689819A8167
S1132BB0DC018D919C918096DC01ED91FC910B855B
S1132BC01C85A985BA852F8138854D815E816B81ED
S1132BD07C8189819A8178018D01199500002C9658
S1132BE00FB6F894DEBF0FBECDBFDF91CF911F911A
S1132BF00F91FF90EF900895CF93DF931F921F9250
S1132C00CDB7DEB79A83898300000F900F90DF91D0
S1132C10CF910895EF92FF920F931F93CF93DF9379
S1132C20CDB7DEB72A970FB6F894DEBF0FBECDBF7F
S1132C309A8389837C836B835E834D8338872F8358
S1132C401A87098789819A81DC018D919C910A9662
S1132C50FC012081318189819A81F9011995898149
S1132C609A81DC018D919C914496DC01ED91FC915B
S1132C702D813E818F819885820F931FDC011197EE
S1132C8009851A852B813C814D815E816B817C8114
S1132C9089819A8178018D01199589819A81FC0134
S1132CA0808191814696DC012D913C9189819A81A4
S1132CB0F901199500002A960FB6F894DEBF0FBEED
S1132CC0CDBFDF91CF911F910F91FF90EF900895A9
S1132CD0EF92FF920F931F93CF93DF93CDB7DEB79D
S1132CE02A970FB6F894DEBF0FBECDBF9A838983AF
S1132CF07C836B835E834D8338872F831A87098790
S1132D0089819A81DC018D919C910A96FC01208134
S1132D10318189819A81F901199589819A81DC012E
S1132D208D919C914496DC01ED91FC912B813C8129
S1132D308F819885820F931F9C0121503109098549
S1132D401A85AD81BE814D815E816B817C818981D3
S1132D509A8178018D01199589819A81FC0180817C
S1132D6091814696DC012D913C9189819A81F901EA
S1132D70199500002A960FB6F894DEBF0FBECDBF9A
S1132D80DF91CF911F910F91FF90EF900895EF92F3
S1132D90FF920F931F93CF93DF93CDB7DEB72E9798
S1132DA00FB6F894DEBF0FBECDBF9C838B837E83AA
S1132DB06D8358874F833A8729871C870B87FE8644
S1132DC0ED868B819C81DC018D919C910A96FC019E
S1132DD0208131818B819C81F90119958D819E819E
S1132DE09A8389832D813E8189859A85280F391F8D
S1132DF089819A8182179307DCF48B819C81DC01A1
S1132E008D919C914096DC01ED91FC91AD85BE8540
S1132E102B853C854F81588569817A818B819C8182
S1132E208D01199589819A8101969A838983DACFD4
S1132E308B819C81FC01808191814696DC012D91DE
S1132E403C918B819C81F901199500002E960FB657
S1132E50F894DEBF0FBECDBFDF91CF911F910F91CC
S1132E60FF90EF900895EF92FF920F931F93CF93EB
S1132E70DF9300D01F92CDB7DEB79A8389837C831A
S1132E806B8389819A81DC018D919C918096DC0110
S1132E90ED91FC9189819A81DC011A964D915C91A6
S1132EA01B9789819A81DC0118962D913C91199781
S1132EB06B817C8189819A817B018A0140E050E0A9
S1132EC060E070E0199500000F900F900F900F9044
S1132ED0DF91CF911F910F91FF90EF900895EF92A2
S1132EE0FF920F931F93CF93DF93CDB7DEB7609715
S1132EF00FB6F894DEBF0FBECDBF9E838D83788757
S1132F006F835A8749873C872B871E870D87F88AEA
S1132F10EF862F8138858B859C852817390791F595
S1132F2029853A858D859E858217930764F4898562
S1132F309A859A8389838D859E859A8789878981D5
S1132F409A819E878D878D819E81DC018D919C91D4
S1132F504C96DC01ED91FC912D853E8589859A8501
S1132F60A901481B590BCA019C012F5F3F4FAF8534
S1132F70B88949855A856F8178858D819E818D01B7
S1132F8019956BC029853A858D859E852817390743
S1132F9091F52F8138858B859C858217930764F47E
S1132FA08F8198859C838B838B859C8598878F8361
S1132FB08B819C819C878B878D819E81DC018D9187
S1132FC09C914E96DC01ED91FC912B853C858F8183
S1132FD09885A901481B590BCA019C012F5F3F4FDB
S1132FE0AF85B88949855A856F8178858D819E81A1
S1132FF08D01199532C08D819E81DC018D919C914A
S11330000A96FC01208131818D819E81F9011995F7
S11330108D819E81DC018D919C914496DC01ED9122
S1133020FC910F851889AD85BE852B853C85498526
S11330305A856F8178858D819E8178018D011995DE
S11330408D819E81FC01808191814696DC012D91C8
S11330503C918D819E81F9011995000060960FB60F
S1133060F894DEBF0FBECDBFDF91CF911F910F91BA
S1133070FF90EF900895EF92FF920F931F93CF93D9
S1133080DF93CDB7DEB72C970FB6F894DEBF0FBE33
S1133090CDBF9A8389837C836B835E834D8338871A
S11330A02F831A870987FC86EB8689819A81DC0144
S11330B08D919C910A96FC012081318189819A81AC
S11330C0F901199589819A81DC018D919C9142962F
S11330D0DC01ED91FC91AB85BC852F8138854D8158
S11330E05E816B817C8189819A818D0119958981A9
S11330F09A81FC01808191814296DC01ED91FC91E1
S11331002D813E8189859A85820F931FAC014150A0
S11331105109AB85BC852F8138856B817C81898180
S11331209A818D01199589819A81FC01808191810F
S11331304096DC01ED91FC91AB85BC8529853A85EF
S11331404D815E816B817C8189819A818D01199584
S113315089819A81FC01808191814096DC01ED9105
S1133160FC912B813C818F819885820F931FBC0138
S113317061507109AB85BC8529853A854D815E8195
S113318089819A818D01199589819A81FC018081B7
S113319091814696DC012D913C9189819A81F901B6
S11331A0199500002C960FB6F894DEBF0FBECDBF64
S11331B0DF91CF911F910F91FF90EF900895CF92DF
S11331C0DF92EF92FF920F931F93CF93DF93CDB7CC
S11331D0DEB768970FB6F894DEBF0FBECDBF9C87ED
S11331E08B877E876D87588B4F873A8B298B1C8BF7
S11331F00B8BFE8AED8AD88ECF8A8B899C890796A1
S113320099230CF4079695958795959587959595AB
S113321087959F838E8319828B859C85DC018D9194
S11332209C910A96FC01208131818B859C85F90152
S113323019951B821A822A813B818D899E892817C0
S113324039070CF065C01D821C822C813D818B895D
S11332509C89281739070CF050C08C819D81877098
S11332609927892B21F08981880F898326C04A8177
S11332705B818E819F81489F9001499F300D589FAB
S1133280300D11248C819D8199230CF4079695951A
S113329087959595879595958795820F931F9C01A2
S11332A089899A89820F931F998788878885998548
S11332B0FC0184918A878A85898389818823BCF467
S11332C08B859C85DC018D919C910C96DC01ED91A4
S11332D0FC912D853E858C819D81B901680F791FF4
S11332E02F89388D4F8558898B859C8519958C81BC
S11332F09D8101969D838C83A8CF8A819B810196B1
S11333009B838A838F8598890196988B8F8793CF27
S11333108B859C85FC01808191814696DC012D91F1
S11333203C918B859C85F9011995000068960FB630
S1133330F894DEBF0FBECDBFDF91CF911F910F91E7
S1133340FF90EF90DF90CF900895AF92CF92DF92ED
S1133350EF92FF920F931F93CF93DF93CDB7DEB716
S1133360EB970FB6F894DEBF0FBECDBF98AB8FA717
S11333707AAB69AB5CAB4BAB2DAB1FAB0EABF9AE11
S1133380E8AECAAEABAE8FA598A9DC0159968D9173
S11333909C915A97892B09F0C7C18FA598A9FC0164
S11333A02085318589A99AA9821793070CF00EC349
S11333B08FA598A9DC011A962D913C911B978BA996
S11333C09CA9821793070CF001C38AAD282F30E023
S11333D0C901880F991F820F931F880F991F9C01A1
S11333E089A99AA9820F931F019799230CF4EEC21D
S11333F08BAD882F90E09C01220F331F220F331FC7
S1133400220F331F8BA99CA9820F931F0197992325
S11334100CF4DCC28FA598A9FC01908D81E089276A
S1133420882331F08DA9803B18F08DA98F5F8DAB77
S11334308FA598A9DC018D919C910A96FC012081AD
S113344031818FA598A9F90119951982898185304F
S11334500CF007C18DA9282F30E0C901880F991FEE
S1133460880F991F280F391F8981082E000C990B8A
S1133470820F931F80579E4F9F878E878E859F85CF
S1133480FC018491888B88898A831B828B81883094
S11334900CF0E3C08A81882F90E081709927892BF2
S11334A009F465C08AAD813021F58BAD813009F511
S11334B08FA598A9DC018D919C910C96DC01ED916E
S11334C0FC918B81282F880F330B8BA99CA9A90110
S11334D0480F591F8981282F880F330B89A99AA96E
S11334E0B901680F791F2EA93FA98FA598A919952D
S11334F0AAC08FA598A9FC01808191810E96DC0158
S1133500ED91FC918BAD082F10E08AADC82ED12C23
S11335108B81482F880F550B8BAD882F90E0489FE7
S11335209001499F300D589F300D11248BA99CA9FF
S1133530D901A80FB91F8981482F880F550B8AAD6F
S1133540882F90E0489F9001499F300D589F300D7F
S1133550112489A99AA9B901680F791F2EA93FA935
S11335608FA598A979019601AD0119956CC028AD74
S113357039AD8EA99FA92817390709F464C08AAD0B
S1133580813021F58BAD813009F58FA598A9FC0117
S1133590808191810C96DC01ED91FC918B81282F27
S11335A0880F330B8BA99CA9A901480F591F898146
S11335B0282F880F330B89A99AA9B901680F791F9D
S11335C028AD39AD8FA598A919953DC08FA598A9A7
S11335D0FC01808191810E96DC01ED91FC918BAD13
S11335E0082F10E08AADC82ED12C8B81482F880F6C
S11335F0550B8BAD882F90E0489F9001499F300D6B
S1133600589F300D11248BA99CA9D901A80FB91F6B
S11336108981482F880F550B8AAD882F90E0489FE9
S11336209001499F300D589F300D112489A99AA902
S1133630B901680F791F28AD39AD8FA598A9790113
S11336409601AD0119958B818F5F8B838A81882FB9
S113365090E0959587958A8319CF89818F5F8983B7
S1133660F5CE28AD39AD8EA99FA92817390709F4DD
S11336704DC08AAD8130E1F48BAD8130C9F48FA5A2
S113368098A9FC01808191814096DC01ED91FC9127
S113369089A99AA9BC016B5F7F4F28AD39AD4BA9AD
S11336A05CA98FA598A9890128E030E019952EC05E
S11336B08FA598A9FC01808191810E96DC01ED9182
S11336C0FC918BAD882F90E08C01000F111F000F2F
S11336D0111F000F111F8AADA82FB0E08AAD282F4B
S11336E030E0C901880F991F880F991F280F391FCF
S11336F089A99AA9B901680F791F28AD39AD4BA9D9
S11337005CA98FA598A979019D0119958FA598A900
S1133710FC01808191814696DC012D913C918FA51D
S113372098A9F901199553C18FA598A9DC01599657
S11337308D919C915A9704969A8B898B89899A8941
S1133740FC0184918B8B8B899DA9F92FF81B8F2FFA
S11337508DAB8FA598A9DC0159968D919C915A97B0
S11337606DA90E942B139D8B8C8B8FA598A9FC01AE
S1133770818D928D0E9462139F8B8E8B8C899D8983
S1133780998F888F888D998DFC0125913491CF0173
S11337903B8F2A8F998F888F8A8D9B8D9D838C83F5
S11337A08C899D8902969D8F8C8F8C8D9D8DFC01BB
S11337B084918E8F8E8D8F8F8C899D89039699A38A
S11337C088A388A199A1FC0184918AA38AA18BA3CF
S11337D08C899D8905969DA38CA38CA19DA1FC0138
S11337E084918EA38EA18FA38C899D89069699A717
S11337F088A788A599A5FC0184918AA78AA58BA787
S1133800188619861B861A861D861C868AAD823008
S113381018F48BAD823060F08FA1082E000C990B48
S11338209B878A878BA5082E000C990B9D878C8714
S11338308FA598A9DC018D919C910A96FC012081A9
S113384031818FA598A9F90119951F829F818BA1B8
S1133850981708F0ADC01E829E818F8D981708F0CE
S1133860A3C0898591E0980F9987882F90E087708D
S1133870992721E0892B09F020E02223A1F08C81F3
S11338809D819C012F5F3F4F3D832C832E893F896F
S1133890820F931F9DA78CA78CA59DA5FC018491E5
S11338A08EA78EA58887888588230CF076C08AAD7C
S11338B0813071F58BAD813059F58FA598A9DC0164
S11338C08D919C910C96DC01ED91FC918BA5282F98
S11338D0880F330B8BA99CA9280F391F8F81882F40
S11338E090E0A901480F591F8FA1282F880F330B8F
S11338F089A99AA9280F391F8E81882F90E0B901D0
S1133900680F791F2EA93FA98FA598A9199545C0BD
S11339108FA598A9FC01808191810E96DC01ED911F
S1133920FC918BAD082F10E08AADC82ED12C8F816D
S1133930282F30E08C859D85A901480F591F8BAD38
S1133940882F90E0489F9001499F300D589F300D7B
S113395011248BA99CA9D901A80FB91F8E81282FE6
S113396030E08A859B85A901480F591F8AAD882FAD
S113397090E0489F9001499F300D589F300D1124CD
S113398089A99AA9B901680F791F2EA93FA98FA502
S113399098A979019601AD0119958885880F8887C2
S11339A08E818F5F8E8358CF8F818F5F8F834ECFB1
S11339B08FA598A9FC01808191814696DC012D9107
S11339C03C918FA598A9F901199501C00000EB96C7
S11339D00FB6F894DEBF0FBECDBFDF91CF911F911C
S11339E00F91FF90EF90DF90CF90AF900895AF923A
S11339F0CF92EF92FF920F931F93CF93DF93CDB7A4
S1133A00DEB7A4970FB6F894DEBF0FBECDBF99A35F
S1133A1088A36AA388A199A1FC01818D928D892B29
S1133A2009F0A8C08AA18A30F1F488A199A1FC0107
S1133A301586148688A199A1FC012685378588A15D
S1133A4099A1FC018589882F90E0880F991F880F20
S1133A50991F880F991F280F391F88A199A1FC016C
S1133A6037872687CBC18AA18D3009F4C7C188A1C5
S1133A7099A1FC0187898823D1F188A199A1FC012E
S1133A804485558588A199A1FC018489282F30E0BB
S1133A90C901880F991F820F931F880F991F9A01DC
S1133AA0280F391F88A199A1FC018085918582176F
S1133AB09307ECF488A199A1FC011586148688A1CA
S1133AC099A1FC012685378588A199A1FC018589E6
S1133AD0882F90E0880F991F880F991F880F991FCE
S1133AE0280F391F88A199A1FC013787268788A14F
S1133AF099A1FC01B58988A199A1FC01A48988A197
S1133B0099A1FC010288F389E02DFCA3EBA388A111
S1133B1099A1FC012089318988A199A1FC014685DC
S1133B20578588A199A1FC016485758588A199A10F
S1133B30AB2ECA2EEBA0FCA089012AA106DC88A129
S1133B4099A1FC014485558588A199A1FC0184892A
S1133B50282F30E0C901880F991F820F931F880F07
S1133B60991F9A01280F391F88A199A1FC01358753
S1133B70248744C18AA18A3079F588A199A1FC01DE
S1133B801586148688A199A1FC018589482F50E0E7
S1133B9088A199A1FC01818D928D08969A838983CD
S1133BA089819A81FC0184918B838B81282F30E059
S1133BB0429FC001439F900D529F900D112428A154
S1133BC039A1F90126853785280F391F88A199A1C4
S1133BD0FC013787268712C18AA18D3009F40EC1F2
S1133BE088A199A1FC01818D928D04969D838C837B
S1133BF08C819D81FC0184918E838E818F839AA117
S1133C008F81981798F088A199A1FC01818D928DDC
S1133C1006969987888788859985FC0184918A8787
S1133C209A858AA1981710F081E001C080E088236A
S1133C3009F4E4C09AA18F81292F281B88A199A196
S1133C40FC01818D928D622F0E942B139C878B87A0
S1133C508B859C8502969E878D878D859E85FC012C
S1133C6084918F878F85888B8B859C8503969A8B0F
S1133C70898B89899A89FC0184918B8B8B898C8BA4
S1133C808889882309F494C08C89882309F490C016
S1133C908B859C8505969E8B8D8B8D899E89FC01D9
S1133CA084918F8B8F89082E000C990B998F888FA4
S1133CB088A199A1FC018789882309F451C088A1AE
S1133CC099A1FC012485358588A199A1FC018489E9
S1133CD0682F70E08889482F50E0888D998D480FAF
S1133CE0591F649FC001659F900D749F900D11240E
S1133CF0280F391F88A199A1FC018085918582171D
S1133D00930774F588A199A1FC011586148688A1EE
S1133D1099A1FC018589482F50E088A199A1FC0153
S1133D20818D928D08969B8F8A8F8A8D9B8DFC0145
S1133D3084918C8F8C8D282F30E0429FC001439F4B
S1133D40900D529F900D112428A139A1F9012685C7
S1133D503785280F391F88A199A1FC013787268749
S1133D6088A199A1FC01B58988A199A1FC01A48924
S1133D7088A199A1FC010288F389E02DFCA3EBA39F
S1133D8088A199A1FC012089318988A199A1FC010C
S1133D904685578588A199A1FC016485758588A10C
S1133DA099A1AB2ECA2EEBA0FCA089012AA1CDDAE1
S1133DB08B859C8504969E8F8D8F8D8D9E8DFC01A9
S1133DC084918F8F8F8D482F50E088A199A1FC0199
S1133DD08489282F30E0429FC001439F900D529F59
S1133DE0900D112428A139A1F90124853585280FC6
S1133DF0391F88A199A1FC013587248781E090E0CF
S1133E00A4960FB6F894DEBF0FBECDBFDF91CF915D
S1133E101F910F91FF90EF90CF90AF900895CF93A3
S1133E20DF9300D0CDB7DEB79A8389836B83898112
S1133E309A814B816B8107D000000F900F900F90F7
S1133E40DF91CF910895CF93DF9300D01F92CDB728
S1133E50DEB79A8389836B834C838B81882311F02B
S1133E602B8101C021E089819A81FC01248B8C8102
S1133E70882311F02C8101C021E089819A81FC0101
S1133E80258B00000F900F900F900F90DF91CF9132
S1133E900895CF93DF9300D0CDB7DEB79A8389839B
S1133EA06B838B81282F237089819A81FC01268B57
S1133EB089819A81FC018689882F90E0813091055F
S1133EC009F1823091051CF4892B39F030C082301D
S1133ED0910519F00397B1F02AC089819A81FC01F8
S1133EE02481358189819A81FC01318720878981E8
S1133EF09A81FC012681378189819A81FC0133876B
S1133F00228715C089819A81FC01268137818981A4
S1133F109A81FC013187208789819A81FC0124815F
S1133F20358189819A81FC01338722870000000052
S1133F300F900F900F90DF91CF910895CF93DF935F
S1133F4000D0CDB7DEB79A8389836B8300000F90CE
S1133F500F900F90DF91CF910895CF93DF931F922D
S1133F60CDB7DEB789838EE490E02981FC012083FC
S1133F7000008DE490E0FC0180818095881F8827F3
S1133F80881F882309F0F5CF8EE490E0FC0180813E
S1133F900F90DF91CF910895CF93DF93CDB7DEB724
S1133FA02F970FB6F894DEBF0FBECDBF9F878E87C5
S1133FB08E859F859A83898380E099E0ADE3B0E0A4
S1133FC08B839C83AD83BE8381E08F83188680E0DE
S1133FD092E1AAE7B0E089879A87AB87BC871D8600
S1133FE08D858630E8F42B813C814D815E81898505
S1133FF09A85AB85BC85281739074A075B0780F487
S113400089859A85AB85BC85B695A795979587953F
S113401089879A87AB87BC878D858F5F8D87E0CF33
S11340208D85863011F487E08D879D8581E0892711
S11340308D878F81882311F480E701C080E59885FE
S11340409C70292F282B8D85882F90E09595879536
S11340508370822B282F89819A81FC0120838D858E
S1134060282F217089819A81FC01218300002F96D9
S11340700FB6F894DEBF0FBECDBFDF91CF91089588
S11340808F929F92AF92BF92CF92DF92EF92FF9264
S11340900F93CF93DF93CDB7DEB72F970FB6F89476
S11340A0DEBF0FBECDBF9A8389836B834C833E836F
S11340B02D830F83C886D986EA86FB868C869D86E7
S11340C0AE86BF868C81482F50E08B81282F30E04C
S11340D089819A81B9010E9483132DEC32E0898190
S11340E09A81FC013183208389819A81FC01148E99
S11340F0138E8D819E81892B19F08D819E8102C042
S113410085EC95E029813A81F901968F858F898123
S11341109A81FC0110A2178E89819A812FEFFC01EC
S113412024A389819A812FEFFC0125A389819A8197
S11341302FEFFC0126A389819A812FEFFC0127A38D
S113414089819A812F81FC0120A729813A81888560
S11341509985AA85BB85F90185AB96ABA7ABB0AFB2
S113416029813A818C859D85AE85BF85F90181AF12
S113417092AFA3AFB4AF89819A81CE960DDF0000D0
S11341802F960FB6F894DEBF0FBECDBFDF91CF914F
S11341900F91FF90EF90DF90CF90BF90AF909F90E2
S11341A08F900895CF93DF931F921F92CDB7DEB700
S11341B09A8389832DEC32E089819A81FC013183D1
S11341C0208389819A81FC01878D90A1892B61F0DC
S11341D089819A81FC01878D90A10E940D64898157
S11341E09A81FC0110A2178E00000F900F90DF91AE
S11341F0CF910895CF93DF93CDB7DEB727970FB64E
S1134200F894DEBF0FBECDBF9E838D836F838D81F7
S11342109E81FC01858D968D892BE9F18D819E818E
S1134220FC0181A1282F880F330B8D819E81FC0115
S1134230858D968DB9010E94EE558D819E81FC017C
S1134240858D968DFC0180819181FC0120813181D5
S11342508D819E81FC01858D968D60E0F901199513
S11342608D819E81FC01858D968DFC0180819181DB
S1134270FC01208131818D819E81FC01858D968D8B
S11342806F81F90119958D819E81FC01858D968D33
S11342900E94295688C08D819E81FC0185A596A522
S11342A02D813E81F90125A536A5F9012081422FF2
S11342B02D813E81F90123A920952423FC0120832B
S11342C08D819E819A8389838F818B8389819A8151
S11342D0FC01838D948D892B19F08B813EDE63C0A4
S11342E080E88C838C81882309F45DC09B818C8158
S11342F089238823A1F089819A81FC0181A592A553
S113430029813A81F90121A532A5F9014081298148
S11343103A81F90121A9242BFC01208315C089814C
S11343209A81FC0181A592A529813A81F90121A5EF
S113433032A5F9012081422F29813A81F90121A96D
S113434020952423FC01208389819A81FC0183A583
S113435094A529813A81F90123A534A5F901408165
S113436029813A81F90122A9242BFC012083898126
S11343709A81FC0183A594A529813A81F90123A599
S113438034A5F9012081422F29813A81F90122A91A
S113439020952423FC0120838C81882F90E095951F
S11343A087958C839FCF000027960FB6F894DEBFC5
S11343B00FBECDBFDF91CF910895CF93DF93CDB7DB
S11343C0DEB761970FB6F894DEBF0FBECDBF9E87F0
S11343D08D87788B6F87498B8D859E85FC01858DB4
S11343E0968D892B09F492C08D859E85FC0181A14F
S11343F0282F880F330B8D859E85FC01858D968D26
S1134400B9010E94EE558D859E85FC01858D968DA2
S1134410FC0180819181FC01208131818D859E8503
S1134420FC01858D968D60E0F901199581E090E09D
S11344309A83898389899FEF980F998B91E08823C8
S113444009F490E0992309F459C089819A818097ED
S113445068F18D859E85FC01858D968D0E94295677
S11344608D859E85FC0181A1282F880F330B8D85B6
S11344709E85FC01858D968DB9010E94EE558D8532
S11344809E85FC01858D968DFC0180819181FC01C6
S1134490208131818D859E85FC01858D968D60E01E
S11344A0F901199581E090E09A8389838D859E8531
S11344B0FC01858D968DFC0180819181FC01208118
S11344C031818F859889AC014F5F5F4F588B4F873F
S11344D09C838B838B819C81FC0184918D834D8192
S11344E08D859E85FC01858D968D642FF901199526
S11344F089819A8101969A8389839CCF8D859E8533
S1134500FC01858D968D0E942956A0C08D859E85BF
S1134510FC0185A596A52D853E85F90125A536A521
S1134520F9012081422F2D853E85F90123A920958B
S11345302423FC01208389899FEF980F998B91E0B4
S1134540882309F490E0992309F480C08F85988921
S11345509C012F5F3F4F388B2F879F838E838E81E3
S11345609F81FC018491888728858D859E859A8703
S113457089872B8789859A85FC01838D948D892B66
S113458019F08B85EADCD7CF80E88C878C8588236B
S113459091F29B858C8589238823A1F089859A854E
S11345A0FC0181A592A529853A85F90121A532A5A9
S11345B0F901408129853A85F90121A9242BFC01BF
S11345C0208315C089859A85FC0181A592A529853A
S11345D03A85F90121A532A5F9012081422F2985C7
S11345E03A85F90121A920952423FC01208389859A
S11345F09A85FC0183A594A529853A85F90123A50B
S113460034A5F901408129853A85F90122A9242B91
S1134610FC01208389859A85FC0183A594A52985BD
S11346203A85F90123A534A5F9012081422F298572
S11346303A85F90122A920952423FC0120838C8545
S1134640882F90E0959587958C87A0CF0000619680
S11346500FB6F894DEBF0FBECDBFDF91CF910895A2
S1134660CF92DF92EF92FF920F931F93CF93DF933A
S1134670CDB7DEB7AF970FB6F894DEBF0FBECDBF90
S11346809BA78AA76CA74DA72EA70FA78AA59BA5B2
S1134690FC01878D90A1892B69F58AA59BA5FC0156
S11346A0248135818AA59BA5FC0186819781079683
S11346B099230CF4079695958795959587959595E7
S11346C08795AC01249FC001259F900D349F900DC8
S11346D011240E9475639C018AA59BA5FC0130A34B
S11346E0278F8AA59BA5FC01878D90A1892B11F4A6
S11346F081E001C080E0882311F080E031C38AA505
S11347009BA5FED48AA59BA5FC01868197818197F0
S113471054F18AA59BA5FC01868197818054910957
S113472099230CF4019695958795AC018AA59BA5D0
S1134730FC01848195818255910999230CF4019699
S113474095958795BC018AA59BA5CC24C394D12CAF
S11347506894EE24E6F8F12C02E510E020E936E056
S11347600E94DF1828C08AA59BA5FC018681978139
S1134770809799230CF4019695958795AC018AA5A9
S11347809BA5FC01848195818357910999230CF49D
S1134790019695958795BC018AA59BA5CC24C394C5
S11347A0D12C6894EE24E5F8F12C03E710E020E521
S11347B039E00E94DF182CA58AA59BA5FC0122A341
S11347C08AA59BA5FC01858D968D892BF9F08DA575
S11347D0882359F48AA59BA5FC018681978180973B
S11347E011F42CE303C02DE301C02DA58AA59BA5DC
S11347F0FC0121A38FA5882309F45AC18AA59BA58E
S1134800FC01858D968D0E94E45452C18AA59BA516
S1134810FC0186A161E00E9493608AA59BA5FC012E
S113482087A161E00E9493608AA59BA5FC0186A1F3
S1134830082E000C990B8151944F9B838A838A81A3
S11348409B81FC0184918C838C81882F90E0880F5C
S1134850991F815B934F9E838D838D819E81FC0183
S113486025913491CF0138872F839E838D838F8147
S113487098859C018AA59BA5FC0136A725A78AA536
S11348809BA5FC0186A1082E000C990B8755944F1B
S11348909A87898789859A85FC0184918B878AA563
S11348A09BA52B85FC0123AB8AA59BA5FC0187A1B5
S11348B0082E000C990B8151944F9D878C878C8511
S11348C09D85FC0184918E878E85882F90E0880FCA
S11348D0991F815B934F988B8F878F859889FC01F3
S11348E025913491CF013A8B298B988B8F878989B5
S11348F09A899C018AA59BA5FC0130AB27A78AA5B0
S11349009BA5FC0187A1082E000C990B8755944F99
S11349109C8B8B8B8B899C89FC0184918D8B8AA5C4
S11349209BA52D89FC0124AB8AA59BA5FC0187A529
S113493090A92AA53BA5F90127A530A9F901408131
S11349402AA53BA5F90124A9242BFC0120838AA5CF
S11349509BA5FC01838D948D892B39F08FA5882329
S113496009F4A6C00E94D74FA3C08AA59BA5FC0149
S113497084A161E00E9493608AA59BA5FC0185A1A6
S113498061E00E9493608AA59BA5FC0184A1082E86
S1134990000C990B8151944F9F8B8E8B8E899F892C
S11349A0FC018491888F888D882F90E0880F991F4F
S11349B0815B934F9A8F898F898D9A8DFC01259104
S11349C03491CF013C8F2B8F9A8F898F8B8D9C8D47
S11349D09C018AA59BA5FC0132A721A78AA59BA5BA
S11349E0FC0184A1082E000C990B8755944F9E8FCF
S11349F08D8F8D8D9E8DFC0184918F8F8AA59BA5B3
S1134A002F8DFC0121AB8AA59BA5FC0185A1082E55
S1134A10000C990B8151944F99A388A388A199A163
S1134A20FC0184918AA38AA1882F90E0880F991FA2
S1134A30815B934F9CA38BA38BA19CA1FC0125912B
S1134A403491CF013EA32DA39CA38BA38DA19EA142
S1134A509C018AA59BA5FC0134A723A78AA59BA535
S1134A60FC0185A1082E000C990B8755944F98A73B
S1134A708FA38FA198A5FC01849189A78AA59BA5E2
S1134A8029A5FC0122AB8AA59BA5FC0183A594A5BD
S1134A902AA53BA5F90123A534A5F9012081422FBC
S1134AA02AA53BA5F90122A920952423FC012083F2
S1134AB08EA5882371F18AA59BA5FC0180A5882376
S1134AC044F18AA59BA5FC0180A561E00E94936046
S1134AD08AA59BA5FC0180A561E00E94CF6061E0EE
S1134AE070E080E090E00E94AD5E8AA59BA5FC0189
S1134AF080A560E00E94CF606AE070E080E090E012
S1134B000E94AD5E8AA59BA5FC0180A561E00E9480
S1134B10CF608AA59BA5FC01858D968D892B91F08C
S1134B208AA59BA5FC0185A996A9A7A9B0AD2AA52C
S1134B303BA5F901258D368DAC01BD01C9010E944B
S1134B40015523C08AA59BA5FC01838D948D892BD7
S1134B5039F08AA59BA5FC0186AD97AD0E9453123E
S1134B608AA59BA5FC0187A590A92AA53BA5F901C7
S1134B7027A530A9F9012081422F2AA53BA5F901D7
S1134B8024A920952423FC01208324E08AA59BA545
S1134B90422F60E37BE011DC8AA59BA5FC018681A2
S1134BA097812FEF280F8AA59BA5622F23DB24E092
S1134BB08AA59BA5422F64E37BE0FFDB8AA59BA526
S1134BC0FC0182A1813011F420E101C024E18AA515
S1134BD09BA5622F0FDB24E08AA59BA5422F68E3E7
S1134BE07BE0EBDB82E089838AA59BA52FE8FC01AF
S1134BF025AF8AA59BA5FC01848195818038910508
S1134C0079F48AA59BA5FC0186819781809741F45C
S1134C1082E089838AA59BA52FE8FC0125AF3EC0CD
S1134C208AA59BA5FC018481958180389105C1F4F6
S1134C308AA59BA5FC01868197818034910581F426
S1134C4082E189838AA59BA5FC0182A1813011F4AC
S1134C502FE901C02FEC8AA59BA5FC0125AF1EC03E
S1134C608AA59BA5FC018481958180369105B1F4C8
S1134C708AA59BA5FC0186819781409779F482E0FF
S1134C8089838AA59BA5FC0182A1813011F420E1CE
S1134C9001C02FEA8AA59BA5FC0125AF8AA59BA587
S1134CA06AEDA8DA8AA59BA56981A4DA8AA59BA5E1
S1134CB061E8A0DA8AA59BA5FC0125AD8AA59BA580
S1134CC0622F98DA8AA59BA569ED94DA8AA59BA53B
S1134CD0FC0182A1813011F422E201C021EF8AA5F6
S1134CE09BA5622F87DA26E08AA59BA5422F6CE359
S1134CF07BE063DB8AA59BA5FC01858D968D892BC2
S1134D0091F08AA59BA5FC0181AD92ADA3ADB4AD94
S1134D102AA53BA5F901258D368DAC01BD01C9013C
S1134D200E9401551CC08AA59BA5FC0187A590A9DA
S1134D302AA53BA5F90127A530A9F90140812AA597
S1134D403BA5F90124A9242BFC0120838AA59BA55A
S1134D50FC01838D948D892B11F00E94951281E0C2
S1134D60AF960FB6F894DEBF0FBECDBFDF91CF91E3
S1134D701F910F91FF90EF90DF90CF900895CF9304
S1134D80DF93CDB7DEB728970FB6F894DEBF0FBE1A
S1134D90CDBF9A8389837C836B835E834D833887FD
S1134DA02F838B819C819923D4F089819A810E94DD
S1134DB0F6129C018B819C818217930784F48D8168
S1134DC09E81992364F089819A810E9408139C0131
S1134DD08D819E818217930714F481E001C080E0E5
S1134DE0882309F483C189819A810E941A13882F28
S1134DF090E08230910581F18330910509F44DC032
S1134E00019709F073C02B813C818D819E8182279B
S1134E1093279C838B832D813E818B819C81822768
S1134E2093279E838D832B813C818D819E81822754
S1134E3093279C838B8389819A81DC0114962D911D
S1134E403C9115978B819C81F901E81BF90BCF01EB
S1134E5001979C838B834AC089819A81DC011496D3
S1134E602D913C9115978B819C81F901E81BF90BDD
S1134E70CF0101979C838B8389819A81DC011696EB
S1134E802D913C9117978D819E81F901E81BF90BB7
S1134E90CF0101979E838D8329C02B813C818D8115
S1134EA09E81822793279C838B832D813E818B81D6
S1134EB09C81822793279E838D832B813C818D81C6
S1134EC09E81822793279C838B8389819A81DC012D
S1134ED016962D913C9117978D819E81F901E81BBF
S1134EE0F90BCF0101979E838D8300008F819885F4
S1134EF08130910541F08130910508F456C0029744
S1134F0009F4A4C0F3C089819A81DC015F962D91D4
S1134F103C9190978D819E8199230CF407969595E9
S1134F208795959587959595879549815A81FA0135
S1134F3044815581849FB001859F700D949F700DAD
S1134F4011244B815C81460F571F240F351F498163
S1134F505A81DA015F964D915C91909769817A81CB
S1134F60DB011496ED91FC9115978E9FB0018F9FF4
S1134F70700D9E9F700D11248B819C81860F971F4D
S1134F80840F951FFC018081682F8D819E81AC0167
S1134F904770552781E090E002C0880F991F4A9519
S1134FA0E2F7862BD9018C93A1C089819A81FC01F7
S1134FB0278D30A18D819E8199230CF407969595B8
S1134FC08795959587959595879549815A81DA01B5
S1134FD014964D915C911597849FB001859F700D37
S1134FE0949F700D11244B815C81460F571F240F31
S1134FF0351F49815A81FA01478D50A169817A810F
S1135000DB011496ED91FC9115978E9FB0018F9F53
S1135010700D9E9F700D11248B819C81860F971FAC
S1135020840F951FFC018081682F8D819E81AC01C6
S11350304770552781E090E002C0880F991F4A9578
S1135040E2F780958623D9018C9350C089819A8197
S1135050FC01278D30A18D819E8199230CF4079644
S113506095958795959587959595879549815A81C5
S1135070DA0114964D915C911597849FB001859F38
S1135080700D949F700D11244B815C81460F571F46
S1135090240F351F49815A81FA01478D50A1698136
S11350A07A81DB011496ED91FC9115978E9FB001E6
S11350B08F9F700D9E9F700D11248B819C81860F94
S11350C0971F840F951FFC018081682F8D819E811D
S11350D0AC014770552781E090E002C0880F991F0A
S11350E04A95E2F78627D9018C93000000002896A0
S11350F00FB6F894DEBF0FBECDBFDF91CF910895F8
S1135100CF93DF931F921F92CDB7DEB79A83898323
S113511089819A81FC012481358189819A81FC01EC
S113512086819781079699230CF407969595879520
S11351309595879595958795AC01249FC001259FEA
S1135140900D349F900D11249C0189819A81FC015A
S1135150878D90A1A90160E070E00E948B6500003A
S11351600F900F90DF91CF9108950F931F93CF93DA
S1135170DF93CDB7DEB72B970FB6F894DEBF0FBE23
S1135180CDBF9B838A837D836C835F834E83398702
S113519028871B870A8719828A819B81FC0186895B
S11351A0882F90E08230910581F18330910509F4D4
S11351B054C0019709F085C081E089832C813D8129
S11351C08E819F81822793279D838C832E813F81AB
S11351D08C819D81822793279F838E832C813D819F
S11351E08E819F81822793279D838C838A819B81D3
S11351F0FC01248135818C819D81A901481B590BB7
S1135200CA0101979D838C835CC08A819B81FC01C8
S1135210248135818C819D81A901481B590BCA01C8
S113522001979D838C838A819B81FC012681378130
S11352308E819F81A901481B590BCA0101979F8345
S11352408E838885998501972C813D81F901E81B1E
S1135250F90BCF019D838C8334C081E089832C8139
S11352603D818E819F81822793279D838C832E810C
S11352703F818C819D81822793279F838E832C81FC
S11352803D818E819F81822793279D838C838A8190
S11352909B81FC01268137818E819F81A901481B56
S11352A0590BCA0101979F838E838885998501973D
S11352B02E813F81F901E81BF90BCF019F838E8377
S11352C000008981882369F0EA85FB852885398572
S11352D04E815F816C817D818A819B818F01E5D1C3
S11352E00CC0EA85FB85288539854E815F816C81F8
S11352F07D818A819B818F010CD000002B960FB693
S1135300F894DEBF0FBECDBFDF91CF911F910F91F7
S113531008950F931F93CF93DF93CDB7DEB72D97E7
S11353200FB6F894DEBF0FBECDBF9D838C837F8301
S11353306E83598748873B872A871D870C87888512
S1135340998599230CF4D1C08C819D81FC0126811F
S1135350378188859985821793070CF0C6C08E81A2
S11353609F81992354F42A853B858E819F81820FE6
S1135370931F9B878A871F821E822E813F818A8585
S11353809B85280F391F8C819D81FC018481958127
S1135390821793076CF48C819D81FC0124813581F3
S11353A08E819F81A901481B590BCA019B878A875B
S11353B08A859B85181619060CF097C08C819D81EF
S11353C0FC01278D30A18885998599230CF40796D3
S11353D0959587959595879595958795BC018C812D
S11353E09D81FC0184819581689FA001699F500D76
S11353F0789F500D11248E819F81840F951F820FF9
S1135400931F9A838983888599859C012770332704
S113541081E090E002C0880F991F2A95E2F78B8300
S11354208C859D858130910531F081309105F8F0AE
S11354300297D9F15AC08A859B859C012150310974
S11354403B872A8721E0892B09F420E0222309F4F1
S113545047C089819A819C012F5F3F4F3A832983FA
S1135460FC0130812B81232BFC012083E4CF8B8131
S113547080958B838A859B859C01215031093B87CC
S11354802A8721E0892B09F420E0222359F189811C
S11354909A819C012F5F3F4F3A832983FC0130811D
S11354A02B812323FC012083E5CF8A859B859C01E6
S11354B0215031093B872A8721E0892B09F420E018
S11354C0222391F089819A819C012F5F3F4F3A8377
S11354D02983FC0130812B812327FC012083E5CF24
S11354E0000003C0000001C0000000002D960FB6AC
S11354F0F894DEBF0FBECDBFDF91CF911F910F9106
S113550008950F931F93CF93DF93CDB7DEB72B97F7
S11355100FB6F894DEBF0FBECDBF9B838A837D8315
S11355206C835F834E83398728871B870A87198298
S11355308A819B81FC018689882F90E082309105C5
S1135540D9F18330910509F45FC0019709F085C052
S113555081E089832C813D818E819F8182279327DD
S11355609D838C832E813F818C819D81822793270B
S11355709F838E832C813D818E819F8182279327F7
S11355809D838C838A819B81FC01248135818C815C
S11355909D81A901481B590BCA0101979D838C83E6
S11355A08885998501972C813D81F901E81BF90BC8
S11355B0CF019D838C8351C08A819B81FC0124810E
S11355C035818C819D81A901481B590BCA01019722
S11355D09D838C838A819B81FC01268137818E8106
S11355E09F81A901481B590BCA0101979F838E8390
S11355F08885998501972E813F81F901E81BF90B74
S1135600CF019F838E8329C081E089832C813D81D2
S11356108E819F81822793279D838C832E813F8156
S11356208C819D81822793279F838E832C813D814A
S11356308E819F81822793279D838C838A819B817E
S1135640FC01268137818E819F81A901481B590B5A
S1135650CA0101979F838E8300008981882369F0A2
S1135660EA85FB85288539854E815F816C817D8142
S11356708A819B818F014DDE0CC0EA85FB852885DC
S113568039854E815F816C817D818A819B818F0107
S11356900CD000002B960FB6F894DEBF0FBECDBF22
S11356A0DF91CF911F910F9108950F931F93CF9383
S11356B0DF93CDB7DEB768970FB6F894DEBF0FBEA1
S11356C0CDBF988B8F877A8B698B5C8B4B8B3E8B92
S11356D02D8B188F0F8B89899A8999230CF462C1B9
S11356E08F859889FC012481358189899A8982175B
S11356F093070CF057C18B899C89992354F42D8905
S11357003E898B899C89820F931F9E8B8D8B1C8A6B
S11357101B8A2B893C898D899E89280F391F8F8587
S11357209889FC0186819781821793076CF48F8591
S11357309889FC01268137818B899C89A901481BA2
S1135740590BCA019E8B8D8B8D899E89181619065B
S11357500CF028C18B898E838D8989838F859889E4
S1135760FC01878D90A12E81269526952695622F82
S113577070E02F853889F90124813581629FA00169
S1135780639F500D729F500D112429893A89240F6B
S1135790351F820F931F9B838A838E8187708C832E
S11357A08C81882309F468C098E08C81F92FF81B58
S11357B08F2F8C838C81882F90E08E5B944F9887F9
S11357C08F838F819885FC018491898789858D8356
S11357D099818C81981798F48C81282F30E08981E5
S11357E0882F90E0281B390B8FEF90E002C095952D
S11357F087952A95E2F7982F8D8189238D838F8948
S1135800988D8130910531F08130910578F00297BF
S1135810D9F026C08A819B81FC0190818D81292F3A
S1135820282B8A819B81FC0120831AC08A819B8159
S1135830FC018081982F8D8180958923282F8A816E
S11358409B81FC0120830CC08A819B81FC01908197
S11358508D81292F28278A819B81FC0120830000C8
S11358608F859889FC01848195819C018A819B8123
S1135870820F931F9B838A8399818C81981708F4E4
S113588091C099818C81F92FF81B8F2F898389818D
S1135890883008F441C08F89988D0297E9F48A8191
S11358A09B81FC018081282F20958A819B81FC01AA
S11358B020838F859889FC01848195819C018A814C
S11358C09B81820F931F9B838A838981885089835C
S11358D08981883008F1E3CF8F89988D892B11F065
S11358E08FEF01C080E08A878A819B812A85FC0131
S11358F020838F859889FC01848195819C018A810C
S11359009B81820F931F9B838A838981885089831B
S11359108981883008F0E8CF8981882309F442C05E
S1135920898187708C838C81882F90E0865B944F6B
S11359309C878B878B859C85FC0184918D878D85C5
S11359408E878F89988D8130910531F08130910552
S113595078F00297D9F026C08A819B81FC0190815E
S11359608E85292F282B8A819B81FC0120831AC0D4
S11359708A819B81FC018081982F8E858095892363
S1135980282F8A819B81FC0120830CC08A819B8102
S1135990FC0190818E85292F28278A819B81FC0117
S11359A020830000000068960FB6F894DEBF0FBE97
S11359B0CDBFDF91CF911F910F910895CF93DF93C6
S11359C0CDB7DEB72C970FB6F894DEBF0FBECDBFB0
S11359D09C878B878B859C85FC01858D968D892B77
S11359E091F08B859C85FC0185A996A9A7A9B0ADEA
S11359F02B853C85F901258D368DAC01BD01C9018E
S1135A000E94015523C08B859C85FC01838D948D58
S1135A10892B39F08B859C85FC0186AD97AD0E945E
S1135A2053128B859C85FC0187A590A92B853C8509
S1135A30F90127A530A9F9012081422F2B853C8546
S1135A40F90124A920952423FC01208325E08B85DA
S1135A509C85422F62E57BE00E94DD218B859C853D
S1135A60FC01848195812FEF280F8B859C85622F03
S1135A700E94FA208B859C85FC01248135818B85CD
S1135A809C85FC0186819781079699230CF40796DF
S1135A90959587959595879595958795AC01249FC0
S1135AA0C001259F900D349F900D11249A83898302
S1135AB08B859C85FC01878D90A19C838B838B8532
S1135AC09C85FC01858D968D892B09F48FC08B856F
S1135AD09C85FC0181A1282F880F330B8B859C8525
S1135AE0FC01858D968DB9010E94EE558B859C85B0
S1135AF0FC01858D968DFC0180819181FC012081C2
S1135B0031818B859C85FC01858D968D60E4F9013E
S1135B10199581E090E09E838D8389819A819C010F
S1135B20215031093A83298321E0892B09F420E0AB
S1135B30222309F453C08D819E81809768F18B855F
S1135B409C85FC01858D968D0E9429568B859C85AC
S1135B50FC0181A1282F880F330B8B859C85FC01C8
S1135B60858D968DB9010E94EE558B859C85FC012F
S1135B70858D968DFC0180819181FC01208131818C
S1135B808B859C85FC01858D968D60E4F9011995C2
S1135B9081E090E09E838D838B859C85FC01858DBF
S1135BA0968DFC0180819181FC01208131818B8162
S1135BB09C81AC014F5F5F4F5C834B83FC01408150
S1135BC08B859C85FC01858D968D642FF901199533
S1135BD08D819E8101969E838D839FCF8B859C852D
S1135BE0FC01858D968D0E9429569CC08B859C85D1
S1135BF0FC0185A596A52B853C85F90125A536A52F
S1135C00F90140812B853C85F90123A9242BFC0152
S1135C10208389819A819C01215031093A83298307
S1135C2021E0892B09F420E0222309F47BC08B8135
S1135C309C819C012F5F3F4F3C832B83FC0120817F
S1135C408B859C8598878F8329878F819885FC0114
S1135C50838D948D892B21F089850E94AD1FD9CF26
S1135C6080E88A878A858823A1F299858A85892391
S1135C708823A1F08F819885FC0181A592A52F81AD
S1135C803885F90121A532A5F90140812F81388594
S1135C90F90121A9242BFC01208315C08F8198854B
S1135CA0FC0181A592A52F813885F90121A532A592
S1135CB0F9012081422F2F813885F90121A92095EE
S1135CC02423FC0120838F819885FC0183A594A55E
S1135CD02F813885F90123A534A5F90140812F814D
