:1000000020C600004FC600004DC600004BC60000D1
:1000100049C6000047C6000045C6000043C60000B0
:1000200041C600003FC600003DC600003BC60000C0
:1000300039C6000037C6000035C6000033C60000D0
:1000400031C600000C94761F2DC600002BC60000A0
:100050000C945C2027C6000025C600000C943727AE
:1000600021C600000C94F8250C942E261BC6000017
:1000700019C6000017C6000015C6000013C6000010
:100080000C94A21F0FC600000DC600000C94872020
:1000900009C6000007C6000005C600000C945D22DA
:1000A00001C60000FFC500000C94CE1FFBC5000078
:1000B000F9C50000F7C50000F5C500000C94FA1F53
:1000C000F1C50000EFC50000EDC50000EBC5000064
:1000D000E9C50000E7C50000E5C50000E3C5000074
:1000E000E1C5000072287528642868286E28AC28AD
:1000F00079287D28832887288B2891289528992876
:10010000AC289F28A328A7285353443133303620E6
:10011000616C6C6F636174696F6E206661696C6598
:100120006400413A2048756D696469747900433A06
:100130002054656D7072657475726500423A204492
:1001400061746500413A2054696D65004D656E75B6
:100150000000000000003E5B4F5B3E3E6B4F6B3E7D
:100160001C3E7C3E1C183C7E3C181C577D571C1CBA
:100170005E7F5E1C00183C1800FFE7C3E7FF001815
:10018000241800FFE7DBE7FF30483A060E262979FE
:100190002926407F050507407F05253F5A3CE73C5F
:1001A0005A7F3E1C1C08081C1C3E7F14227F221410
:1001B0005F5F005F5F06097F017F006689956A6067
:1001C0006060606094A2FFA29408047E040810207E
:1001D0007E201008082A1C08081C2A08081E101077
:1001E00010100C1E0C1E0C30383E3830060E3E0E21
:1001F00006000000000000005F000000070007008C
:10020000147F147F14242A7F2A1223130864623671
:10021000495620500008070300001C2241000041FD
:10022000221C002A1C7F1C2A08083E080800807037
:10023000300008080808080000606000201008046A
:10024000023E5149453E00427F40007249494946BD
:100250002141494D331814127F1027454545393C3B
:100260004A49493141211109073649494936464928
:1002700049291E000014000000403400000008144A
:1002800022411414141414004122140802015909C3
:10029000063E415D594E7C1211127C7F4949493618
:1002A0003E414141227F4141413E7F494949417F91
:1002B000090909013E414151737F0808087F004147
:1002C0007F41002040413F017F081422417F404090
:1002D00040407F021C027F7F0408107F3E41414165
:1002E0003E7F090909063E4151215E7F09192946D1
:1002F000264949493203017F01033F4040403F1FE7
:100300002040201F3F4038403F631408146303041B
:100310007804036159494D43007F4141410204087B
:100320001020004141417F0402010204404040404E
:1003300040000307080020545478407F2844443884
:100340003844444428384444287F385454541800CE
:10035000087E090218A4A49C787F0804047800444D
:100360007D40002040403D007F1028440000417F38
:1003700040007C047804787C0804047838444444C1
:1003800038FC1824241818242418FC7C08040408B9
:10039000485454542404043F44243C4040207C1CD2
:1003A0002040201C3C4030403C44281028444C90C5
:1003B00090907C4464544C4400083641000000771F
:1003C0000000004136080002010204023C262326F8
:1003D0003C1EA1A161123A4040207A38545455592C
:1003E0002155557941225454784221555478402062
:1003F000545579400C1E527212395555555939547D
:1004000054545939555454580000457C4100024514
:100410007D420001457C407D1211127DF028252887
:10042000F07C545545002054547C547C0A097F4983
:1004300032494949323A4444443A324A4848303AC7
:100440004141217A3A42402078009DA0A07D3D4262
:1004500042423D3D4040403D3C24FF2424487E49EB
:1004600043662B2FFC2F2BFF0929F620C0887E091D
:100470000320545479410000447D413048484A32B9
:10048000384040227A007A0A0A727D0D19317D26A1
:1004900029292F28262929292630484D4020380887
:1004A00008080808080808382F10C8ACBA2F102808
:1004B00034FA00007B000008142A142222142A14A3
:1004C000085500550055AA55AA55AAFF55FF55FFD6
:1004D000000000FF00101010FF00141414FF0010A3
:1004E00010FF00FF1010F010F0141414FC0014148E
:1004F000F700FF0000FF00FF1414F404FC141417AD
:10050000101F10101F101F1414141F00101010F0D3
:10051000000000001F101010101F10101010F0101D
:10052000000000FF101010101010101010FF10002D
:100530000000FF140000FF00FF00001F1017000064
:10054000FC04F414141710171414F404F40000FF3E
:1005500000F714141414141414F700F714141417D7
:100560001410101F101F141414F4141010F010F0B5
:1005700000001F101F0000001F14000000FC1400EA
:1005800000F010F01010FF10FF141414FF141010DE
:10059000101F00000000F010FFFFFFFFFFF0F0F061
:1005A000F0F0FFFFFF0000000000FFFF0F0F0F0F34
:1005B0000F3844443844FC4A4A4A347E0202060654
:1005C000027E027E0263554941633844443C044044
:1005D0007E201E2006027E020299A5E7A5991C2A0C
:1005E000492A1C4C7201724C304A4D4D30304878CB
:1005F0004830BC625A463D3E494949007E010101EE
:100600007E2A2A2A2A2A44445F444440514A4440CC
:1006100040444A51400000FF0103E080FF00000811
:10062000086B6B083612362436060F090F060000D9
:1006300018180000001010003040FF0101001F01D9
:10064000011E00191D1712003C3C3C3C000000003C
:10065000002200FF2100000103070F1F3F7F0080E1
:10066000C0E0F0F8FCFEDB40A4A62EAF2000A1C83D
:10067000D300408DAED580A80000600000000000CF
:10068000000000000000000000E00000000000008A
:100690000000000000000001E00000000000000079
:1006A00000000000000001F0000000000000000059
:1006B000000000000003F000000000000000000047
:1006C0000000000007F00000000000000000000033
:1006D00000000007F800000000000000000000001B
:1006E00000000FF800000003C0007E000001E000E1
:1006F0007F0FF800000003C000FE000001E000FFD3
:10070000EFF800000003C000FE000001E000FFFF62
:10071000F800000003C000F00000000F007FFE7F23
:10072000C0000003C000F00000000F003FFE7FF893
:100730003FF1FBCFFCFEF3BC3DEFE01FFE7FFF7FF0
:10074000FBFFDFFEFEFFBC3DEFE01FC6FFFF7FFBB0
:10075000FFDFFEFEFFBC3DEFE00FE3C7FE787BC38B
:10076000DE1EF0FFBC3DEF0007FF87FC787BC3DE99
:100770001EF0F83C3DEF0001FFFFF0007BC3C01E00
:10078000F0F03C3DEF0001F37FE03FFBC3CFFEF014
:10079000F03C3DEF0003E33F807FFBC3DFFEF0F062
:1007A0003C3DEF0007E73C00787BC3DE1EF0F03CE9
:1007B0003DEF0007FFBE00787BC3DE1EF0F03C3D3E
:1007C000EF0007FFFE00787BC3DE1EF0F03C3DEF3C
:1007D000000FFFFE007FFBFFDFFEF0F03FFDEFE0CC
:1007E0000FFFFF007FFBFFDFFEF0F03FFDEFE00FAC
:1007F000F9FF003E79F9CF9EF0F01F3DE7E01FF1D1
:10080000FF0000000000000000000000001F80FF4B
:10081000007FFFFFFFFFFFFFFFFFFFE01C007F00E7
:100820007FFFFFFFFEB46D888D18E000001F007F82
:10083000FFFFFFFE95AD7DB577E000000F007FFF65
:10084000FFFFFEA5AD9D8D19E0000006007FFFFFB4
:10085000FFFEB5ADEDB57EE00000000000018000B8
:100860000000000000000000038000000000000005
:1008700000000007C000000000000000000007C0EA
:100880000000000000000000000FC0000000000099
:10089000000000001FE00000000000000000001F3A
:1008A000E00000000000000000003FE00000000049
:1008B00000000000003FF000000000000000000009
:1008C0007FF0000000000000001FF87FF000000033
:1008D000000000003FFE7FF0000000000000003F2D
:1008E000FF7FF0000000000000001FFFFBE00000A1
:1008F00000000000000FFFF9FFC000000000000032
:100900000FFFF9FFF800000000000007FFF1FFFFF4
:1009100000000000000003FC73FFFF8000000000E7
:100920000001FE3FFFFF80000000000000FF1E0FDF
:10093000FF000000000000007FFE1FFC0000000020
:100940000000003FFFFFF8000000000000000FDF84
:10095000FFE0000000000000001F19FFC0000000C1
:10096000000000003F3CFF00000000000000007E8F
:100970007CF800000000000000007FFE7C0000000A
:100980000000000000FFFFFC00000000000000006D
:10099000FFFFFE0000000000000000FFFFFE00005F
:1009A000000000000001FFEFFE000000000000005A
:1009B00001FFCFFE0000000000000003FF07FE0063
:1009C00000000000000003FC07FE00000000000023
:1009D0000003F003FE00000000000000018000FEA4
:1009E000000000000000000000007E000000000089
:1009F00000000000003E00000000000000000000B9
:100A00000C000000000000078000FC000003C00094
:100A10000000078001FC000003C000000007800107
:100A2000FC000003C0000000078001E00000001E81
:100A3000000000078001E00000001E007FE3F79F38
:100A4000F9FDE7787BDFC0FFF7FFBFFDFDFF787B97
:100A5000DFC0FFF7FFBFFDFDFF787BDFC0F0F7874A
:100A6000BC3DE1FF787BDE00F0F787BC3DE1F0782C
:100A70007BDE0000F787803DE1E0787BDE007FF7DA
:100A8000879FFDE1E0787BDE00FFF787BFFDE1E0B7
:100A9000787BDE00F0F787BC3DE1E0787BDE00F09C
:100AA000F787BC3DE1E0787BDE00F0F787BC3DE1F5
:100AB000E0787BDE00FFF7FFBFFDE1E07FFBDFC0FA
:100AC000FFF7FFBFFDE1E07FFBDFC07CF3F39F3D5D
:100AD000E1E03E7BCFC0000000000000000000000D
:100AE00000FFFFFFFFFFFFFFFFFFFFC0FFFFFFFF54
:100AF000FD68DB111A31C0FFFFFFFFFD2B5AFB6AB7
:100B0000EFC0FFFFFFFFFD4B5B3B1A33C0FFFFFF52
:100B1000FFFD6B5BDB6AFDC000000A0B02090C0DD8
:100B20000E080703040100000000000000000000A0
:100B300000000000000000000000000000000000B5
:100B40000000000012111000000000000000000072
:100B50000000000000000000000000000000010292
:100B600010202008081020401020408002010201BF
:100B70000804020101020408102040808040201077
:100B800008040201800402018040201008040201D0
:100B90000804020101020408102040800102040838
:100BA0001020408005050505070508080808020211
:100BB00002020A0A080804040404010101010101F7
:100BC00001010303030303030303040707070C0CDA
:100BD0000C0C0C0C0C0C02020202060606060606A1
:100BE00006060B0B0B0B0B0B0B0B0000200023005E
:100BF000260029002C002F00320000010000030114
:100C00000601090100002200250028002B002E000B
:100C10003100340002010000050108010B01000051
:100C20002100240027002A002D003000330001019C
:100C30000000040107010A012D070408882460262A
:100C4000730711241FBECFEFD1E2DEBFCDBF00E09E
:100C50000CBF13E0A0E0B2E0ECE8FAE500E00BBF67
:100C600002C007900D92A633B107D9F726E0A6E39C
:100C7000B3E001C01D92A431B207E1F716E0C0E273
:100C8000D6E000E006C021970109802FFE010E94F6
:100C9000CD2ACC31D10780E00807A9F70E948E2623
:100CA0000C94352DADC90F9326E040E855E260E085
:100CB00070E08AE695E00E9495250E94262083EF49
:100CC00093E00E94711B01E021E04CE362E083EBC2
:100CD00093E00E942D11811107C068E071E08AE65F
:100CE00095E00E940727FFCF0F9108951F93CF93A0
:100CF000DF93CDB7DEB72C970FB6F894DEBF0FBEEB
:100D0000CDBF80913603882399F043D08FE493E0E0
:100D10000E947318182F882339F0682F8AE695E00F
:100D20000E942727812F81D080913603811127C00F
:100D300083EF93E00E94811E882309F183EF93E003
:100D40000E94FA198823D9F0CE010796D0D0BE01AF
:100D5000695F7F4FCE0101960E94D22966E373E05E
:100D6000CE01019610D1CE0101960E943F2983EB5E
:100D700093E00E940F11CE0107960E943F292C9606
:100D80000FB6F894DEBF0FBECDBFDF91CF911F919C
:100D90000895CF93DF9383EB93E00E940F1161E0FE
:100DA00083EB93E0D3D7C3EBD3E081E090E09B8B60
:100DB0008A8B998B888B1D861C861F861E866CE409
:100DC00071E0CE010E9407271D861C868AE090E014
:100DD0009F878E8764E471E0CE010E9407271D86FD
:100DE0001C8684E190E09F878E876CE371E0CE01E2
:100DF0000E9407271D861C868EE190E09F878E87C4
:100E00006EE271E0CE010E9407271D861C8688E2F3
:100E100090E09F878E8762E271E0CE010E940727F3
:100E2000CE01DF91CF910C949414813419F46AE2CD
:100E300072E00EC0823419F467E372E009C08334B3
:100E400019F464E472E004C0843431F461E572E0C2
:100E50008AE695E00C94172708958F929F92AF929F
:100E6000BF92CF92DF92EF92FF920F9380EA882E8B
:100E700086E8982EAA24A394B12C90E8C92E9AE172
:100E8000D92E96E0E92EF12C04E024E135E040E48F
:100E900060E883EB93E00E946C0F24E0E22E22E1F5
:100EA00032E046E152E06AE172E08FE493E00E94B2
:100EB0009315C0900602E090080200910A0220916A
:100EC0000C0240910E026091100287E393E00E94B1
:100ED000D6190F91FF90EF90DF90CF90BF90AF9019
:100EE0009F908F90089583EB93E00C94B60FCF9270
:100EF000DF92FF920F931F93CF93DF9300D000D028
:100F0000CDB7DEB78C0169E273E00E94A929F12C0C
:100F10008091F503F81628F58F2D90E09C012D5057
:100F20003C4F6901F9018381803118F061E672E07C
:100F300002C06EE572E0C8010E944C2A40E1F60151
:100F40006381CE0101960E94EF29BE016F5F7F4F42
:100F5000C8010E94462ACE0101960E943F29F394BF
:100F6000D7CFC8010E94992AC80126960FB6F894D7
:100F7000DEBF0FBECDBFDF91CF911F910F91FF90CC
:100F8000DF90CF900895EF92FF920F931F93CF932E
:100F9000DF9300D000D0CDB7DEB77C018B0163E6D4
:100FA00072E0CE0101960E94A929BE016F5F7F4FBA
:100FB000C7010E94892A882331F081E0F8018083EB
:100FC00060E772E00CC0BE016F5F7F4FC7010E94F7
:100FD000892A811108C0F80110826DE772E08AE663
:100FE00095E00E941727CE0101960E943F29269680
:100FF0000FB6F894DEBF0FBECDBFDF91CF911F912A
:101000000F91FF90EF90089545E065E383EF93E043
:101010000C945F1A20919A04222399F04FB7F89408
:1010200020919A04213059F42DB3209398043DB3B4
:1010300020919904209523232DBB4FBF02C04093DC
:1010400098048CBD9DBD089580919A04882361F019
:101050009FB7F89420919A0480919804213019F454
:101060008DBB9FBF08958FBF089580E090E00895E5
:1010700008952F923F924F925F926F927F928F923C
:101080009F92AF92BF92CF92DF92EF92FF920F9317
:101090001F93CF93DF9300D000D0CDB7DEB72C01E4
:1010A0007E836D836A015901C801FC82EB8248018D
:1010B000841A950A97FE03C0919481949108350192
:1010C0002D813E81621A730A77FE03C07194619488
:1010D0007108681479045CF43A2D2B2D5C01832F80
:1010E000922F3D812E81DE82CD82C32ED22EAD8104
:1010F000BE81AA16BB065CF43C2D2D2D6C01832FFE
:10110000922F3D812E81BE82AD82A32EB22E85010B
:101110002D813E81021B130B1C012C183D0837FE4C
:1011200003C0319421943108780117FF03C03FEFC9
:10113000E31AF30AF594E794C816D9062CF08FEF5A
:101140009FEF9A83898304C0A1E0B0E0BA83A983AA
:101150002D813E81A216B30624F1D201ED91FC91BE
:101160000484F585E02D2B813C816814790424F4F6
:101170004D815E81B60103C0A6016D817E81C201F1
:101180001995E218F308F7FE06C029813A81C20ECC
:10119000D31EE00EF11E8D819E8101969E838D836C
:1011A000D7CF26960FB6F894DEBF0FBECDBFDF9126
:1011B000CF911F910F91FF90EF90DF90CF90BF9054
:1011C000AF909F908F907F906F905F904F903F90E7
:1011D0002F900895DC01ED91FC910084F185E02DC4
:1011E00019940F931F93DC01ED91FC91048CF58D04
:1011F000E02D19951F910F9108950F931F93DC0116
:10120000ED91FC91068CF78DE02D19951F910F91B2
:101210000895EF92FF920F931F93DC01ED91FC91E3
:1012200000A0F1A1E02D19951F910F91FF90EF9073
:10123000089508958F929F92AF92BF92CF92DF92BE
:10124000EF92FF920F931F93CF93DF93EC015B011B
:101250004A0169017801E881F9810284F385E02D72
:101260001995C80CD91C860101501109E881F98132
:101270000488F589E02D9501A401B501CE011995E9
:10128000E881F9810688F789E02DCE01DF91CF91C1
:101290001F910F91FF90EF90DF90CF90BF90AF9094
:1012A0009F908F9019948F929F92AF92BF92CF92FE
:1012B000DF92EF92FF920F931F93CF93DF93EC0196
:1012C0005B014A016901E881F9810284F385E02D1F
:1012D000199595012C0D3D1D21503109E881F981A9
:1012E0000488F589E02D78018401A401B501CE01BF
:1012F0001995E881F9810688F789E02DCE01DF9103
:10130000CF911F910F91FF90EF90DF90CF90BF9002
:10131000AF909F908F9019944F925F926F927F92AF
:101320008F929F92AF92BF92CF92DF92EF92FF92F5
:101330000F931F93CF93DF936C012B015A01390157
:101340004801DC01ED91FC910284F385E02D1995B3
:10135000E201640C751CD601ED91FC91C615D70510
:101360005CF40088F189E02D87019401A501BE019C
:10137000C60119952196EFCF0688F789E02DC601A1
:10138000DF91CF911F910F91FF90EF90DF90CF9061
:10139000BF90AF909F908F907F906F905F904F9095
:1013A0001994EF92FF920F931F93DC011A960D91FF
:1013B0001C911B9718962D913C911997ED91FC91DA
:1013C00000A0F1A1E02D7B0140E050E060E070E082
:1013D00019951F910F91FF90EF9008958F929F9212
:1013E000AF92BF92CF92DF92EF92FF920F931F9333
:1013F000CF93DF934C016B015A01E901DC01ED91C0
:10140000FC916217730781F40417150724F48B2DE0
:101410005801042F182F0A191B0998012F5F3F4FFD
:10142000048CF58DE02D12C04017510709F52617E1
:10143000370724F48D2D6901C62FD82F9E012C1952
:101440003D092F5F3F4F068CF78DE02D8701A501E9
:10145000B601C4011995DF91CF911F910F91FF90B3
:10146000EF90DF90CF90BF90AF909F908F900895B6
:101470000284F385E02D1995D401ED91FC91048847
:10148000F589E02D9E01A501B601C4011995D4018D
:10149000ED91FC910688F789E02DC401DF91CF9191
:1014A0001F910F91FF90EF90DF90CF90BF90AF9082
:1014B0009F908F9019946F927F928F929F92AF928C
:1014C000BF92CF92DF92EF92FF920F931F93CF9331
:1014D000DF93EC014B015A0169013801E881F98180
:1014E0000284F385E02D1995E881F9810288F3895A
:1014F000E02D87019601A501B401CE011995A50142
:10150000460D571D41505109E881F9810288F38940
:10151000E02D9601B401CE011995E881F98100888A
:10152000F189E02D9301A501B401CE011995C80CF4
:10153000D91CB60161507109E881F9810088F189EF
:10154000E02D9301A501CE011995E881F981068866
:10155000F789E02DCE01DF91CF911F910F91FF9080
:10156000EF90DF90CF90BF90AF909F908F907F9043
:101570006F9019940895FC016370668B8481958146
:1015800026813781613039F0633029F09187808777
:10159000338722870895318720879387828708952C
:1015A000FC01138212828FE892E09183808375831D
:1015B0006483578346837187608753874287168A7F
:1015C000158614861786168681E0858B848B2FEF0F
:1015D0003FEF338B228B318B208B878B108E128EBB
:1015E000118E08953F924F925F926F927F928F92E9
:1015F0009F92AF92BF92CF92DF92EF92FF920F93A2
:101600001F93CF93DF93CDB7DEB72A970FB6F89429
:10161000DEBF0FBECDBF5C017E836D8358874F83D5
:1016200029013701DC01ED91FC910284F385E02D65
:101630001995C801079697FD07969C0193E035958B
:1016400027959A95E1F73A832983812C912CE12CF7
:10165000F12C312C8F8198858E0D9F1D9C838B835F
:10166000E614F7040CF03DC01A861986A985BA85E0
:10167000A017B10774F5CD0187709927892B11F058
:10168000330C0EC0E985FA85F7FD379683E0F595B2
:10169000E7958A95E1F7E80DF91DE40DF51D349005
:1016A00037FE11C0D501ED91FC910484F585E02D44
:1016B00096014B815C816D817E8189859A85680F59
:1016C000791FC5011995A985BA851196BA87A98789
:1016D000CDCFBFEFEB1AFB0A29813A81820E931E10
:1016E000B9CFD501ED91FC910688F789E02DC501B0
:1016F0002A960FB6F894DEBF0FBECDBFDF91CF9113
:101700001F910F91FF90EF90DF90CF90BF90AF901F
:101710009F908F907F906F905F904F903F90199423
:101720002F923F924F925F926F927F928F929F92F1
:10173000AF92BF92CF92DF92EF92FF920F931F93DF
:10174000CF93DF93CDB7DEB76B970FB6F894DEBFBC
:101750000FBECDBF9B8F8A8F2B015A834983D22E18
:10176000198708874701AB82DC0159962D913C917E
:101770005A972115310509F000C118968D919C9159
:101780001997681779070CF0E7C11A968D919C910B
:101790001B97481759070CF0DFC12C2C312CFB018B
:1017A00026E0C29EE00DF11D1124FD87EC871E1678
:1017B0001F060CF0D1C14A2D50E05B874A8783E0B9
:1017C000440F551F8A95E1F75F874E8789819A817B
:1017D000840F951F181619060CF0BEC158968C91EF
:1017E000811104C06FEA6D1508F4D394AA8DBB8DE6
:1017F000ED91FC9111970284F385E02DCD011995AF
:10180000B5E0DB9EC0011124EC2DF0E0F98BE88BF4
:1018100092012B5F3F4F3B8B2A8B32015D824C82C2
:10182000AC01441955095D8B4C8B7B81672F70E0AF
:101830007F8B6E8B89819A810896998F888FEC892E
:10184000FD89E60DF71DEF5AFE4FD490A981BA81AC
:10185000BF83AE835D01D0FE16C0AA8DBB8DED9116
:10186000FC91B1E0CB1209C02B81213031F404840A
:10187000F585E02D2885398519C00684F785E02D8A
:10188000E884F9841DC0488559854815590511F12A
:10189000AA8DBB8DED91FC91B1E0CB120DC02B81D7
:1018A000213051F40484F585E02D9401A501B301A4
:1018B0008A8D9B8D19950EC00684F785E02D7401E5
:1018C0000A851B8591014E815F816C817D818A8DA6
:1018D0009B8D1995D6944E815F816E897F89460FC5
:1018E000571F5F834E837FEFA71AB70A888D998DA4
:1018F000A816B90609F0AFCFAC81BD81E889F98996
:10190000AE0FBF1FBD83AC83FFEF6F1A7F0A2A891A
:101910003B896216730609F092CF488559854815B0
:10192000590509F4F7C0AA8DBB8DED91FC91B1E08A
:10193000CB1212C02B81213079F4B2016B5F7F4F43
:101940000088F189E02D840128E030E049815A8146
:101950008A8D9B8D1995DEC06C857D856219730912
:101960000684F785E02D74010E851F85910149815C
:101970005A818A8D9B8D1995CDC0F9013496E491D9
:10198000DE1AF901329685919491B7E0DB9E800DC5
:10199000911D1124F90125913491398B288BFC017B
:1019A00025903490FC01329674903196A490329632
:1019B00094903196B49031E03C1518F04B81423050
:1019C00068F0692D092C000C770B7D836C838B2DBF
:1019D0000B2C000C990B9F838E8304C01F821E82E8
:1019E0001D821C82AA8DBB8DED91FC911197028402
:1019F000F385E02DCD011995612CD12C812CFB8133
:101A0000EF2FF0E0FB87EA872C2D30E03D872C8715
:101A100049815A814B0D511DB7FC5A955D8B4C8BFA
:101A2000B201690D711D97FC7A957F8B6E8B8A14BC
:101A300008F070C0282D30E04E815F81420F531FA7
:101A4000AA85BB85A49FC001A59F900DB49F900D52
:101A50001124E981FA81E80FF91FFF87EE87862DAF
:101A6000912C4C895D89420F531F5B8B4A8B9714D5
:101A700008F04DC0BB24B394B80E877041F4C10187
:101A80000196E889F989E20DF31DD4901C01D7FE77
:101A90003AC051E0C51216C06B81613099F4AA8D2D
:101AA000BB8DED91FC9111970484F585E02D28857F
:101AB00039854A895B896E897F89690D711DCD01E0
:101AC000199521C08C819D81890D911DEC85FD8525
:101AD0008E9FB0018F9F700D9E9F700D1124640D1D
:101AE000751DAA8DBB8DED91FC9111970684F7852C
:101AF000E02DE884F9840A851B852C853D854E857B
:101B00005F85CD011995DD0C93948B2DB0CF670CBB
:101B100083948DCFAA8DBB8DED91FC911197068892
:101B2000F789E02DCD016B960FB6F894DEBF0FBE9E
:101B3000CDBFDF91CF911F910F91FF90EF90DF907C
:101B4000CF90BF90AF909F908F907F906F905F905D
:101B50004F903F902F9019946B960FB6F894DEBF7C
:101B60000FBECDBFDF91CF911F910F91FF90EF90EE
:101B7000DF90CF90BF90AF909F908F907F906F90AD
:101B80005F904F903F902F9008958F929F92AF92C9
:101B9000CF92EF92FF920F931F93CF93DF93EC01BD
:101BA000262F898D9A8D009709F041C06A3059F42B
:101BB0001D861C862D898E859F8538E0239F800D8C
:101BC000911D112442C06D3009F4A8C08F8988236B
:101BD000C9F03C898C859D8546E0349F800D911D20
:101BE0001124488559854817590764F41D861C86B9
:101BF0003D898E859F8548E0349F800D911D11247D
:101C00009F878E87EA88FB88088919894E855F85BA
:101C10006C857D85AD88CC88CE0182DD2C898C8554
:101C20009D8536E0239F800D911D11243EC06A30B2
:101C300079F41D861C862D89FC013896E4918E85E9
:101C40009F852E9F800D911D11249F878E8766C0D2
:101C50006D3009F463C0FC0134963491631708F4C5
:101C60005DC03296E491E61708F458C0462F431B36
:101C7000342FFC0132968590949047E0349F800C7D
:101C8000911C1124F401329634913196E49133235E
:101C900011F0E1110DC0F4013496E4912C898C858A
:101CA0009D85E29F800D911D11249D878C8736C0F4
:101CB000F401359644915F89552319F15C89E32F2E
:101CC000F0E0E40FF11D47FDFA955E9FB0015F9FC4
:101CD000700D11244C855D85460F571F68857985E9
:101CE0006417750774F41D861C863D89FC013896BF
:101CF000E4918E859F853E9F800D911D11249F87C5
:101D00008E87EA88FB88088919894E855F856C85EE
:101D10007D85AD88CC88CE0103DDBDCF81E090E02C
:101D2000DF91CF911F910F91FF90EF90CF90AF90E7
:101D30009F908F900895611101C061E0FC01648B58
:101D4000411101C041E0FC01458B0895462FF3CFBE
:101D5000FC0177FDB9C080859185681779070CF083
:101D6000B3C057FDB1C082859385481759070CF061
:101D700008958689823079F484819581DC01A61BDF
:101D8000B70BBD016150710986819781DC01A41BED
:101D9000B50BAD010EC0833009F084C064277527F0
:101DA000CA01862797276827792746815781481BCC
:101DB000590B415051092130310531F048F12230A1
:101DC000310509F44AC00895CA0157FD07969C01E0
:101DD000A3E035952795AA95E1F7A481B5812A9FBF
:101DE000C0012B9F900D3A9F900D1124680F791F11
:101DF000078CF0A1E02DE60FF71F4770552781E013
:101E000090E001C0880F4A95EAF79081892B48C07D
:101E1000CA0157FD07969C0193E0359527959A9541
:101E2000E1F7A481B5812A9FC0012B9F900D3A9FB5
:101E3000900D1124680F791F078CF0A1E02DE60F9B
:101E4000F71F4770552781E090E001C0880F4A9541
:101E5000EAF780959081892323C0CA0157FD079630
:101E60009C0183E0359527958A95E1F7A481B5819A
:101E70002A9FC0012B9F900D3A9F900D1124680F4F
:101E8000791F078CF0A1E02DE60FF71F477055274B
:101E900081E090E001C0880F4A95EAF79081892798
:101EA00080830895813009F086CF642775274627FF
:101EB00057276427752784819581DC01A61BB70B02
:101EC000BD016150710977CF08958EBD00000DB43A
:101ED00007FEFDCF8EB508954F925F926F927F926D
:101EE0008F929F92AF92BF92CF92DF92EF92FF922A
:101EF0000F93CF93DF93CDB7DEB73C01290150E0BC
:101F000070E04EDB8BEB92E0F30191838083148EC3
:101F1000138E4114510411F0C20102C084E195E016
:101F2000F301968F858F10A2178E8FEF84A385A360
:101F300086A387A300A7C5AAD6AAE7AAF0AE81AE5A
:101F400092AEA3AEB4AE80E586AF17AEDF91CF916F
:101F50000F91FF90EF90DF90CF90BF90AF909F9048
:101F60008F907F906F905F904F9008952BEB32E0B1
:101F7000FC0131832083878D90A1009711F00C9490
:101F80006D2B08951F93CF93DF93FC01858D968D64
:101F9000009719F1162FEF0161A1062E000C770BA7
:101FA0000E9473248D8D9E8DDC01ED91FC9101903A
:101FB000F081E02D60E019958D8D9E8DDC01ED9115
:101FC000FC910190F081E02D612F19958D8D9E8DF2
:101FD000DF91CF911F910C948624A5A5B6A59C9165
:101FE00083A9809589238C93838D948D892B29F0E7
:101FF000862FDF91CF911F9168CF28E030E080E8F5
:10200000A1A5B2A591A9462F482319F04C91942B74
:1020100003C04C91909594239C93A3A5B4A54C9197
:1020200092A9942B9C93A3A5B4A54C9192A99095A9
:1020300094239C9386952150310911F7DF91CF911C
:102040001F9108951F93CF93DF93EC01162F8D8D71
:102050009E8D009739F04DA95EA96FA978AD0E94B9
:1020600066240FC08B8D9C8D892B21F08EAD9FAD8A
:102070000E940A08EFA5F8A990818CA98095892370
:102080008083111102C066EA01C067EACE017ADFDF
:102090008D8D9E8D009749F049AD5AAD6BAD7CADED
:1020A000DF91CF911F910C946624EFA5F8A9908140
:1020B0008CA9892B80838B8D9C8D892B29F0DF91B6
:1020C000CF911F910C942408DF91CF911F91089517
:1020D000BF92CF92DF92EF92FF920F931F93CF9315
:1020E000DF93EC01B62E072F142F8D8D9E8D009758
:1020F00009F452C069A1062E000C770B0E947324CC
:102100008D8D9E8DDC01ED91FC910190F081E02D93
:1021100060E01995CB2CD02EEE24E394F12C8D8D1C
:102120009E8D112371F1B0E2EB16F104B8F00E941C
:10213000862469A1062E000C770B8D8D9E8D0E9442
:1021400073248D8D9E8DDC01ED91FC910190F081C9
:10215000E02D60E01995EE24E394F12C8D8D9E8D99
:10216000F6016491DC01ED91FC910190F081E02D8C
:102170001995BFEFEB1AFB0A1150F60131966F016A
:10218000CECFDF91CF911F910F91FF90EF90DF9015
:10219000CF90BF900C948624EDA5FEA590818BA9CD
:1021A000809589238083E62EF72E112371F1F701A4
:1021B00084912B8D3C8D232B31F087DE1150C7018C
:1021C00001967C01F2CF28E030E040E8E9A5FAA5CD
:1021D00099A9582F542319F05081952B03C0508191
:1021E000909595239083EBA5FCA550819AA9952BFA
:1021F0009083EBA5FCA550819AA990959523908397
:1022000046952150310911F7D9CFDF91CF911F9118
:102210000F91FF90EF90DF90CF90BF900895FC0159
:10222000868197819C01295F3F4F37FF02C0295F5C
:102230003F4F83E0359527958A95E1F78481958115
:10224000289FA001299F500D389F500D112460E058
:1022500070E0878D90A10C94EB2C8F929F92AF929F
:10226000BF92CF92DF92EF92FF920F931F93CF9383
:10227000DF93EC01862EB42EA22E902E8F8D98A186
:10228000892BE9F42E813F81C901079697FD0796B6
:1022900023E0959587952A95E1F72C813D81AC0146
:1022A000429FC001439F900D529F900D11240E94A8
:1022B000D52A98A38F8F892B11F480E084C1CE0199
:1022C000AEDF8E819F816C817D8181329105E4F04A
:1022D000AC014054510957FF02C04F5F5F4F559505
:1022E00047956255710977FF02C06F5F7F4F759503
:1022F0006795CC24C394D12C80E4E82EF12C02E520
:1023000010E028E538E01BC0AC014052510957FFEE
:1023100002C04F5F5F4F559547956357710977FF2F
:1023200002C06F5F7F4F75956795CC24C394D12C05
:10233000A0E2EA2EF12C03E710E028E736E0CE0118
:1023400051D98AA28D8D9E8D009799F0B11007C04A
:102350002E813F812032310521F42CE303C02B2D47
:1023600001C02DE329A3992009F42AC10E94572412
:1023700079C061E08EA10E94AD2861E08FA10E942A
:10238000AD288EA1082E000C990BFC01EC55F44FE2
:10239000E491F0E0EE0FFF1FEC5FF34F25913491D5
:1023A0003EA72DA7FC01E25AF44FE491EBAB8FA1BD
:1023B000082E000C990BFC01EC55F44FE491F0E071
:1023C000EE0FFF1FEC5FF34FA591B491B8ABAFA731
:1023D000FC01E25AF44FE491ECAB8C91E82BEC93C6
:1023E0008B8D9C8D892B31F0992009F43BC00E9484
:1023F000262038C061E08CA10E94AD2861E08DA14B
:102400000E94AD288CA1082E000C990BFC01EC5504
:10241000F44FE491F0E0EE0FFF1FEC5FF34F2591D6
:1024200034913AA729A7FC01E25AF44FE491E9ABB1
:102430008DA1082E000C990BFC01EC55F44FE49192
:10244000F0E0EE0FFF1FEC5FF34FA591B491BCA736
:10245000ABA7FC01E25AF44FE491EAAB8C91E09512
:10246000E823EC93AA20F1F088A587FD1BC061E06A
:102470000E94AD2861E088A50E94E92861E070E033
:1024800080E090E00E94B22760E088A50E94E928E1
:102490006AE070E080E090E00E94B22761E088A5E9
:1024A0000E94E9288D8D9E8D009739F04DA95EA977
:1024B0006FA978AD0E9466240FC08B8D9C8D892BEF
:1024C00021F08EAD9FAD0E940A08EFA5F8A990817A
:1024D0008CA980958923808344E064E776E0CE016F
:1024E000F7DD6E816150CE014DDD44E060E776E0BE
:1024F000CE01EEDD8AA1813011F460E101C064E11A
:10250000CE0140DD44E06CE676E0CE01E1DD8FE80F
:102510008DAF8C819D818038910571F48E819F8172
:1025200080349105B9F48AA1813011F48FE901C09A
:102530008FEC8DAF12E10FC08036910559F48E817A
:102540009F81409739F48AA1813011F480E101C064
:102550008FEA8DAF12E06AEDCE0114DD612FCE015E
:1025600011DD61E8CE010EDD6DADCE010BDD69ED53
:10257000CE0108DD8AA1813011F462E201C061EF71
:10258000CE0100DD46E066E676E0CE01A1DD8D8D70
:102590009E8D009739F049AD5AAD6BAD7CAD0E9470
:1025A00066240CC0EFA5F8A990818CA9892B8083A3
:1025B0008B8D9C8D892B11F00E94240881E003C033
:1025C000A11052CF73CFDF91CF911F910F91FF9048
:1025D000EF90DF90CF90BF90AF909F908F90089535
:1025E0000F931F93CF93DF93DC0157FD64C01696C2
:1025F0008D919C911797481759070CF05CC077FF95
:1026000004C0260F371F60E070E01496CD91DC9176
:102610001597CB01820F931FC817D9071CF49E0191
:10262000261B370B121613060CF045C0FA0157FD96
:102630003796CF01E3E095958795EA95E1F78C9F72
:10264000F0018D9FF00D9C9FF00D11246E0F7F1FE8
:102650005F96ED91FC919097E60FF71F4770552715
:1026600081E090E001C0880F4A95EAF7482F0130D9
:10267000110539F078F002301105E9F42E0F3F1FF3
:1026800013C02E0F3F1FE217F307A9F08081842BA0
:102690008193F9CF80952E0F3F1FE217F30759F072
:1026A000908198239193F9CFE217F30721F080816D
:1026B00084278193F9CFDF91CF911F910F910895D6
:1026C000EF92FF920F931F93CF93DF93EC0177FD6F
:1026D000A5C0EC80FD806E157F050CF09FC057FFF4
:1026E00004C0240F351F40E050E08E819F81FA0125
:1026F000E20FF31F8E179F071CF49C01241B350B60
:10270000121613060CF08AC0922F842F8695869598
:1027100086958E9DD0018F9DB00D11246A0F7B1F71
:10272000AF8DB8A1A60FB71F4770B1F188E0841B29
:10273000482F682F70E0FB01E25AF94FE491281707
:1027400098F4621B71092FEF30E002C03595279590
:102750006A95E2F7E2230130110549F078F0023082
:10276000110509F05BC00EC00130110519F48C9100
:10277000E82B0AC00130110508F049C0E0958C91A2
:10278000E82302C08C91E827EC93941708F446C024
:102790002C813D81A20FB31FE92FE41BE830F8F034
:1027A0000230110561F48E2F9C9190959C932C81A1
:1027B0003D81A20FB31F88508830B0F70FC081E071
:1027C0000115110509F480E081959E2F8C932C81D1
:1027D0003D81A20FB31F98509830C0F7E770EE23E9
:1027E000E9F0F0E0EA5AF94FE4910130110539F0CF
:1027F00048F00230110591F48C91E82706C08C91C5
:10280000E82B03C0E0958C91E823EC9307C00230DD
:10281000110509F4B7CFAE0DBF1DBECFDF91CF912B
:102820001F910F91FF90EF9008950F931F93DC017C
:102830005696EC915697E23061F0E33009F1E130C1
:1028400079F51496ED91FC911597E41BF50B3197F2
:1028500023C0DC011496ED91FC911597DF01A61BB6
:10286000B70BBD01DC011696ED91FC911797DF01C6
:10287000A41BB50BAD0141505109621B730B10C075
:10288000FA01DC0116964D915C911797DA01A61BAF
:10289000B70BBD01621B730BAB01BF0111DF01C0A0
:1028A0009FDE1F910F9108950F931F93DC015696A1
:1028B000EC915697E23069F0E33011F1E13081F5A7
:1028C0001496ED91FC911597E41BF50BE21BF30BAD
:1028D00023C0DC011496ED91FC911597DF01A61B36
:1028E000B70BBD0161507109DC011696ED91FC91A9
:1028F0001797DF01A41BB50BAD01421B530B10C092
:10290000FA01DC0116964D915C911797DA01A61B2E
:10291000B70BBD0161507109AB01BF0161DE01C0A0
:10292000CFDE1F910F910895CF92DF92EF92FF9229
:102930000F931F93CF93DF93EC018D8D9E8D0097A6
:1029400039F04DA95EA96FA978AD0E9466240FC029
:102950008B8D9C8D892B21F08EAD9FAD0E940A0836
:10296000EFA5F8A990818CA980958923808345E003
:1029700061E576E0CE01ACDB6C816150CE0102DB1B
:102980002E813F81C901079697FD079623E0959513
:1029900087952A95E1F72C813D81829F7001839F65
:1029A000F00C929FF00C11240F8D18A18D8D9E8D2F
:1029B000E00EF11E009709F443C069A1062E000C39
:1029C000770B0E9473248D8D9E8DDC01ED91FC911F
:1029D0000190F081E02D60E41995680101E010E0BC
:1029E0008D8D9E8DEC14FD0441F100321105B0F087
:1029F0000E94862469A1062E000C770B8D8D9E8D7A
:102A00000E9473248D8D9E8DDC01ED91FC910190CF
:102A1000F081E02D60E4199501E010E08D8D9E8D30
:102A2000F60161916F01DC01ED91FC910190F08163
:102A3000E02D19950F5F1F4FD3CF0E94862434C01D
:102A4000EDA5FEA590818BA9892B80830E151F050E
:102A500059F1F80181918F012B8D3C8D232B11F0C1
:102A600034DAF4CF28E030E040E8E9A5FAA599A9E6
:102A7000582F542319F05081952B03C05081909505
:102A800095239083EBA5FCA550819AA9952B908363
:102A9000EBA5FCA550819AA9909595239083469526
:102AA0002150310911F7D2CF8D8D9E8D009771F095
:102AB00049AD5AAD6BAD7CADDF91CF911F910F91B8
:102AC000FF90EF90DF90CF900C946624EFA5F8A9CB
:102AD00090818CA9892B80838B8D9C8D892B51F0C3
:102AE000DF91CF911F910F91FF90EF90DF90CF90EA
:102AF0000C942408DF91CF911F910F91FF90EF90DC
:102B0000DF90CF900895FC01108213821482089503
:102B1000862F0C941729862F642F0C94E928862F72
:102B2000642F0C94AD284F925F926F927F928F9298
:102B30009F92AF92BF92CF92DF92EF920F93CF937B
:102B4000DF93EC016B014A0159010296DCDF87EE4D
:102B500092E0998388832E018BE1480E511C3E013F
:102B60008DE4680E711CC201CEDF85E0480E511C59
:102B700046145704C1F7FE01E95AFF4F9182808243
:102B80003296B182A082329600833196E0823797E6
:102B9000D182C08238968AE090E091838083329619
:102BA00084EF91E091838083339611821082719734
:102BB0001082118212821382CF59DF4F1882DF9167
:102BC000CF910F91EF90DF90CF90BF90AF909F90FB
:102BD0008F907F906F905F904F9008952F923F92CB
:102BE0004F925F926F927F928F929F92AF92BF921D
:102BF000CF92DF92EF92FF920F931F93CF93DF93C9
:102C0000CDB7DEB728970FB6F894DEBF0FBECDBFA5
:102C100098878F8310E05C012BE5A20EB11C7C012C
:102C200037E5E30EF11CD5018C911817B8F0312C63
:102C3000EF81F885E45AFF4FFC83EB83CF80D88483
:102C4000F9E5CF0ED11C412C512C320143942F8138
:102C50003885295A3F4F3E832D8360C0F701A081FC
:102C6000B181A10FB11DEF81F88580819181FC01B7
:102C70002081318142E06C918F819885F90119950D
:102C80001F5FD1CF022D10E0AD81BE818D919C914F
:102C9000DC01A00FB11F0480F581E02D6C918F81C4
:102CA00098851995000F111FEF81F885E00FF11F2E
:102CB000892B09F06FC08781908529813A81822B09
:102CC000932B908787832394D5018C91AF81B8850E
:102CD000ED91FC912816B0F2D6018D919C91DC010A
:102CE000AE0DBF1D0280F381E02D41E06C918F811C
:102CF00098851995F60180819181DC01AE0DBF1D8B
:102D0000EF81F88580819181FC012081318140E053
:102D10006C918F819885F90119953394AB81BC81B1
:102D20008C913816E0F5E32CF12CF601A081B181ED
:102D3000AE0DBF1DEF81F88580819181FC0120815E
:102D4000318141E06C918F819885F9011995F601E7
:102D5000A081B181AE0DBF1DEF81F8858081918189
:102D6000FC012281338140E06C918F819885F901CB
:102D70001995D301C201032C04C0880F991FAA1F03
:102D8000BB1F0A94D2F79A8389834C018094909454
:102D9000212C9ACF878190858821992192CF2896DE
:102DA0000FB6F894DEBF0FBECDBFDF91CF911F915C
:102DB0000F91FF90EF90DF90CF90BF90AF909F90DA
:102DC0008F907F906F905F904F903F902F900895DD
:102DD000FC0180E090E0248D358D2617370739F00F
:102DE000019635968A309105B1F78FEF9FEF0895E0
:102DF000DC0125E0629FA00DB11D11245E964C936D
:102E00005E9721E05F962C935F97FC01EF59FF4F8F
:102E1000208131960190F081E02D222331F030970E
:102E200049F0611107C0DC0102C0309719F05B96D0
:102E30008C9119940895CF92DF92EF92FF920F93A5
:102E40001F93CF93DF93EC01162F042FFC0185E035
:102E5000689FE00DF11D1124178E868D8130A9F039
:102E600030F0823069F18330C9F540E02CC0442352
:102E7000A9F141E0CE01BCDF0E948127C35BDF4F97
:102E8000688379838A839B8329C00E948127FE01FE
:102E9000E35BFF4FC080D180E280F380AB01BC01D7
:102EA0004C195D096E097F09729680819181A0E0BD
:102EB000B0E084179507A607B70710F442E003C0F7
:102EC00001110CC043E0612FCE01DF91CF911F9122
:102ED0000F91FF90EF90DF90CF908ACFDF91CF914D
:102EE0001F910F91FF90EF90DF90CF9008952F9258
:102EF0003F924F925F926F927F928F929F92AF928A
:102F0000BF92CF92DF92EF92FF920F931F93CF93D6
:102F1000DF9300D000D0CDB7DEB79E838D837C01D8
:102F20005C0122E3A20EB11CFC018FEF9FEF268D06
:102F3000211104C0138E958F848F178E3596AE168F
:102F4000BF06A9F7512C8D819E81855A9F4F9A8388
:102F50008983AD81BE81A45ABF4FBC83AB836D8092
:102F60007E80B5E56B0E711C85E0282EE981FA8123
:102F70008081581608F057C0412C0D811E81050D27
:102F8000111D050D111D095F1F4FAB81BC818C9078
:102F9000481408F046C0F801C080D180042C02C05B
:102FA000D694C7940A94E2F7FC2DF1703F2E589CFA
:102FB00040011124840C911CB4018D819E8108DF95
:102FC00097FD05C0432D682F8D819E8120C00196FD
:102FD00031F5C0FE24C0ED81FE8160E070E0838D9C
:102FE000811117C0D301ED91FC91E80DF91D80818D
:102FF000269EF001279EF00D11242D813E81E20FC7
:10300000F31F838F958E848E168E432DC90113DF97
:1030100006C06F5F7F4F35966A30710501F74394A4
:10302000B4CF5394A3CF80E0D7015F969C919111C8
:1030300081E0B5E0EB0EF11CAE14BF04A9F72696B3
:103040000FB6F894DEBF0FBECDBFDF91CF911F91B9
:103050000F91FF90EF90DF90CF90BF90AF909F9037
:103060008F907F906F905F904F903F902F9008953A
:10307000CF92DF92EF92FF920F931F93CF93DF9344
:10308000EC010E9481278E010F5A1F4FF801C0806A
:10309000D180E280F380AB01BC014C195D096E095F
:1030A0007F093C9680819181A0E0B0E0841795076C
:1030B000A607B70768F4CE0191DDCE0118DFC82F4F
:1030C0000E948127F801608371838283938301C00A
:1030D000C0E08C2FDF91CF911F910F91FF90EF9067
:1030E000DF90CF9008950F931F93CF93DF93EC0160
:1030F0008C010F591F4F81E0F8018083CE01B8DFAA
:10310000882341F08F8D882329F08E8D813011F432
:103110008B8D03C0F801108280E0DF91CF911F9169
:103120000F910895CF93DF93EC0160E08E810E94B0
:10313000E92881E090E00E94EB2761E08E810E9407
:10314000E92881E090E00E94EB2760E08E810E94F8
:10315000E92884E690E0DF91CF910C94EB27CF92A1
:10316000DF92EF92FF920F931F93CF93DF936C0147
:103170007C0187E0E80EF11CC0E0D0E0062F10E0F3
:10318000B8010C2E02C0759567950A94E2F761703C
:10319000F70181917F010E94E9282196C430D10571
:1031A00079F7C601DF91CF911F910F91FF90EF90BA
:1031B000DF90CF90B7CFCF92DF92EF92FF920F9335
:1031C0001F93CF93DF936C017C0187E0E80EF11C25
:1031D000C0E0D0E0062F10E0B8010C2E02C07595BB
:1031E00067950A94E2F76170F70181917F010E946F
:1031F000E9282196C830D10579F7C601DF91CF9132
:103200001F910F91FF90EF90DF90CF908BCF1F9386
:10321000CF93DF93EC01162F642F8C810E94E92855
:103220008D818F3F19F060E00E94E9288F85612F22
:1032300084FF05C0CE01DF91CF911F91BCCF70E01C
:1032400084E0759567958A95E1F7CE0188DF612F57
:10325000CE01DF91CF911F9182CF40E0D8CF61E0C6
:10326000FCDF80ED97E00C94EB27FC016089262FB2
:103270002460208B6C60F1CFEF92FF920F931F932D
:10328000CF93DF93EC01423018F08F8588608F87F1
:103290004B8B1C8A80E48D8B6E8B70E0605C7F4F63
:1032A0006F8B222329F0413019F48F8584608F873A
:1032B00061E08C810E94AD288D818F3F19F061E023
:1032C0000E94AD2861E08E810E94AD287E0187E0DA
:1032D000E80EF11C00E010E08F8584FD03C084E05F
:1032E00090E002C088E090E0081719074CF461E014
:1032F000F70181917F010E94AD280F5F1F4FECCF36
:1033000080E593EC0E94EB2760E08C810E94E92825
:1033100060E08E810E94E9288D818F3F19F060E086
:103320000E94E9286F8564FD19C063E0CE0117DFB4
:1033300084E991E10E94EB2763E0CE0110DF84E98C
:1033400091E10E94EB2763E0CE0109DF86E990E07E
:103350000E94EB2762E0CE0102DF13C06062CE0163
:103360007CDF84E991E10E94EB276F856062CE01EA
:1033700074DF86E990E00E94EB276F856062CE01E2
:103380006CDF6F856062CE0168DF84E0888BCE01E0
:103390006CDFCE0164DF82E0898B66E0CE01DF91D5
:1033A000CF911F910F91FF90EF9057CFCF92EF9257
:1033B0000F93FC011382128281EF92E0918380834C
:1033C00064838FEF8583468327830087E186C286E7
:1033D0001386148615861686178620E041E060E184
:1033E000CF010F91EF90CF9047CF41E010DF81E008
:1033F00090E00895BC016E5F7F4FDC01ED91FC9180
:103400000190F081E02D40E0199591E0811190E06C
:10341000892F0895AF92BF92CF92DF92EF92FF92E1
:103420000F931F93CF93DF936C01A42E79016068F3
:10343000B62E80E590E00E940A0860E0F6018685DD
:103440000E94E928AA948B2D0E94650F0023A1F009
:10345000CFEFD0E001C0CC0F0A95EAF78B2D0E9488
:10346000650F2C2F2095F701908192238C23892BB7
:10347000F701808311E001C010E0812F90E0E701A7
:10348000C80FD91F1A1530F48B2D0E94650F888341
:103490001F5FF3CF80E00E94650F888361E0F60133
:1034A00086850E94E928DF91CF911F910F91FF90AF
:1034B000EF90DF90CF90BF90AF900C942408FC0168
:1034C0008DEF92E0918380836687478708950F93FD
:1034D0001F93CF93DF93EC01062F142F80E590E02C
:1034E0000E940A0860E08E850E94E928802F0E94D1
:1034F000650F812F0E94650F61E08E850E94E9288B
:10350000DF91CF911F910F910C942408DF92EF92DD
:10351000FF920F931F93CF93DF938C01C62FF42E4E
:10352000D22EE32E80E590E00E940A0860E0F801C8
:1035300086850E94E9288C2F0E94650FCD2DDE2DF7
:10354000CE018F0D911D7C01EC16FD0621F08991B5
:103550000E94650FF9CF61E0F80186850E94E92895
:10356000DF91CF911F910F91FF90EF90DF900C941E
:1035700024081F93CF93DF93EC01162F80E590E092
:103580000E940A0860E08E850E94E928812F8068E9
:103590000E94650F80E00E94650F182F61E08E8504
:1035A0000E94E9280E942408812FDF91CF911F916A
:1035B00008950F9341112EDF0F9108950F931F93DC
:1035C000CF93DF938C01D62FC42FD3DF482F4C2B02
:1035D0006D2FC801DF91CF911F910F9178CF0F937D
:1035E0001F93CF93DF938C01D62FC42FC2DFC095DA
:1035F0004C2F48236D2FC801DF91CF911F910F9160
:1036000066CFCF92DF92EF92FF920F931F93CF93EB
:10361000DF93EC016B01142F790140E062E057DF8A
:1036200044E06AE0CE0153DF40E864E1CE014FDFC1
:103630009601412F62E1CE0169DF43E062E0CE01F5
:1036400046DF08E813E16AE0CE0193DF82FF10C095
:1036500040E062E0CE013BDF64E4CE018ADFF701A7
:10366000808362E4CE0185DFF701818380E004C0BE
:103670000150110941F783E0DF91CF911F910F9124
:10368000FF90EF90DF90CF9008950F931F93CF930B
:103690008C014FE062E01BDFC3E062E370E080E09A
:1036A00090E00E94B22762E0C80163DF84FF02C09D
:1036B000C15099F7CF911F910F910895CF93DF9348
:1036C000EC0168E256DF982F9370933039F0482F61
:1036D000436068E2CE01DF91CF91F9CEDF91CF91C7
:1036E0000895CF93DF93EC0161E08E850E94AD28B1
:1036F00061E08E850E94E9288F858F3F09F447C0DD
:1037000060E00E94AD288F850E941729892B09F05F
:103710003EC061E08F850E94AD2860E08F850E94E9
:10372000E92882E090E00E94EB2761E08F850E940B
:10373000E92862E370E080E090E00E94B22740E078
:1037400064E2CE01C4DE40E066E2CE01C0DE46E2C5
:1037500068E4CE01BCDE40E864E5CE01B8DE49EAAB
:1037600066E5CE01B4DE43E068E5CE01B0DE48EEAA
:103770006AE5CE01ACDE40E46AE2CE01A8DE4DE3AC
:1037800062E2CE01A4DECE01DF91CF9197CFCE01D0
:103790007CDFD5CF3F924F925F926F927F928F9254
:1037A0009F92AF92BF92CF92DF92EF92FF920F93D0
:1037B0001F93CF93DF931F921F92CDB7DEB73C01CB
:1037C000162F942E2901A114B10419F0F50140819E
:1037D00001C040E0342EF0E18F9E300C112440E017
:1037E00062E0C30174DE4FE768E0C30170DE40E8C9
:1037F00064E1C3016CDE9201402F62E1C30186DE09
:10380000432D6AE1C30163DE412F62E0C3015FDE45
:103810001C3021F440E86AE1C301D0DE00ED17E07E
:1038200068E0C301A6DE982F992139F480FD03C01A
:1038300001501109A9F783E060C06CE0C30199DE73
:10384000182F837109F056C0E114F104E1F0C1149E
:10385000D104C9F064E1C3018CDEF60190819817B0
:1038600008F442C08083082D9701482F62E1C3010C
:10387000A0DE68E1C3017DDE8770A114B10421F0F0
:10388000F501808301C080E013FD30C0E114F10434
:1038900079F1C114D10461F19F89992349F1F601AD
:1038A0004081413021F4843039F58FEF26C0423019
:1038B00018F1811121C042509E012F5F3F4FB70187
:1038C000C3019FDE811119C0F6018081E80EF11C51
:1038D000F70132979081898198130EC031969081BB
:1038E0008A81981309C004C084E007C082E005C043
:1038F00080E003C081E001C087E00F900F90DF916E
:10390000CF911F910F91FF90EF90DF90CF90BF90DC
:10391000AF909F908F907F906F905F904F903F906F
:1039200008958F92AF92BF92CF92DF92EF92FF9263
:103930000F931F93AF928C2C570168017901042FCC
:103940009B0140E36CE026DF0F901F910F91FF90E9
:10395000EF90DF90CF90BF90AF908F9008952F920F
:103960003F924F925F926F927F928F929F92AF920F
:10397000BF92CF92DF92EF92FF920F931F93CF935C
:10398000DF93CDB7DEB72C970FB6F894DEBF0FBE2E
:10399000CDBF413508F000C1342E3B014C0140E859
:1039A0006CE11DDE2224239432E0231691F083E0A3
:1039B0002816E1F091E02912F3C083E989833320CE
:1039C000D1F081E0F3019081953008F480E0B12CD2
:1039D00017C0F5E9F983332081F081E0F30190818C
:1039E000983008F480E043E0B42E0AC087E9898368
:1039F00036E0B32E04C0B12C02C023E0B22E80E02A
:103A0000D32CF8E0BF9ED0181124D7FCD12C8823EA
:103A100021F098E89B8333E001C032E021E09D2D46
:103A2000977009F420E09D2D959595959595290F12
:103A300031F4882309F48DC038E0D30E8AC0811197
:103A400002C094E001C093E0291708F4922FEB2DF7
:103A5000F0E03196E60DF71D232F4191A1E0B0E093
:103A6000AC0FBD1FA20FB11D4C932F5F422F431B04
:103A7000491798F3DECF8111D8C09FE19D150CF452
:103A800091C080E2D82E90E79A839B818C81892710
:103A90009D8189279E8189278F839E01285F3F4FC3
:103AA00047E0BE016F5F7F4FC401ABDD8111BDC038
:103AB0001B86E3E0EA87CE0107962C0199E09C87FC
:103AC000CB844C2D4295407F4C0D6AE1C401FFDC54
:103AD000A12CCE010B967C018E01065F1F4F920137
:103AE0004C85BE016F5F7F4FC4011BDF823009F040
:103AF000C2CF6CE1C4013DDD85FD50C08F7109F47A
:103B000080E2282F30E04D2DDD0C550B4217530776
:103B10000CF046C0D82E85958595859591E0980F37
:103B2000422F477081E009F480E0890FE1E0F0E086
:103B3000EC0FFD1FE80FF11D2150310927703327CD
:103B400081E090E001C0880F2A95EAF79081892BE7
:103B500080838FE18D150CF496CF9D2D97709B87F8
:103B60008D2D8595859585958E5F292FE0E18E9F1A
:103B7000200D11242A8321E0911101C020E0280F9B
:103B80002C8744244394512C4C0E5D1E480E511C2E
:103B9000F9E0F81BFA8794CF86E047C082E045C081
:103BA00085E043C08B818838E9F182E094E0EB2D19
:103BB000F0E03196E60DF71D980FA1E0B0E0AC0FF4
:103BC000BD1FA80FB11D2C9121938F5F9813F5CFC6
:103BD0008A85833019F58B85811120C09E012D5F68
:103BE0003F4F41E0B201C4010CDD81111EC09B8139
:103BF000F2018181981314C09C818281981310C0B6
:103C0000808182FF02C02394CFCEF3018387822D6F
:103C1000880F820D8F5F808380E007C081E005C040
:103C200087E003C083E093E0C2CF2C960FB6F894F0
:103C3000DEBF0FBECDBFDF91CF911F910F91FF90DF
:103C4000EF90DF90CF90BF90AF909F908F907F903C
:103C50006F905F904F903F902F9008954F925F929A
:103C60006F927F928F929F92AF92CF92EF92FF923C
:103C70000F931F93CF93DF931F921F92CDB7DEB7A1
:103C80006A834115510529F1F9016081623008F11B
:103C900049012A013C0140E86CE1A1DC87E089830D
:103CA000A12CC12CCE0101967C018401920141E03E
:103CB000BE016E5F7F4FC30134DE81110DC0F40180
:103CC0008081823041F481E09981911105C080E0CA
:103CD00003C084E001C081E00F900F90DF91CF918D
:103CE0001F910F91FF90EF90CF90AF909F908F908A
:103CF0007F906F905F904F9008959A01AB0166E2BC
:103D0000ADCF0F931F93CF93DF9300D0CDB7DEB726
:103D10008C0182E08B8340E064E2C801D8DB40E0A4
:103D200066E2C801D4DB46E268E4C801D0DBAE013C
:103D30004D5F5F4FBE016F5F7F4FC801DEDF982F81
:103D400081E0992319F0923009F080E00F900F90F4
:103D50000F90DF91CF911F910F910895CF92DF9235
:103D6000EF92FF920F931F93CF93DF937B016A0132
:103D7000082F10E0E801CC5FDB4F888187FF04C08B
:103D8000FB011182108224C08CE0809F9001819FF2
:103D9000300D11248881A901480F511D87FD5A95C6
:103DA0008091030490E04817590794F48881A90191
:103DB000480F511D87FD5A95CA01FA01EE0FFF1FEA
:103DC0008E0F9F1FFC01E85FFB4F808186FD19C0AD
:103DD00088818F5F88838CE0809F9001819F300D68
:103DE00011248881A901480F511D87FD5A958091A2
:103DF000030490E048175907BCF488818C3044F1E3
:103E000013C08881280F311D87FD3A95F901EE0F07
:103E1000FF1F2E0F3F1FF901E85FFB4F808160E01D
:103E20008F730E94E928D4CFF70180819181049695
:103E300080349C4918F480E49CE904C0F701808137
:103E400091810496F601918380838FEF888345C02A
:103E5000F701408151818881B901680F711D87FD8B
:103E60007A95CB01FB01EE0FFF1F8E0F9F1FFC0108
:103E7000E85FFB4F81819281840F951FF60191834A
:103E800080838881A901480F511D87FD5A95CA0179
:103E9000FA01EE0FFF1F8E0F9F1FFC01E85FFB4F23
:103EA000808186FF1AC08881280F311D87FD3A95D1
:103EB000F901EE0FFF1F2E0F3F1FF901E85FFB4FC7
:103EC000808161E08F73DF91CF911F910F91FF90FF
:103ED000EF90DF90CF900C94E928DF91CF911F9164
:103EE0000F91FF90EF90DF90CF9008951F920F9267
:103EF0000FB60F9211240BB60F922F933F934F934F
:103F00005F936F937F938F939F93AF93BF93EF9341
:103F1000FF9348E850E064E870E081E01FDFFF9124
:103F2000EF91BF91AF919F918F917F916F915F9131
:103F30004F913F912F910F900BBE0F900FBE0F909E
:103F40001F9018951F920F920FB60F9211240BB667
:103F50000F922F933F934F935F936F937F938F9322
:103F60009F93AF93BF93EF93FF9348E950E064E9C9
:103F700070E082E0F3DEFF91EF91BF91AF919F91EE
:103F80008F917F916F915F914F913F912F910F9002
:103F90000BBE0F900FBE0F901F9018951F920F929F
:103FA0000FB60F9211240BB60F922F933F934F939E
:103FB0005F936F937F938F939F93AF93BF93EF9391
:103FC000FF9348EA50E064EA70E083E0C7DEFF91C7
:103FD000EF91BF91AF919F918F917F916F915F9181
:103FE0004F913F912F910F900BBE0F900FBE0F90EE
:103FF0001F9018951F920F920FB60F9211240BB6B7
:104000000F922F933F934F935F936F937F938F9371
:104010009F93AF93BF93EF93FF9348E251E064E225
:1040200071E080E09BDEFF91EF91BF91AF919F9196
:104030008F917F916F915F914F913F912F910F9051
:104040000BBE0F900FBE0F901F901895CF93CFB758
:10405000F89480919B04811127C0E9EDFBE08491E5
:10406000E3E9FBE09491E82FF0E0EE0FFF1FE25E42
:10407000F34FA591B491EC91E92321F461E085E33C
:104080000E94E92861E085E30E94AD288CB580613B
:104090008CBD8CB580648CBD61E084E30E94AD284A
:1040A00061E083E30E94AD2880919B048F5F809341
:1040B0009B04CFBFCF9108951F920F920FB60F921E
:1040C00011240BB60F922F933F934F935F936F93EF
:1040D0007F938F939F93AF93BF93EF93FF93E09161
:1040E0009C04F0919D041995FF91EF91BF91AF91C0
:1040F0009F918F917F916F915F914F913F912F9100
:104100000F900BBE0F900FBE0F901F9018951F922F
:104110000F920FB60F9211240BB60F922F933F936D
:104120004F935F936F937F938F939F93AF93BF93BF
:10413000EF93FF93E0919E04F0919F041995FF91F6
:10414000EF91BF91AF919F918F917F916F915F910F
:104150004F913F912F910F900BBE0F900FBE0F907C
:104160001F9018951092130581E08093110510920D
:10417000100561E084E10E94E92861E085E10E9488
:10418000E928E9EBF0E080818E7F808380818D7F5C
:10419000808388E48093B80085E48093BC00089510
:1041A000ECEBF0E080818A7B808360E084E10E9418
:1041B000E92860E085E10C94E9289B01AC0160E00E
:1041C00074E284EF90E00E94AB2ADA01C9014097C3
:1041D000A109B109B695A795979587958093B800E1
:1041E00008954091C204262F30E0240F311D213262
:1041F0003105DCF4209113052430C9F4FC0180E082
:1042000090E0861758F43091C2042191DC01AC5340
:10421000BB4FA30FB11D2C930196F3CF8091C20425
:10422000680F6093C20480E0089581E0089582E001
:1042300008959093070580930605089590930905C6
:1042400080930805089585EC8093BC0010921305B7
:104250000895CF93DF9391E090930B05882351F05D
:10426000C091B800D091BA009BDF7CDFD093BA0038
:10427000C093B800DF91CF9108954F925F926F92F3
:104280007F928F929F92AF92BF92CF92DF92EF92E6
:10429000FF920F931F93CF93DF93413208F0BFC07B
:1042A000122FF42ED72EE62ED82F37D64B015C01D5
:1042B000C0911305CC2309F180910C0590910D0557
:1042C000A0910E05B0910F05892B8A2B8B2B81F3C2
:1042D00024D640900C0550900D0560900E0570900E
:1042E0000F05DC01CB0188199909AA09BB094816F9
:1042F00059066A067B06E0F67FC082E080931305CC
:10430000009311058FEF8093A0041092E504F092C2
:10431000E4049E2DA6EEB4E0EE2DFD2D8E2F891B1C
:104320008F1518F481918D93F9CF10921205909109
:104330001205DD0FD92BD093120580911005813025
:1043400079F510921005E9D56B017C018091120579
:104350008093BB0080910C0590910D05A0910E05F6
:10436000B0910F05892B8A2B8B2BA1F0D6D580908D
:104370000C0590900D05A0900E05B0900F05DC0186
:10438000CB018C199D09AE09BF0988169906AA06AA
:10439000BB0690F18091BC0083FDD8CF85EC01C0B5
:1043A00085EE8093BC00B9D56B017C01112349F1E6
:1043B00080911305823029F580910C0590910D05AF
:1043C000A0910E05B0910F05892B8A2B8B2B71F3D1
:1043D000A4D580900C0590900D05A0900E05B0908E
:1043E0000F05DC01CB018C199D09AE09BF098816A8
:1043F0009906AA06BB06D0F680910A052ADFC5E019
:1044000013C08091A0048F3F79F08091A004803286
:1044100041F08091A004803331F0C4E005C0C1E0D8
:1044200003C0C2E001C0C3E08C2FDF91CF911F9188
:104430000F91FF90EF90DF90CF90BF90AF909F9043
:104440008F907F906F905F904F90089585ED80934F
:10445000BC0080910C0590910D05A0910E05B091C6
:104460000F050796A11DB11D23E0B695A795979559
:1044700087952A95D1F72091BC0024FF1BC040915D
:104480000C0550910D0560910E0570910F05452B9F
:10449000462B472B81F30097A105B10541F025E399
:1044A0002A95F1F700000197A109B109E4CF8091A5
:1044B0000A05CFCE1092130508951F920F920FB6E2
:1044C0000F9211240BB60F922F933F934F935F934C
:1044D0006F937F938F939F93AF93BF93EF93FF93CC
:1044E0008091B900887F803609F49DC070F58832CC
:1044F00009F45CC090F4803109F455C038F4882385
:1045000009F4F3C0883009F44EC0F2C0883109F4D0
:104510004DC0803209F45EC0EBC0803409F469C03C
:1045200050F4803309F456C0883309F0E1C0809319
:10453000A00489DEDDC0803509F44FC0883509F458
:104540005DC0883409F0D4C0D2C0883909F4C3C032
:10455000A8F4883709F467C038F4883609F463C0D2
:10456000803709F460C0C4C0883809F4B4C0803909
:1045700009F45FC0803809F0BBC05BC0803B09F420
:1045800082C038F4803A09F466C0883A09F47BC0E6
:10459000AFC0803C09F4A3C0883C09F4A0C0883BAC
:1045A00009F486C0A5C08091120510C09091E50461
:1045B0008091E404981770F5E091E50481E08E0F96
:1045C0008093E504F0E0EA51FB4F80818093BB00CB
:1045D00085EC82C08093A0048AC0E091E50481E06C
:1045E0008E0F8093E5048091BB00F0E0EA51FB4F11
:1045F00080839091E5048091E4046AC0E091E50431
:1046000081E08E0F8093E5048091BB00F0E0EA51D9
:10461000FB4F808380911105811169C081E08093F7
:10462000100584EA5DC083E0809313051092A10415
:10463000CFCF8091A104803208F04DC0E091A10459
:1046400081E08E0F8093A1048091BB00F0E0EE55D5
:10465000FB4F8083BDCFF7DD8091A104803230F421
:10466000E091A104F0E0EE55FB4F10826091A104AF
:1046700070E0E0910605F091070582EA94E0199553
:104680001092A10435C084E0809313051092C304F6
:104690001092C204E0910805F091090519958091E6
:1046A000C204811105C081E08093C2041092C40449
:1046B000E091C30481E08E0F8093C304F0E0EC53DB
:1046C000FB4F80818093BB009091C3048091C20412
:1046D000981708F47DCF85E88093BC0009C085EC6D
:1046E0008093BC001092130503C01092A004AEDEAC
:1046F000FF91EF91BF91AF919F918F917F916F91BA
:104700005F914F913F912F910F900BBE0F900FBE75
:104710000F901F9018958091480590E020914905D1
:10472000821B910908959091490580914805981739
:1047300050F4E92FF0E0E65BFA4F208130E09F5F14
:104740009093490502C02FEF3FEFC9010895E09112
:10475000490580914805E81730F4F0E0E65BFA4F30
:10476000808190E008958FEF9FEF08950895CF9393
:10477000DF93EC01E0912005F09121053097F1F0F5
:1047800090914905809148059817C0F090E0292F35
:1047900030E02617370754F4DE01A20FB31F4C9107
:1047A000D901A65BBA4F4C939F5FF1CF1092490598
:1047B00060934805CB01DF91CF911994DF91CF91A0
:1047C0000895E0912205F0912305309729F0109289
:1047D00026051092250519940895CF92DF92EF9245
:1047E000FF920F931F93CF93DF937C01CB018A013C
:1047F00020912405222389F0EB016B01C40ED51E04
:10480000CC15DD0561F06991D701ED91FC91019026
:10481000F081E02DC7011995F3CF642FE2DCC801C8
:10482000DF91CF911F910F91FF90EF90DF90CF908C
:104830000895CF93DF931F92CDB7DEB769832091A0
:1048400024052223D1F020912505203240F021E0DB
:1048500030E0FC013383228380E090E014C080913B
:104860002605E82FF0E0E95DFA4F998190838F5F8C
:10487000809326058093250504C061E0CE01019652
:10488000B0DC81E090E00F90DF91CF910895FC01C2
:104890001382128288EE93E0A0E0B0E084839583D7
:1048A000A683B78387E093E0918380830895109275
:1048B000490510924805109226051092250552DCF4
:1048C00081EE93E2BBDC87EB93E2B3CCCB01BA0180
:1048D00074CC81E0809324056093470510922605EF
:1048E000109225050895F5CF0F93062F21E04091F2
:1048F000250567E275E080914705BFDC109226052B
:1049000010922505109224050F91089561E0ECCFD7
:1049100084E195E0BCCF0E94D62CFC01918D228DC4
:10492000892F90E0805C9F4F821B91098F7399279C
:104930000895FC01918D828D981731F0828DE80FDA
:10494000F11D858D90E008958FEF9FEF0895FC0194
:10495000918D828D981761F0828DDF01A80FB11DB6
:104960005D968C91928D9F5F9F73928F90E00895DA
:104970008FEF9FEF0895FC01538D448D252F30E07C
:10498000842F90E0821B930B541710F0CF9608955C
:104990000197089587E596E2892B39F080E090E051
:1049A000892B19F084D1811125C080E090E0892BFA
:1049B00041F080E090E0892B21F00E9400008111FD
:1049C0001CC080E090E0892B41F080E090E0892BD2
:1049D00021F00E940000811113C080E090E0892B3B
:1049E000A1F080E090E0892B81F00E94000081110D
:1049F0000AC008950E940000D8CF0E940000E1CFB5
:104A00000E940000EACF0C9400000895FC01848D00
:104A1000DF01A80FB11DA35ABF4F2C91848D90E0E8
:104A200001968F739927848FA689B7892C93A089C3
:104A3000B1898C91837080648C93938D848D98134D
:104A400006C00288F389E02D80818F7D80830895E0
:104A5000EF92FF920F931F93CF93DF93EC0181E0CE
:104A6000888F9B8D8C8D981305C0E889F98980818A
:104A700085FD25C0F62E0B8D10E00F5F1F4F0F73C5
:104A80001127E02E8C8DE8120BC00FB607FCFACF71
:104A9000E889F989808185FFF5CFCE01B7DFF2CFB4
:104AA0008B8DFE01E80FF11DE35AFF4FF0829FB797
:104AB000F8940B8FEA89FB89808180620AC09FB7D6
:104AC000F894EE89FF896083E889F9898081837091
:104AD000806480839FBF81E090E0DF91CF911F9140
:104AE0000F91FF90EF900895CF93DF93EC01888DA5
:104AF0008823C1F0EA89FB89808185FD05C0A889EA
:104B0000B9898C9186FD0EC00FB607FCF5CF808168
:104B100085FFF2CFA889B9898C9185FFEDCFCE01B1
:104B200075DFE8CFDF91CF910895CF92DF92EF92BA
:104B3000FF921F93CF93DF93EC016A017B01122F49
:104B4000E889F98982E080834115514E610571053C
:104B5000A9F060E079E08DE390E0A7019601FBD435
:104B6000DA01C9010197A109B109B695A7959795F1
:104B700087959C01211580E13807A0F0E889F98923
:104B8000108260E874E88EE190E0A7019601E3D41A
:104B9000DA01C9010197A109B109B695A7959795C1
:104BA00087959C01EC85FD853083EE85FF8520830C
:104BB000188EEC89FD891083EA89FB8980818061E8
:104BC0008083EA89FB89808188608083EA89FB8908
:104BD000808180688083EA89FB8980818F7D8083E2
:104BE000DF91CF911F91FF90EF90DF90CF900895CC
:104BF0001F920F920FB60F9211240BB60F922F93A4
:104C00008F939F93EF93FF93E0917A05F0917B054B
:104C10008081E0918005F091810582FD12C0908134
:104C2000809183058F5F8F7320918405821751F0E7
:104C3000E0918305F0E0E659FA4F958F8093830564
:104C400001C08081FF91EF919F918F912F910F90E3
:104C50000BBE0F900FBE0F901F9018951F920F92D2
:104C60000FB60F9211240BB60F922F933F934F93D1
:104C70005F936F937F938F939F93AF93BF93EF93C4
:104C8000FF938AE695E0C2DEFF91EF91BF91AF916D
:104C90009F918F917F916F915F914F913F912F9154
:104CA0000F900BBE0F900FBE0F901F9018958AE6C5
:104CB00095E033DE21E0892B09F420E0822F08956E
:104CC000EAE6F5E01382128288EE93E0A0E0B0E01D
:104CD00084839583A683B78389E193E0918380835E
:104CE00085EC90E09587848784EC90E097878687B1
:104CF00080EC90E0918B808B81EC90E0938B828BA9
:104D000082EC90E0958B848B86EC90E0978B868B81
:104D1000118E128E138E148E0895089567D1FDDFC3
:104D20000E945306CAECD4E20E9476062097E1F373
:104D300031DEFACFCF92DF92EF92FF920F931F9363
:104D4000CF93DF936C017A018B01C0E0D0E0CE15E8
:104D5000DF0581F0D8016D918D01D601ED91FC91B7
:104D60000190F081E02DC6011995892B11F0219653
:104D7000EECF7E01C701DF91CF911F910F91FF9080
:104D8000EF90DF90CF9008956115710579F0FB01E8
:104D900001900020E9F73197AF01461B570BDC016A
:104DA000ED91FC910280F381E02D199480E090E078
:104DB0000895EF92FF920F931F93CF93DF938C018F
:104DC0007B01C0E0D0E0F701EC0FFD1F649166238A
:104DD00061F0D801ED91FC910190F081E02DC801C6
:104DE0001995892B11F02196EECFCE01DF91CF914D
:104DF0001F910F91FF90EF900895DC01ED91FC91D0
:104E00000190F081E02D199467E273E0BDCF0F931C
:104E10001F93CF93DF93EC01CCDF8C01CE01F4DF45
:104E2000800F911FDF91CF911F910F9108950F93E4
:104E30001F93CF93DF93EC01A7DF8C01CE01E4DF5A
:104E4000800F911FDF91CF911F910F9108950F93C4
:104E50001F93CF93DF93EC01D0DF8C01CE01D4DF21
:104E6000800F911FDF91CF911F910F9108951F9295
:104E70000F920FB60F9211242F933F938F939F930E
:104E8000AF93BF938091080690910906A0910A06FE
:104E9000B0910B063091070623E0230F2D3720F445
:104EA0000196A11DB11D05C026E8230F0296A11D84
:104EB000B11D209307068093080690930906A093DE
:104EC0000A06B0930B0680910C0690910D06A091F6
:104ED0000E06B0910F060196A11DB11D80930C0620
:104EE00090930D06A0930E06B0930F06BF91AF915D
:104EF0009F918F913F912F910F900FBE0F901F9018
:104F000018952FB7F8946091080670910906809162
:104F10000A0690910B062FBF08953FB7F894809131
:104F20000C0690910D06A0910E06B0910F0626B5C5
:104F3000A89B05C02F3F19F00196A11DB11D3FBFD1
:104F4000BA2FA92F982F8827820F911DA11DB11D5F
:104F5000BC01CD0142E0660F771F881F991F4A955B
:104F6000D1F708958F929F92AF92BF92CF92DF9226
:104F7000EF92FF926B017C01D0DF4B015C01C11409
:104F8000D104E104F104F1F0E5D2C7DFDC01CB018B
:104F900088199909AA09BB09883E9340A105B10562
:104FA00070F321E0C21AD108E108F10888EE880EFA
:104FB00083E0981EA11CB11CC114D104E104F104CA
:104FC00021F7DDCFFF90EF90DF90CF90BF90AF90B3
:104FD0009F908F9008958230910538F0880F991F27
:104FE000880F991F05970197F1F70895789484B574
:104FF000826084BD84B5816084BD85B5826085BDD5
:1050000085B5816085BDEEE6F0E0808181608083BA
:10501000E1E8F0E01082808182608083808181609D
:105020008083E0E8F0E0808181608083E1EBF0E064
:10503000808184608083E0EBF0E080818160808308
:10504000E1E9F0E0808182608083808181608083FB
:10505000E0E9F0E0808181608083E1EAF0E0808136
:1050600082608083808181608083E0EAF0E08081DB
:1050700081608083E1E2F1E08081826080838081D1
:1050800081608083E0E2F1E0808181608083EAE7F3
:10509000F0E0808184608083808182608083808171
:1050A000816080838081806880831092C100089530
:1050B00090E0FC013197E231F10508F04DC08827FE
:1050C000EE58FF4F8F4F69C2809180008F7703C0E9
:1050D000809180008F7D8093800008958091800072
:1050E000877FF9CF84B58F7702C084B58F7D84BD6B
:1050F00008958091B0008F7703C08091B0008F7DBC
:105100008093B0000895809190008F7707C08091C0
:1051100090008F7D03C080919000877F80939000E6
:1051200008958091A0008F7707C08091A0008F7DA7
:1051300003C08091A000877F8093A0000895809194
:1051400020018F7707C0809120018F7D03C080915F
:105150002001877F809320010895CF93DF9390E013
:10516000FC01E25AF44F2491FC01EC55F44F849178
:10517000882361F190E0880F991FFC01E25EF34FF4
:10518000C591D491FC01EC5FF34FA591B4916111ED
:1051900009C09FB7F8948881209582238883EC9179
:1051A0002E230BC0623061F49FB7F8948881322FB0
:1051B000309583238883EC912E2B2C939FBF06C0C0
:1051C0008FB7F894E8812E2B28838FBFDF91CF9182
:1051D00008951F93CF93DF93282F30E0F901E85E05
:1051E000F44F8491F901E25AF44FD491F901EC554E
:1051F000F44FC491CC23B9F0162F811159DFEC2F55
:10520000F0E0EE0FFF1FEC5FF34FA591B4919FB755
:10521000F894111104C08C91D095D82302C0EC9160
:10522000DE2BDC939FBFDF91CF911F910895CF9329
:10523000DF93282F30E0F901E85EF44F8491F90103
:10524000E25AF44FD491F901EC55F44FC491CC23B8
:1052500089F081112DDFEC2FF0E0EE0FFF1FE651FA
:10526000F44FA591B491EC91ED2381E090E021F40D
:1052700080E002C080E090E0DF91CF910895FC01D2
:1052800080819181009709F028C20895CF93DF9320
:10529000EC0188819981009709F01FD21982188248
:1052A0001D821C821B821A82DF91CF9108950F9379
:1052B0001F93CF93DF93EC018B016F5F7F4F88814A
:1052C000998194D2009731F0998388831B830A8354
:1052D00081E001C080E0DF91CF911F910F9108958F
:1052E000CF93DF93EC0188819981892B29F08A8102
:1052F0009B818617970758F4CE01D9DF882341F0A8
:105300008C819D81892B19F4E881F981108281E0DB
:10531000DF91CF910895EF92FF920F931F93CF9358
:10532000DF93EC017B018A01BA01DADF811103C04E
:10533000CE01ACDF06C01D830C83B7018881998143
:105340005AD3CE01DF91CF911F910F91FF90EF9033
:105350000895FC0111821082138212821582148238
:105360006115710549F0FB0101900020E9F73197C3
:10537000AF01461B570BCFCF0895CF93DF93EC01BE
:10538000FB018617970751F06081718161157105E6
:1053900021F044815581BFDF01C078DFCE01DF916C
:1053A000CF910895FC01118210821382128215821E
:1053B0001482E3CFCF93DF93EC016115710551F0B7
:1053C000FB0101900020E9F73197AF01461B570B15
:1053D000A2DF01C05BDFCE01DF91CF9108950F9373
:1053E0001F93CF93DF93CDB7DEB729970FB6F8940D
:1053F000DEBF0FBECDBF8C01862FF8011182108257
:10540000138212821582148250E0BE016F5F7F4FBB
:1054100090E0F8D2BE016F5F7F4FC801CBDF2996C5
:105420000FB6F894DEBF0FBECDBFDF91CF911F91B5
:105430000F910895EF92FF920F931F93CF93DF93F5
:105440006115710511F480E01AC041155105B1F0E4
:105450007B01EC018C819D818A01080F191FB80125
:10546000CE013EDF882379F3288139818C819D81AB
:10547000B701820F931FBFD21D830C8381E0DF91A0
:10548000CF911F910F91FF90EF900895FB01448100
:10549000558160817181CECF6115710549F0FB01A5
:1054A00001900020E9F73197AF01461B570BC2CF9F
:1054B00080E00895CF93DF93DC01ED91FC91EB0147
:1054C000A881B981309711F01097C9F4109759F05D
:1054D000EB012C813D81232B31F08C9190E0919553
:1054E0008195910913C0309779F0DC0114968D9164
:1054F0009C911597892B41F0808190E007C0BD01F8
:10550000CF01DF91CF916EC280E090E0DF91CF912B
:105510000895FC0144815581FB01248135814217A6
:10552000530721F4C7DF21E0892B09F020E0822F07
:105530000895CF93DF93FC01C081D181209739F08A
:105540008881882321F090E035D28993F9CFDF91CB
:10555000CF9108950895A1E21A2EAA1BBB1BFD014D
:105560000DC0AA1FBB1FEE1FFF1FA217B307E40742
:10557000F50720F0A21BB30BE40BF50B661F771F9A
:10558000881F991F1A9469F760957095809590957A
:105590009B01AC01BD01CF010895EE0FFF1F881FD5
:1055A0008BBF0790F691E02D19940F931F93CF9323
:1055B000DF938230910510F482E090E0E0911206D2
:1055C000F091130620E030E0A0E0B0E0309719F150
:1055D000408151810281138148175907C8F084170F
:1055E000950769F4109731F012960C931297139661
:1055F0001C9327C0009312061093130622C0211596
:10560000310519F04217530718F49A01BD01EF0153
:10561000DF01F801DBCF21153105F9F0281B390B2B
:105620002430310580F48A819B816115710521F058
:10563000FB019383828304C0909313068093120628
:10564000FE01329644C0FE01E20FF31F8193919355
:1056500022503109398328833AC0209110063091B5
:105660001106232B41F42091020230910302309362
:10567000110620931006209100023091010221159D
:10568000310541F42DB73EB7409104025091050217
:10569000241B350BE0911006F0911106E217F30779
:1056A000A0F42E1B3F0B2817390778F0AC014E5F92
:1056B0005F4F2417350748F04E0F5F1F50931106B8
:1056C000409310068193919302C0E0E0F0E0CF0197
:1056D000DF91CF911F910F910895CF93DF930097A2
:1056E00009F481C0FC01329713821282A091120644
:1056F000B0911306109781F420813181820F931F9E
:1057000020911006309111062817390751F5F093B2
:105710001106E093100667C0ED0120E030E0CE17DF
:10572000DF0740F44A815B819E0141155105F1F08C
:10573000EA01F5CFD383C28340815181840F951F45
:10574000C817D90759F488819981840F951F02964B
:10575000918380838A819B81938382832115310584
:1057600029F4F0931306E09312063DC0E901FB8390
:10577000EA8349915991C40FD51FEC17FD0761F4D5
:1057800080819181840F951F0296E9019983888316
:10579000828193819B838A83E0E0F0E012968D9171
:1057A0009C911397009719F0FD01DC01F7CF8D91C3
:1057B0009C9111979D012E5F3F4F820F931F209167
:1057C0001006309111062817390769F4309729F42B
:1057D000109213061092120602C013821282B09326
:1057E0001106A0931006DF91CF9108956F927F92DA
:1057F0008F929F92AF92BF92CF92DF92EF92FF92E1
:105800000F931F93CF93DF93009781F4CB01DF9128
:10581000CF911F910F91FF90EF90DF90CF90BF90AD
:10582000AF909F908F907F906F90BFCEFC01E60F5E
:10583000F71F9C0122503109E217F30708F4A5C0B5
:10584000EC01D9010D911C91119706171707A8F0CB
:105850000530110508F497C0C8010497861797070B
:1058600008F491C002501109061B170B0193119304
:105870006D937C93CF0131DF86C05B01A01AB10A22
:105880004C01800E911EA0911206B0911306612C5E
:10589000712CE12CF12C109709F446C08D919C914C
:1058A0001197A815B905B1F56C0142E0C40ED11CE1
:1058B000CA14DB0478F14C018A189B08640142E0A9
:1058C000C40ED11C1296BC9012971396AC91B5E001
:1058D000CB16D10440F0B282A38391828082D90199
:1058E0006D937C9309C00E5F1F4F800F911FF901CC
:1058F00091838083EB2DFA2FE114F10431F0D7016D
:105900001396FC93EE9312973EC0F0931306E09328
:10591000120639C06816790608F43C017D0112961A
:105920000D90BC91A02DB7CF8091100690911106DB
:1059300088169906E1F466167706C8F4809100028D
:1059400090910102009741F48DB79EB740910402F7
:1059500050910502841B950BE817F907B0F4F093FA
:105960001106E0931006F901718360830CC0CB012E
:105970001CDE7C01009749F0A801BE0123D0CE01B6
:10598000ACDEC70104C0CE0102C080E090E0DF9130
:10599000CF911F910F91FF90EF90DF90CF90BF902C
:1059A000AF909F908F907F906F90089581E090E0EE
:1059B000F8945BC09111089581568A5108F4805281
:1059C00085580895FB01DC0102C001900D92415001
:1059D0005040D8F70895DC0101C06D93415050400C
:1059E000E0F70895FB01DC018D9101908019011011
:1059F000D9F3990B0895FB01DC0101900D92002071
:105A0000E1F708954532510518F4423008F004C01A
:105A1000FB011082CB010895BB27FB015527AA2764
:105A2000880F991FAA1FA41710F0A41B839550512B
:105A3000B9F7A05DAA3308F0A95DA193009779F7A3
:105A4000B111B1931192CB0100C0DC01FC01672FB1
:105A500071917723E1F7329704C07C916D93708345
:105A60006291AE17BF07C8F3089516E0C0E2D6E012
:105A700000E005C0802FFE0190DD2196011DC1329E
:0C5A8000D10780E00807B1F7F894FFCFD1
:105A8C000000140620001B001A0019001800170053
:105A9C001600242526272021222331323341343588
:105AAC003642373839432A30234444752076616CAA
:105ABC006774653A20410044752076616C677465A3
:105ACC003A20420044752076616C6774653A204335
