S01C00004465745F496E74656C6C6967656E74655F4875732E7372656319
S113000048C6000077C6000075C6000073C600002D
S113001071C600006FC600006DC600006BC600000C
S113002069C6000067C6000065C6000063C600001C
S113003061C600005FC600005DC600005BC600002C
S113004059C600000C94ED2655C6000053C60000A6
S11300500C94D3274FC600004DC600000C941633F1
S113006049C600000C945B300C94913043C60000E8
S113007041C600003FC600003DC600003BC600006C
S11300800C94192737C6000035C600000C94FE27CF
S113009031C600002FC600002DC600000C94C12AF2
S11300A029C6000027C600000C94452723C600007B
S11300B021C600001FC600001DC600000C94712755
S11300C019C6000017C6000015C6000013C60000BC
S11300D011C600000FC600000DC600000BC60000CC
S11300E009C60000823487348C349634A034193520
S11300F0AA34B234BA34C434CE34D834E734F13404
S11301001935FB3405350F353C353F352E35323541
S113011038357635433547354D35513555355B35AD
S11301205F356335763569356D357135250048752C
S11301306D69646974793A200054656D7065726103
S11301407475723A20005353443133303620616C55
S11301506C6F636174696F6E206661696C656400BD
S1130160433A2048756D696469747900423A2054B1
S1130170656D7072657475726500413A2054696DDD
S11301806520616E642044617465004D656E750080
S113019000000000003E5B4F5B3E3E6B4F6B3E1C1D
S11301A03E7C3E1C183C7E3C181C577D571C1C5E34
S11301B07F5E1C00183C1800FFE7C3E7FF0018240B
S11301C01800FFE7DBE7FF30483A060E26297929B5
S11301D026407F050507407F05253F5A3CE73C5AEA
S11301E07F3E1C1C08081C1C3E7F14227F22145FC7
S11301F05F005F5F06097F017F006689956A606022
S113020060606094A2FFA29408047E040810207E1B
S1130210201008082A1C08081C2A08081E101010A0
S1130220100C1E0C1E0C30383E3830060E3E0E06E6
S1130230000000000000005F000000070007001439
S11302407F147F14242A7F2A1223130864623649F8
S11302505620500008070300001C224100004122E0
S11302601C002A1C7F1C2A08083E080800807030E5
S11302700008080808080000606000201008040254
S11302803E5149453E00427F40007249494946215A
S113029041494D331814127F1027454545393C4ACE
S11302A049493141211109073649494936464949E5
S11302B0291E00001400000040340000000814222D
S11302C0411414141414004122140802015909069B
S11302D03E415D594E7C1211127C7F494949363E9C
S11302E0414141227F4141413E7F494949417F0982
S11302F00909013E414151737F0808087F00417F8D
S113030041002040413F017F081422417F4040408A
S1130310407F021C027F7F0408107F3E4141413E22
S11303207F090909063E4151215E7F0919294626A4
S11303304949493203017F01033F4040403F1F20A8
S113034040201F3F4038403F63140814630304787F
S113035004036159494D43007F414141020408109F
S113036020004141417F04020102044040404040DA
S1130370000307080020545478407F284444383848
S113038044444428384444287F38545454180008BA
S11303907E090218A4A49C787F0804047800447D94
S11303A040002040403D007F1028440000417F4031
S11303B0007C047804787C08040478384444443885
S11303C0FC1824241818242418FC7C080404084865
S11303D05454542404043F44243C4040207C1C20B6
S11303E040201C3C4030403C44281028444C909011
S11303F0907C4464544C440008364100000077006B
S113040000004136080002010204023C2623263C77
S11304101EA1A161123A4040207A38545455592102
S113042055557941225454784221555478402054EA
S11304305579400C1E527212395555555939545438
S1130440545939555454580000457C410002457DA7
S1130450420001457C407D1211127DF0282528F0D0
S11304607C545545002054547C547C0A097F4932FD
S1130470494949323A4444443A324A4848303A4174
S113048041217A3A42402078009DA0A07D3D42421D
S1130490423D3D4040403D3C24FF2424487E4943A6
S11304A0662B2FFC2F2BFF0929F620C0887E090319
S11304B020545479410000447D413048484A323840
S11304C04040227A007A0A0A727D0D19317D26296C
S11304D0292F28262929292630484D402038080864
S11304E0080808080808382F10C8ACBA2F10283498
S11304F0FA00007B000008142A142222142A14088B
S11305005500550055AA55AA55AAFF55FF55FF0099
S11305100000FF00101010FF00141414FF0010104E
S1130520FF00FF1010F010F0141414FC001414F762
S113053000FF0000FF00FF1414F404FC141417104F
S11305401F10101F101F1414141F00101010F0009F
S11305500000001F101010101F10101010F01000D9
S11305600000FF101010101010101010FF100000E9
S113057000FF140000FF00FF00001F10170000FC24
S113058004F414141710171414F404F40000FF00F6
S1130590F714141414141414F700F714141417147F
S11305A010101F101F141414F4141010F010F00085
S11305B0001F101F0000001F14000000FC140000A6
S11305C0F010F01010FF10FF141414FF141010108A
S11305D01F00000000F010FFFFFFFFFFF0F0F0F03D
S11305E0F0FFFFFF0000000000FFFF0F0F0F0F0FD1
S11305F03844443844FC4A4A4A347E02020606021D
S11306007E027E0263554941633844443C04407E83
S1130610201E2006027E020299A5E7A5991C2A49FC
S11306202A1C4C7201724C304A4D4D303048784887
S113063030BC625A463D3E494949007E0101017E73
S11306402A2A2A2A2A44445F444440514A444040C6
S1130650444A51400000FF0103E080FF0000080805
S11306606B6B083612362436060F090F0600001885
S1130670180000001010003040FF0101001F0101AC
S11306801E00191D1712003C3C3C3C0000000000F9
S11306902200FF2100000103070F1F3F7F0080C0DD
S11306A0E0F0F8FCFEDB40A4A62EAF2000A1C8D3E6
S11306B000408DAED580A80000600000000000005E
S11306C00000000000000000E00000000000000046
S11306D000000000000001E0000000000000000035
S11306E0000000000001F000000000000000000015
S11306F00000000003F00000000000000000000003
S113070000000007F00000000000000000000000EE
S1130710000007F8000000000000000000000000D6
S1130720000FF800000003C0007E000001E0007F1D
S11307300FF800000003C000FE000001E000FFEF1E
S1130740F800000003C000FE000001E000FFFFF815
S113075000000003C000F00000000F007FFE7FC017
S1130760000003C000F00000000F003FFE7FF83FD0
S1130770F1FBCFFCFEF3BC3DEFE01FFE7FFF7FFBF0
S1130780FFDFFEFEFFBC3DEFE01FC6FFFF7FFBFF68
S1130790DFFEFEFFBC3DEFE00FE3C7FE787BC3DE68
S11307A01EF0FFBC3DEF0007FF87FC787BC3DE1E15
S11307B0F0F83C3DEF0001FFFFF0007BC3C01EF0EA
S11307C0F03C3DEF0001F37FE03FFBC3CFFEF0F0D0
S11307D03C3DEF0003E33F807FFBC3DFFEF0F03CD2
S11307E03DEF0007E73C00787BC3DE1EF0F03C3DA4
S11307F0EF0007FFBE00787BC3DE1EF0F03C3DEF48
S11308000007FFFE00787BC3DE1EF0F03C3DEF00E6
S11308100FFFFE007FFBFFDFFEF0F03FFDEFE00F78
S1130820FFFF007FFBFFDFFEF0F03FFDEFE00FF97D
S1130830FF003E79F9CF9EF0F01F3DE7E01FF1FF86
S11308400000000000000000000000001F80FF0006
S11308507FFFFFFFFFFFFFFFFFFFE01C007F007F24
S1130860FFFFFFFEB46D888D18E000001F007FFFBE
S1130870FFFFFE95AD7DB577E000000F007FFFFF21
S1130880FFFEA5AD9D8D19E0000006007FFFFFFF70
S1130890FEB5ADEDB57EE000000000000180000073
S11308A000000000000000038000000000000000C1
S11308B0000007C000000000000000000007C000A6
S11308C000000000000000000FC000000000000055
S11308D00000001FE00000000000000000001FE016
S11308E00000000000000000003FE00000000000E5
S11308F0000000003FF00000000000000000007F46
S1130900F0000000000000001FF87FF0000000006D
S11309100000003FFE7FF0000000000000003FFFE9
S11309207FF0000000000000001FFFFBE00000005B
S1130930000000000FFFF9FFC00000000000000FDE
S1130940FFF9FFF800000000000007FFF1FFFF00BF
S1130950000000000003FC73FFFF800000000000A3
S113096001FE3FFFFF80000000000000FF1E0FFF9C
S1130970000000000000007FFE1FFC0000000000DB
S113098000003FFFFFF8000000000000000FDFFF41
S1130990E0000000000000001F19FFC0000000007C
S11309A00000003F3CFF00000000000000007E7CCF
S11309B0F800000000000000007FFE7C0000000042
S11309C000000000FFFFFC0000000000000000FF2A
S11309D0FFFE0000000000000000FFFFFE0000001A
S11309E00000000001FFEFFE000000000000000115
S11309F0FFCFFE0000000000000003FF07FE000020
S1130A00000000000003FC07FE00000000000000DE
S1130A1003F003FE00000000000000018000FE005F
S1130A200000000000000000007E00000000000044
S1130A30000000003E000000000000000000000C68
S1130A40000000000000078000FC000003C000005C
S1130A5000078001FC000003C0000000078001FCC7
S1130A60000003C0000000078001E00000001E0039
S1130A700000078001E00000001E007FE3F79FF9FB
S1130A80FDE7787BDFC0FFF7FFBFFDFDFF787BDF6D
S1130A90C0FFF7FFBFFDFDFF787BDFC0F0F787BC29
S1130AA03DE1FF787BDE00F0F787BC3DE1F0787B29
S1130AB0DE0000F787803DE1E0787BDE007FF7878A
S1130AC09FFDE1E0787BDE00FFF787BFFDE1E07882
S1130AD07BDE00F0F787BC3DE1E0787BDE00F0F7D9
S1130AE087BC3DE1E0787BDE00F0F787BC3DE1E0C8
S1130AF0787BDE00FFF7FFBFFDE1E07FFBDFC0FF97
S1130B00F7FFBFFDE1E07FFBDFC07CF3F39F3DE136
S1130B10E03E7BCFC00000000000000000000000A9
S1130B20FFFFFFFFFFFFFFFFFFFFC0FFFFFFFFFD12
S1130B3068DB111A31C0FFFFFFFFFD2B5AFB6AEF80
S1130B40C0FFFFFFFFFD4B5B3B1A33C0FFFFFFFFFE
S1130B50FD6B5BDB6AFDC01F1C1F1E1F1E1F1F1EBB
S1130B601F1E1F00000A0B02090C0D0E08070304C8
S1130B700100000000000000000000000000000070
S1130B80000000000000000000000000000000124F
S1130B901110000000000000000000000000000030
S1130BA000000000000000000001021020200808DE
S1130BB010204010204080020102010804020101BB
S1130BC002040810204080804020100804020180A4
S1130BD004020180402010080402010804020101FB
S1130BE002040810204080010204081020408005FF
S1130BF0050505070508080808020202020A0A0892
S1130C0008040404040101010101010101030303B7
S1130C100303030303040707070C0C0C0C0C0C0C54
S1130C200C0202020206060606060606060B0B0B5B
S1130C300B0B0B0B0B000020002300260029002CBB
S1130C40002F003200000100000301060109010029
S1130C50002200250028002B002E00310034000261
S1130C60010000050108010B0100002100240027F8
S1130C70002A002D003000330001010000040107A8
S1130C80010A01001C07F707160AAD0B4E2DC330ED
S1130C904C0A11241FBECFEFD1E2DEBFCDBF00E06E
S1130CA00CBF13E0A0E0B2E0E0E7F6E700E00BBF22
S1130CB002C007900D92AC33B107D9F726E0ACE33C
S1130CC0B3E001C01D92A734B207E1F716E0C8E40F
S1130CD0D6E000E006C021970109802FFE010E94A2
S1130CE0A638C234D10780E00807A9F70E94F13082
S1130CF00C94273B85C960E08CE393E00C94331B90
S1130D0040E060E08CE393E00C949F1AC9D3FBD1DC
S1130D100AD20DC2F9D3FFD106D201C243D4F7D10E
S1130D20FED105C24F925F926F927F928F929F92F3
S1130D30AF92BF92CF92DF92EF92FF92E1DF6B010D
S1130D407C012091060230910702409108025091E3
S1130D50090260910A0270910B0280910C02909139
S1130D600D020E946A2D9B01AC01C701B6010E94CD
S1130D70CF2D87FDCBDF20910602309107024091F1
S1130D8008025091090260910A0270910B0280914D
S1130D900C0290910D020E946B2D9B01AC01C701C6
S1130DA0B6010E94852E18160CF4B4DF80900A0256
S1130DB090900B02A0900C02B0900D02409006029D
S1130DC0509007026090080270900902A3019201FA
S1130DD0C501B4010E946A2D9B01AC01C701B60193
S1130DE00E94852E1816DCF4A3019201C501B401FA
S1130DF00E946B2D9B01AC01C701B6010E94CF2D4F
S1130E0087FF0DC0FF90EF90DF90CF90BF90AF9021
S1130E109F908F907F906F905F904F907FCFFF90C7
S1130E20EF90DF90CF90BF90AF909F908F907F9086
S1130E306F905F904F90089526E04BE062E08CE362
S1130E4093E00C942C19CF92DF92EF92FF926B01F6
S1130E507C018FE493E00E94942069E371E08FE4C5
S1130E6093E00E943C3120E030E0B701A6018FE41A
S1130E7093E00E9415336FED8FE493E0FF90EF90C1
S1130E80DF90CF900C946131CF92DF92EF92FF927A
S1130E906B017C018FE493E00E9494206EE271E088
S1130EA08FE493E00E943C3120E030E0B701A601DA
S1130EB08FE493E00E9415336CE271E08FE493E0D9
S1130EC0FF90EF90DF90CF900C943C31EF92FF9223
S1130ED00F931F93CF93DF93CDB7DEB72C970FB645
S1130EE0F894DEBF0FBECDBFE982FA820B831C8368
S1130EF02D833E834F838FE493E00E949420898165
S1130F009A810E945C2D4AE050E0BC018FE493E09A
S1130F100E94383269E372E08FE493E00E9460310A
S1130F208B8190E00E945C2D4AE050E0BC018FE48C
S1130F3093E00E94383269E372E08FE493E00E9408
S1130F4060318C8190E00E945C2D4AE050E0BC014D
S1130F508FE493E00E9438326BE372E08FE493E015
S1130F600E94603141E060E08FE493E00E949A20A7
S1130F708D8190E00E945C2D4AE050E0BC018FE43A
S1130F8093E00E9438326DE372E08FE493E00E94B4
S1130F9060318E8190E00E945C2D4AE050E0BC01FB
S1130FA08FE493E00E9438326DE372E08FE493E0C3
S1130FB00E9460318F8190E00E945C2D4AE050E0F5
S1130FC0BC018FE493E00E9438326FE273E08FE457
S1130FD093E02C960FB6F894DEBF0FBECDBFDF9121
S1130FE0CF911F910F91FF90EF900C946031CF92AD
S1130FF0EF920F93C0900E02E09010020091120243
S11310002091140240911602609118028FE493E03B
S11310100E944D210F91EF90CF900895AF92BF920F
S1131020CF92DF92EF92FF920F931F93CF9386E3B9
S11310300E943734BC01990F880B990B1F921F92A1
S11310401F92CFEFCF93A12CB12C6501EE24EA942B
S113105013E0F12E00E010E020E030E0A9010E944E
S1131060093670936C0360936B0387E30E943734F3
S1131070BC01990F880B990B1F921F921F92CF935B
S113108020E030E0A9010E94093670936A0360935E
S1131090690388E30E943734BC01990F880B990BCC
S11310A01F921F921F92CF9320E030E0A9010E946B
S11310B00936709368036093670360916B037091C2
S11310C06C038AE20E945C346091690370916A0344
S11310D08BE20E945C348DB79EB70C960FB6F894E1
S11310E09EBF0FBE8DBF60916703709168038CE251
S11310F0CF911F910F91FF90EF90DF90CF90BF9011
S1131100AF900C945C3461E089E00C94B33561E0F9
S113111087E00C94B33561E088E00C94B33560E06B
S113112089E00C94B33560E087E00C94B33560E05B
S113113088E00C94B3350F9326E040E855E260E074
S113114070E08DE995E00E94F62F0E949D2783E2CE
S113115094E00E94E82267E38CE393E00E944D1937
S113116020E042E060E18FE493E00E94B3208DE64A
S113117093E00E94C51C80E180938100109280005E
S113118081E08093CE0480E590E09093D004809336
S1131190CF04909387008093860081E1809381003F
S11311A001E021E04CE362E083EE93E00E94D61478
S11311B0811107C066E471E08DE995E00E946B310E
S11311C0FFCF61E08AE20E94773561E08BE20E9402
S11311D0773561E08CE20E94773561E089E00E9416
S11311E0773561E087E00E94773561E088E00E940E
S11311F0773583EE93E00E94B8148FE493E00F9167
S11312000C9494208F929F92AF92BF92EF92FF9290
S11312100F931F93CF93DF93CDB7DEB762970FB6CB
S1131220F894DEBF0FBECDBF80917E03882309F4FE
S11312304FC00E9460334B015C0186D08FE793E07E
S11312400E94D81F182F882349F0682F8DE995E054
S11312500E948B316DE773E0812FB8D080917903C0
S113126090917A03A0917B03B0917C03B501A40112
S1131270481B590B6A0B7B0B80911A0290911B023D
S1131280A0911C02B0911D02481759076A077B07F9
S1131290E8F080917D038823C9F0CE0101960E9475
S11312A0512DE980FA800B811C812D813E814F8173
S11312B0588569857A858B859C8508DE80927903BB
S11312C090927A03A0927B03B0927C03A7DE2ADD7E
S11312D080917E03811127C083E294E00E94F82567
S11312E0882309F183E294E00E9471218823D9F0D4
S11312F0CE010D96A5D1BE01635F7F4FCE0101964D
S11313000E94DB366EE773E0CE010196E5D1CE0193
S113131001960E94483683EE93E00E94B814CE01F1
S11313200D960E94483662960FB6F894DEBF0FBE43
S1131330CDBFDF91CF911F910F91FF90EF90BF90A0
S1131340AF909F908F900895CF93DF9383EE93E0B7
S11313500E94B81461E083EE93E00E944F12C3EE42
S1131360D3E081E090E09B8B8A8B998B888B1D86E0
S11313701C861F861E866BE871E0CE010E946B31CD
S11313801D861C868AE090E09F878E876AE771E05D
S1131390CE010E946B311D861C8684E190E09F87FC
S11313A08E876CE671E0CE010E946B311D861C862F
S11313B08EE190E09F878E8760E671E0CE010E9407
S11313C06B31CE01DF91CF910C943D18CF93DF9315
S11313D0EB018234B1F08334E9F0813421F56FE319
S11313E072E08DE995E00E947B3181E088834AE0D8
S11313F050E061E070E08DE995E0DF91CF910C94CD
S11314003E326CE472E08DE995E00E947B3178DC39
S11314101ADD08C069E572E08DE995E00E947B3130
S11314206ADC32DD1882DF91CF9108958F929F920A
S1131430AF92BF92CF92DF92EF92FF920F9380EA26
S1131440882E86E8982EAA24A394B12C90E8C92E5D
S11314509AE1D92E96E0E92EF12C04E027E435E058
S113146040E460E883EE93E00E94151324E0E22E4A
S11314702EE132E042E252E066E272E08FE793E06E
S11314800E94F81C0F91FF90EF90DF90CF90BF90D7
S1131490AF909F908F90089583EE93E00C945F1328
S11314A0809136028B3069F461E00E947735809137
S11314B080008068809380001092890010928800D8
S11314C01DC08C3069F461E00E9477358091800002
S11314D080628093800010928B0010928A000EC06C
S11314E08D3061F461E00E947735809180008860DE
S11314F08093800010928D0010928C008091CE0415
S11315008061809381000895CF93C0913602CB30DF
S113151041F461E08BE00E9477358091800080681F
S113152013C0CC3041F461E08CE00E9477358091A7
S11315308000806209C0CD3049F461E08DE00E94F2
S11315407735809180008860809380002091CF045B
S11315503091D004A8EEB3E00E94AE38DC01CB0198
S11315602AE0B695A795979587952A95D1F7CB301C
S113157029F490938900809388000DC0CC3029F41D
S113158090938B0080938A0006C0CD3021F4909311
S11315908D0080938C008091CE04806180938100C3
S11315A0CF910895CF93C0913602CB3041F461E0DE
S11315B08BE00E94773580918000806813C0CC3026
S11315C041F461E08CE00E94773580918000806274
S11315D009C0CD3049F461E08DE00E9477358091F7
S11315E080008860809380002091CF043091D004E3
S11315F0A4EFB1E00E94AE38DC01CB012AE0B6953D
S1131600A795979587952A95D1F7CB3029F4909390
S11316108900809388000DC0CC3029F490938B000E
S113162080938A0006C0CD3021F490938D0080937E
S11316308C008091CE04806180938100CF910895C5
S1131640CF92DF92FF920F931F93CF93DF9300D03B
S113165000D0CDB7DEB78C016FE273E00E94B236E2
S1131660F12C80912504F81628F58F2D90E09C012B
S11316702D5D3B4F6901F9018381803118F06BE3E3
S113168072E002C066E672E0C8010E94553740E18C
S1131690F6016381CE0101960E94F836BE016F5FA8
S11316A07F4FC8010E944F37CE0101960E944836F1
S11316B0F394D7CFC8010E94A237C80126960FB66B
S11316C0F894DEBF0FBECDBFDF91CF911F910F9174
S11316D0FF90DF90CF900895EF92FF920F931F93A6
S11316E0CF93DF9300D000D0CDB7DEB77C018B0160
S11316F069E672E0CE0101960E94B236BE016F5FC8
S11317007F4FC7010E949237882331F081E0F801AE
S1131710808366E772E00CC0BE016F5F7F4FC70134
S11317200E949237811108C0F801108263E872E0C8
S11317308DE995E00E947B31CE0101960E944836E6
S113174026960FB6F894DEBF0FBECDBFDF91CF91C2
S11317501F910F91FF90EF90089545E065E383E2B8
S113176094E00C94D6212091CA04222399F04FB717
S1131770F8942091CA04213059F42DB32093C8045D
S11317803DB32091C904209523232DBB4FBF02C034
S11317904093C8048CBD9DBD08958091CA048823DC
S11317A061F09FB7F8942091CA048091C804213055
S11317B019F48DBB9FBF08958FBF089580E090E01A
S11317C0089508952F923F924F925F926F927F9265
S11317D08F929F92AF92BF92CF92DF92EF92FF923D
S11317E00F931F93CF93DF9300D000D0CDB7DEB714
S11317F02C017E836D836A015901C801FC82EB824E
S11318004801841A950A97FE03C091948194910823
S113181035012D813E81621A730A77FE03C07194EB
S113182061947108681479045CF43A2D2B2D5C01E1
S1131830832F922F3D812E81DE82CD82C32ED22E24
S1131840AD81BE81AA16BB065CF43C2D2D2D6C0126
S1131850832F922F3D812E81BE82AD82A32EB22E84
S113186085012D813E81021B130B1C012C183D08A0
S113187037FE03C0319421943108780117FF03C067
S11318803FEFE31AF30AF594E794C816D9062CF04F
S11318908FEF9FEF9A83898304C0A1E0B0E0BA83FD
S11318A0A9832D813E81A216B30624F1D201ED91C4
S11318B0FC910484F585E02D2B813C816814790426
S11318C024F44D815E81B60103C0A6016D817E8141
S11318D0C2011995E218F308F7FE06C029813A817E
S11318E0C20ED31EE00EF11E8D819E8101969E8351
S11318F08D83D7CF26960FB6F894DEBF0FBECDBF2B
S1131900DF91CF911F910F91FF90EF90DF90CF90D7
S1131910BF90AF909F908F907F906F905F904F900B
S11319203F902F900895DC01ED91FC910084F185A6
S1131930E02D19940F931F93DC01ED91FC91048C1D
S1131940F58DE02D19951F910F9108950F931F9315
S1131950DC01ED91FC91068CF78DE02D19951F911A
S11319600F910895EF92FF920F931F93DC01ED9175
S1131970FC9100A0F1A1E02D19951F910F91FF900A
S1131980EF90089508958F929F92AF92BF92CF9255
S1131990DF92EF92FF920F931F93CF93DF93EC01AB
S11319A05B014A0169017801E881F9810284F385C8
S11319B0E02D1995C80CD91C860101501109E88144
S11319C0F9810488F589E02D9501A401B501CE01C2
S11319D01995E881F9810688F789E02DCE01DF9118
S11319E0CF911F910F91FF90EF90DF90CF90BF9018
S11319F0AF909F908F9019948F929F92AF92BF92C5
S1131A00CF92DF92EF92FF920F931F93CF93DF93C6
S1131A10EC015B014A016901E881F9810284F385E3
S1131A20E02D199595012C0D3D1D21503109E881BA
S1131A30F9810488F589E02D78018401A401B501B8
S1131A40CE011995E881F9810688F789E02DCE0148
S1131A50DF91CF911F910F91FF90EF90DF90CF9086
S1131A60BF90AF909F908F9019944F925F926F9216
S1131A707F928F929F92AF92BF92CF92DF92EF921A
S1131A80FF920F931F93CF93DF936C012B015A01A5
S1131A9039014801DC01ED91FC910284F385E02DCC
S1131AA01995E201640C751CD601ED91FC91C615E3
S1131AB0D7055CF40088F189E02D87019401A50124
S1131AC0BE01C60119952196EFCF0688F789E02D4E
S1131AD0C601DF91CF911F910F91FF90EF90DF909E
S1131AE0CF90BF90AF909F908F907F906F905F90BA
S1131AF04F901994EF92FF920F931F93DC011A9663
S1131B000D911C911B9718962D913C911997ED916D
S1131B10FC9100A0F1A1E02D7B0140E050E060E0E9
S1131B2070E019951F910F91FF90EF9008958F9297
S1131B309F92AF92BF92CF92DF92EF92FF920F9358
S1131B401F93CF93DF934C016B015A01E901DC0130
S1131B50ED91FC916217730781F40417150724F4BF
S1131B608B2D5801042F182F0A191B0998012F5F78
S1131B703F4F048CF58DE02D12C04017510709F535
S1131B802617370724F48D2D6901C62FD82F9E01FF
S1131B902C193D092F5F3F4F068CF78DE02D8701EF
S1131BA0A501B601C4011995DF91CF911F910F9141
S1131BB0FF90EF90DF90CF90BF90AF909F908F9069
S1131BC008950284F385E02D1995D401ED91FC91DB
S1131BD00488F589E02D9E01A501B601C40119957B
S1131BE0D401ED91FC910688F789E02DC401DF91C1
S1131BF0CF911F910F91FF90EF90DF90CF90BF9006
S1131C00AF909F908F9019946F927F928F929F9232
S1131C10AF92BF92CF92DF92EF92FF920F931F93F6
S1131C20CF93DF93EC014B015A0169013801E8813C
S1131C30F9810284F385E02D1995E881F981028800
S1131C40F389E02D87019601A501B401CE01199510
S1131C50A501460D571D41505109E881F9810288BB
S1131C60F389E02D9601B401CE011995E881F9813B
S1131C700088F189E02D9301A501B401CE011995E5
S1131C80C80CD91CB60161507109E881F98100883A
S1131C90F189E02D9301A501CE011995E881F9811F
S1131CA00688F789E02DCE01DF91CF911F910F9126
S1131CB0FF90EF90DF90CF90BF90AF909F908F9068
S1131CC07F906F9019940895FC016370668B8481F2
S1131CD0958126813781613039F0633029F091870D
S1131CE08087338722870895318720879387828767
S1131CF00895FC011382128285E992E09183808326
S1131D0075836483578346837187608753874287CB
S1131D10168A158614861786168681E0858B848B31
S1131D202FEF3FEF338B228B318B208B878B108EE1
S1131D30128E118E08953F924F925F926F927F920E
S1131D408F929F92AF92BF92CF92DF92EF92FF92C7
S1131D500F931F93CF93DF93CDB7DEB72A970FB6B8
S1131D60F894DEBF0FBECDBF5C017E836D835887C0
S1131D704F8329013701DC01ED91FC910284F38545
S1131D80E02D1995C801079697FD07969C0193E0ED
S1131D90359527959A95E1F73A832983812C912CDF
S1131DA0E12CF12C312C8F8198858E0D9F1D9C8305
S1131DB08B83E614F7040CF03DC01A861986A985B6
S1131DC0BA85A017B10774F5CD0187709927892BBF
S1131DD011F0330C0EC0E985FA85F7FD379683E0E0
S1131DE0F595E7958A95E1F7E80DF91DE40DF51DE4
S1131DF0349037FE11C0D501ED91FC910484F58532
S1131E00E02D96014B815C816D817E8189859A8567
S1131E10680F791FC5011995A985BA851196BA87E6
S1131E20A987CDCFBFEFEB1AFB0A29813A81820E35
S1131E30931EB9CFD501ED91FC910688F789E02D69
S1131E40C5012A960FB6F894DEBF0FBECDBFDF9151
S1131E50CF911F910F91FF90EF90DF90CF90BF90A3
S1131E60AF909F908F907F906F905F904F903F9036
S1131E7019942F923F924F925F926F927F928F921A
S1131E809F92AF92BF92CF92DF92EF92FF920F9305
S1131E901F93CF93DF93CDB7DEB76B970FB6F8944C
S1131EA0DEBF0FBECDBF9B8F8A8F2B015A83498320
S1131EB0D22E198708874701AB82DC0159962D91F0
S1131EC03C915A972115310509F000C118968D915E
S1131ED09C911997681779070CF0E7C11A968D91B0
S1131EE09C911B97481759070CF0DFC12C2C312CFF
S1131EF0FB0126E0C29EE00DF11D1124FD87EC8755
S1131F001E161F060CF0D1C14A2D50E05B874A878C
S1131F1083E0440F551F8A95E1F75F874E878981D7
S1131F209A81840F951F181619060CF0BEC1589695
S1131F308C91811104C06FEA6D1508F4D394AA8DB5
S1131F40BB8DED91FC9111970284F385E02DCD01B9
S1131F501995B5E0DB9EC0011124EC2DF0E0F98B5E
S1131F60E88B92012B5F3F4F3B8B2A8B32015D82C2
S1131F704C82AC01441955095D8B4C8B7B81672FD6
S1131F8070E07F8B6E8B89819A810896998F888FF8
S1131F90EC89FD89E60DF71DE057FE4FD490A98129
S1131FA0BA81BF83AE835D01D0FE16C0AA8DBB8DFE
S1131FB0ED91FC91B1E0CB1209C02B81213031F4B9
S1131FC00484F585E02D2885398519C00684F785B4
S1131FD0E02DE884F9841DC04885598548155905C4
S1131FE011F1AA8DBB8DED91FC91B1E0CB120DC026
S1131FF02B81213051F40484F585E02D9401A50151
S1132000B3018A8D9B8D19950EC00684F785E02D4A
S113201074010A851B8591014E815F816C817D81EC
S11320208A8D9B8D1995D6944E815F816E897F89A7
S1132030460F571F5F834E837FEFA71AB70A888D19
S1132040998DA816B90609F0AFCFAC81BD81E88996
S1132050F989AE0FBF1FBD83AC83FFEF6F1A7F0AF0
S11320602A893B896216730609F092CF48855985FF
S11320704815590509F4F7C0AA8DBB8DED91FC9163
S1132080B1E0CB1212C02B81213079F4B2016B5F25
S11320907F4F0088F189E02D840128E030E04981F8
S11320A05A818A8D9B8D1995DEC06C857D85621958
S11320B073090684F785E02D74010E851F8591014F
S11320C049815A818A8D9B8D1995CDC0F901349629
S11320D0E491DE1AF901329685919491B7E0DB9E82
S11320E0800D911D1124F90125913491398B288B90
S11320F0FC0125903490FC01329674903196A490A2
S1132100329694903196B49031E03C1518F04B819E
S1132110423068F0692D092C000C770B7D836C83A9
S11321208B2D0B2C000C990B9F838E8304C01F8274
S11321301E821D821C82AA8DBB8DED91FC9111978C
S11321400284F385E02DCD011995612CD12C812CCD
S1132150FB81EF2FF0E0FB87EA872C2D30E03D87F1
S11321602C8749815A814B0D511DB7FC5A955D8BC3
S11321704C8BB201690D711D97FC7A957F8B6E8B28
S11321808A1408F070C0282D30E04E815F81420F20
S1132190531FAA85BB85A49FC001A59F900DB49F22
S11321A0900D1124E981FA81E80FF91FFF87EE876A
S11321B0862D912C4C895D89420F531F5B8B4A8B72
S11321C0971408F04DC0BB24B394B80E877041F443
S11321D0C1010196E889F989E20DF31DD4901C012F
S11321E0D7FE3AC051E0C51216C06B81613099F434
S11321F0AA8DBB8DED91FC9111970484F585E02D9A
S1132200288539854A895B896E897F89690D711DA5
S1132210CD01199521C08C819D81890D911DEC857D
S1132220FD858E9FB0018F9F700D9E9F700D1124B0
S1132230640D751DAA8DBB8DED91FC9111970684DB
S1132240F785E02DE884F9840A851B852C853D8576
S11322504E855F85CD011995DD0C93948B2DB0CF00
S1132260670C83948DCFAA8DBB8DED91FC91119752
S11322700688F789E02DCD016B960FB6F894DEBF82
S11322800FBECDBFDF91CF911F910F91FF90EF90C3
S1132290DF90CF90BF90AF909F908F907F906F9082
S11322A05F904F903F902F9019946B960FB6F894CF
S11322B0DEBF0FBECDBFDF91CF911F910F91FF9075
S11322C0EF90DF90CF90BF90AF909F908F907F90D2
S11322D06F905F904F903F902F9008958F929F92B0
S11322E0AF92CF92EF92FF920F931F93CF93DF930E
S11322F0EC01262F898D9A8D009709F041C06A3030
S113230059F41D861C862D898E859F8538E0239F70
S1132310800D911D112442C06D3009F4A8C08F892D
S11323208823C9F03C898C859D8546E0349F800DC7
S1132330911D1124488559854817590764F41D8651
S11323401C863D898E859F8548E0349F800D911DB4
S113235011249F878E87EA88FB88088919894E850E
S11323605F856C857D85AD88CC88CE0182DD2C8926
S11323708C859D8536E0239F800D911D11243EC0E0
S11323806A3079F41D861C862D89FC013896E49107
S11323908E859F852E9F800D911D11249F878E878A
S11323A066C06D3009F463C0FC0134963491631740
S11323B008F45DC03296E491E61708F458C0462F3D
S11323C0431B342FFC0132968590949047E0349F50
S11323D0800C911C1124F401329634913196E491CD
S11323E0332311F0E1110DC0F4013496E4912C89EA
S11323F08C859D85E29F800D911D11249D878C877E
S113240036C0F401359644915F89552319F15C89EE
S1132410E32FF0E0E40FF11D47FDFA955E9FB00154
S11324205F9F700D11244C855D85460F571F68858D
S113243079856417750774F41D861C863D89FC0133
S11324403896E4918E859F853E9F800D911D1124C1
S11324509F878E87EA88FB88088919894E855F855E
S11324606C857D85AD88CC88CE0103DDBDCF81E050
S113247090E0DF91CF911F910F91FF90EF90CF905B
S1132480AF909F908F900895611101C061E0FC01AD
S1132490648B411101C041E0FC01458B0895462F36
S11324A0F3CFFC0177FDB9C0808591856817790762
S11324B00CF0B3C057FDB1C0828593854817590706
S11324C00CF008958689823079F484819581DC0149
S11324D0A61BB70BBD016150710986819781DC0190
S11324E0A41BB50BAD010EC0833009F084C0642772
S11324F07527CA0186279727682779274681578138
S1132500481B590B415051092130310531F048F134
S11325102230310509F44AC00895CA0157FD0796CF
S11325209C01A3E035952795AA95E1F7A481B5818F
S11325302A9FC0012B9F900D3A9F900D1124680F84
S1132540791F078CF0A1E02DE60FF71F4770552780
S113255081E090E001C0880F4A95EAF79081892BC9
S113256048C0CA0157FD07969C0193E0359527950D
S11325709A95E1F7A481B5812A9FC0012B9F900D04
S11325803A9F900D1124680F791F078CF0A1E02D5C
S1132590E60FF71F4770552781E090E001C0880FD0
S11325A04A95EAF780959081892323C0CA0157FD93
S11325B007969C0183E0359527958A95E1F7A481D8
S11325C0B5812A9FC0012B9F900D3A9F900D112435
S11325D0680F791F078CF0A1E02DE60FF71F4770F5
S11325E0552781E090E001C0880F4A95EAF7908171
S11325F0892780830895813009F086CF6427752761
S1132600462757276427752784819581DC01A61BFB
S1132610B70BBD016150710977CF08958EBD0000DD
S11326200DB407FEFDCF8EB508954F925F926F9261
S11326307F928F929F92AF92BF92CF92DF92EF924E
S1132640FF920F93CF93DF93CDB7DEB73C012901FF
S113265050E070E04EDB81EC92E0F30191838083E3
S1132660148E138E4114510411F0C20102C087E488
S113267095E0F301968F858F10A2178E8FEF84A3B8
S113268085A386A387A300A7C5AAD6AAE7AAF0AE06
S113269081AE92AEA3AEB4AE80E586AF17AEDF9145
S11326A0CF910F91FF90EF90DF90CF90BF90AF90BC
S11326B09F908F907F906F905F904F90089521EC42
S11326C032E0FC0131832083878D90A1009711F0C3
S11326D00C945F3908951F93CF93DF93FC01858D8C
S11326E0968D009719F1162FEF0161A1062E000CAB
S11326F0770B0E94D72C8D8D9E8DDC01ED91FC9182
S11327000190F081E02D60E019958D8D9E8DDC01A6
S1132710ED91FC910190F081E02D612F19958D8D43
S11327209E8DDF91CF911F910C944C2DA5A5B6A53C
S11327309C9183A9809589238C93838D948D892B77
S113274029F0862FDF91CF911F9168CF28E030E0E8
S113275080E8A1A5B2A591A9462F482319F04C9170
S1132760942B03C04C91909594239C93A3A5B4A55A
S11327704C9192A9942B9C93A3A5B4A54C9192A996
S1132780909594239C9386952150310911F7DF91FC
S1132790CF911F9108951F93CF93DF93EC01162FD0
S11327A08D8D9E8D009739F04DA95EA96FA978ADE6
S11327B00E94CA2C0FC08B8D9C8D892B21F08EAD6D
S11327C09FAD0E94B30BEFA5F8A990818CA98095C9
S11327D089238083111102C066EA01C067EACE0131
S11327E07ADF8D8D9E8D009749F049AD5AAD6BAD62
S11327F07CADDF91CF911F910C94CA2CEFA5F8A961
S113280090818CA9892B80838B8D9C8D892B29F0B9
S1132810DF91CF911F910C94CD0BDF91CF911F913C
S11328200895BF92CF92DF92EF92FF920F931F937E
S1132830CF93DF93EC01B62E072F142F8D8D9E8D31
S1132840009709F452C069A1062E000C770B0E9470
S1132850D72C8D8D9E8DDC01ED91FC910190F08142
S1132860E02D60E01995CB2CD02EEE24E394F12CCE
S11328708D8D9E8D112371F1B0E2EB16F104B8F049
S11328800E944C2D69A1062E000C770B8D8D9E8D18
S11328900E94D72C8D8D9E8DDC01ED91FC910190D1
S11328A0F081E02D60E01995EE24E394F12C8D8DF8
S11328B09E8DF6016491DC01ED91FC910190F08113
S11328C0E02D1995BFEFEB1AFB0A1150F601319672
S11328D06F01CECFDF91CF911F910F91FF90EF90B9
S11328E0DF90CF90BF900C944C2DEDA5FEA5908168
S11328F08BA9809589238083E62EF72E112371F10D
S1132900F70184912B8D3C8D232B31F087DE115000
S1132910C70101967C01F2CF28E030E040E8E9A548
S1132920FAA599A9582F542319F05081952B03C067
S11329305081909595239083EBA5FCA550819AA98D
S1132940952B9083EBA5FCA550819AA9909595238E
S1132950908346952150310911F7D9CFDF91CF915A
S11329601F910F91FF90EF90DF90CF90BF9008954B
S1132970FC01868197819C01295F3F4F37FF02C08C
S1132980295F3F4F83E0359527958A95E1F7848148
S11329909581289FA001299F500D389F500D112427
S11329A060E070E0878D90A10C94DD3A8F929F9245
S11329B0AF92BF92CF92DF92EF92FF920F931F9349
S11329C0CF93DF93EC01862EB42EA22E902E8F8D02
S11329D098A1892BE9F42E813F81C901079697FDBF
S11329E0079623E0959587952A95E1F72C813D81FB
S11329F0AC01429FC001439F900D529F900D112442
S1132A000E94C73898A38F8F892B11F480E084C16A
S1132A10CE01AEDF8E819F816C817D8181329105F3
S1132A20E4F0AC014054510957FF02C04F5F5F4FBF
S1132A30559547956255710977FF02C06F5F7F4FC7
S1132A4075956795CC24C394D12C80E4E82EF12CA1
S1132A5002E510E027E938E01BC0AC0140525109FF
S1132A6057FF02C04F5F5F4F5595479563577109F4
S1132A7077FF02C06F5F7F4F75956795CC24C39431
S1132A80D12CA0E2EA2EF12C03E710E027EB36E08C
S1132A90CE0151D98AA28D8D9E8D009799F0B110E7
S1132AA007C02E813F812032310521F42CE303C07D
S1132AB02B2D01C02DE329A3992009F42AC10E94DA
S1132AC0BB2C79C061E08EA10E94773561E08FA1B3
S1132AD00E9477358EA1082E000C990BFC01E15160
S1132AE0F44FE491F0E0EE0FFF1FE15BF34F25910B
S1132AF034913EA72DA7FC01E755F44FE491EBABCD
S1132B008FA1082E000C990BFC01E151F44FE491C4
S1132B10F0E0EE0FFF1FE15BF34FA591B491B8AB6A
S1132B20AFA7FC01E755F44FE491ECAB8C91E82B93
S1132B30EC938B8D9C8D892B31F0992009F43BC04B
S1132B400E949D2738C061E08CA10E94773561E026
S1132B508DA10E9477358CA1082E000C990BFC01E5
S1132B60E151F44FE491F0E0EE0FFF1FE15BF34F0E
S1132B70259134913AA729A7FC01E755F44FE49134
S1132B80E9AB8DA1082E000C990BFC01E151F44F27
S1132B90E491F0E0EE0FFF1FE15BF34FA591B491D8
S1132BA0BCA7ABA7FC01E755F44FE491EAAB8C91C9
S1132BB0E095E823EC93AA20F1F088A587FD1BC0DB
S1132BC061E00E94773561E088A50E94B33561E039
S1132BD070E080E090E00E94913360E088A50E945C
S1132BE0B3356AE070E080E090E00E94913361E0E8
S1132BF088A50E94B3358D8D9E8D009739F04DA91F
S1132C005EA96FA978AD0E94CA2C0FC08B8D9C8DD4
S1132C10892B21F08EAD9FAD0E94B30BEFA5F8A9CF
S1132C2090818CA980958923808344E063EB76E0CE
S1132C30CE01F7DD6E816150CE014DDD44E06FEAD7
S1132C4076E0CE01EEDD8AA1813011F460E101C0AD
S1132C5064E1CE0140DD44E06BEA76E0CE01E1DDE3
S1132C608FE88DAF8C819D818038910571F48E81C0
S1132C709F8180349105B9F48AA1813011F48FE9E0
S1132C8001C08FEC8DAF12E10FC08036910559F46D
S1132C908E819F81409739F48AA1813011F480E1BB
S1132CA001C08FEA8DAF12E06AEDCE0114DD612F11
S1132CB0CE0111DD61E8CE010EDD6DADCE010BDD7F
S1132CC069EDCE0108DD8AA1813011F462E201C010
S1132CD061EFCE0100DD46E065EA76E0CE01A1DDDC
S1132CE08D8D9E8D009739F049AD5AAD6BAD7CAD9D
S1132CF00E94CA2C0CC0EFA5F8A990818CA9892B3D
S1132D0080838B8D9C8D892B11F00E94CD0B81E0EB
S1132D1003C0A11052CF73CFDF91CF911F910F91B8
S1132D20FF90EF90DF90CF90BF90AF909F908F90E7
S1132D3008950F931F93CF93DF93DC0157FD64C075
S1132D4016968D919C911797481759070CF05CC003
S1132D5077FF04C0260F371F60E070E01496CD9112
S1132D60DC911597CB01820F931FC817D9071CF468
S1132D709E01261B370B121613060CF045C0FA01F0
S1132D8057FD3796CF01E3E095958795EA95E1F7EE
S1132D908C9FF0018D9FF00D9C9FF00D11246E0F00
S1132DA07F1F5F96ED91FC919097E60FF71F477098
S1132DB0552781E090E001C0880F4A95EAF7482F33
S1132DC00130110539F078F002301105E9F42E0FC5
S1132DD03F1F13C02E0F3F1FE217F307A9F0808196
S1132DE0842B8193F9CF80952E0F3F1FE217F307B1
S1132DF059F0908198239193F9CFE217F30721F0CA
S1132E00808184278193F9CFDF91CF911F910F9116
S1132E100895EF92FF920F931F93CF93DF93EC01EA
S1132E2077FDA5C0EC80FD806E157F050CF09FC07A
S1132E3057FF04C0240F351F40E050E08E819F816E
S1132E40FA01E20FF31F8E179F071CF49C01241B49
S1132E50350B121613060CF08AC0922F842F869518
S1132E60869586958E9DD0018F9DB00D11246A0F95
S1132E707B1FAF8DB8A1A60FB71F4770B1F188E0D3
S1132E80841B482F682F70E0FB01E356F94FE4914F
S1132E90281798F4621B71092FEF30E002C03595B2
S1132EA027956A95E2F7E2230130110549F078F09D
S1132EB00230110509F05BC00EC00130110519F490
S1132EC08C91E82B0AC00130110508F049C0E09547
S1132ED08C91E82302C08C91E827EC93941708F4B2
S1132EE046C02C813D81A20FB31FE92FE41BE830BB
S1132EF0F8F00230110561F48E2F9C9190959C930B
S1132F002C813D81A20FB31F88508830B0F70FC0C9
S1132F1081E00115110509F480E081959E2F8C93C1
S1132F202C813D81A20FB31F98509830C0F7E770F1
S1132F30EE23E9F0F0E0EB56F94FE491013011058E
S1132F4039F048F00230110591F48C91E82706C05D
S1132F508C91E82B03C0E0958C91E823EC9307C097
S1132F600230110509F4B7CFAE0DBF1DBECFDF91FE
S1132F70CF911F910F91FF90EF9008950F931F939E
S1132F80DC015696EC915697E23061F0E33009F19A
S1132F90E13079F51496ED91FC911597E41BF50B4E
S1132FA0319723C0DC011496ED91FC911597DF0154
S1132FB0A61BB70BBD01DC011696ED91FC9117978A
S1132FC0DF01A41BB50BAD0141505109621B730B0A
S1132FD010C0FA01DC0116964D915C911797DA0145
S1132FE0A61BB70BBD01621B730BAB01BF0111DF45
S1132FF001C09FDE1F910F9108950F931F93DC0171
S11330005696EC915697E23069F0E33011F1E130D5
S113301081F51496ED91FC911597E41BF50BE21BD9
S1133020F30B23C0DC011496ED91FC911597DF019D
S1133030A61BB70BBD0161507109DC011696ED9119
S1133040FC911797DF01A41BB50BAD01421B530B79
S113305010C0FA01DC0116964D915C911797DA01C4
S1133060A61BB70BBD0161507109AB01BF0161DE45
S113307001C0CFDE1F910F910895CF92DF92EF929E
S1133080FF920F931F93CF93DF93EC018D8D9E8D51
S1133090009739F04DA95EA96FA978AD0E94CA2C9A
S11330A00FC08B8D9C8D892B21F08EAD9FAD0E941E
S11330B0B30BEFA5F8A990818CA98095892380830F
S11330C045E060E976E0CE01ACDB6C816150CE0175
S11330D002DB2E813F81C901079697FD079623E005
S11330E0959587952A95E1F72C813D81829F700102
S11330F0839FF00C929FF00C11240F8D18A18D8DDD
S11331009E8DE00EF11E009709F443C069A1062EBE
S1133110000C770B0E94D72C8D8D9E8DDC01ED91D8
S1133120FC910190F081E02D60E41995680101E0C3
S113313010E08D8D9E8DEC14FD0441F100321105DB
S1133140B0F00E944C2D69A1062E000C770B8D8DDA
S11331509E8D0E94D72C8D8D9E8DDC01ED91FC916E
S11331600190F081E02D60E4199501E010E08D8D6F
S11331709E8DF60161916F01DC01ED91FC9101904E
S1133180F081E02D19950F5F1F4FD3CF0E944C2D76
S113319034C0EDA5FEA590818BA9892B80830E15E3
S11331A01F0559F1F80181918F012B8D3C8D232B43
S11331B011F034DAF4CF28E030E040E8E9A5FAA5CC
S11331C099A9582F542319F05081952B03C050818D
S11331D0909595239083EBA5FCA550819AA9952BF6
S11331E09083EBA5FCA550819AA990959523908393
S11331F046952150310911F7D2CF8D8D9E8D0097C0
S113320071F049AD5AAD6BAD7CADDF91CF911F919B
S11332100F91FF90EF90DF90CF900C94CA2CEFA504
S1133220F8A990818CA9892B80838B8D9C8D892B07
S113323051F0DF91CF911F910F91FF90EF90DF90AC
S1133240CF900C94CD0BDF91CF911F910F91FF90F4
S1133250EF90DF90CF900895DC0115966C9315974D
S113326016964C93169770E0FB01E755F44FE491E2
S11332701796EC931797FB01E151F44F649118965C
S11332806C93189740E85EE360E070E01D964D9300
S11332905D936D937C93509708951F93CF93DF9321
S11332A0EC01162F62E08D810E9477350E94603315
S11332B0DC01CB01805D9740A109B10989879A8718
S11332C0AB87BC871A8BDF91CF911F910895CF9262
S11332D0DF92EF92FF921F93CF93DF93EC011F8154
S11332E0662311F0912F01C090E0288530E0220F71
S11332F0331F2B5C334FA0E0B0E0F90145915491AA
S1133300FA0180818123AD0160E070E098130FC061
S11333101196CD84DE84EF84F8884C155D056E0526
S11333207F0558F33FEF2FEF8FEF9FEF03C03A2F46
S1133330252FCB01632F722FDF91CF911F91FF9027
S1133340EF90DF90CF9008958F929F92AF92BF92AB
S1133350CF92DF92EF92FF920F931F93CF93DF935D
S1133360CDB7DEB7C054D1400FB6F894DEBF0FBE60
S1133370CDBF8C01F62E0E946033F11016C0F80107
S1133380C184D284E384F4849B01AC012C193D09EB
S11333904E095F0969017A0130EDC31637E0D3069F
S11333A0E104F10410F48189B6C0F80161877287E1
S11333B0838794871482138212821182108262E0BE
S11333C085810E94773561E070E080E090E00E94A2
S11333D0913361E0F80185810E94773560E0F8015E
S11333E085810E94B335F80186818551823028F4A5
S11333F08CE494E00E94CA3306C064E170E080E08B
S113340090E00E94913362E0F80185810E94773553
S1133410F801828990E00E94CA33F89460E0C80100
S113342056DF6F3F7F4F8F4F9F4F21F4F801118A72
S1133430789442C061E0C8014ADF6F3F7F4F8F4FED
S11334409F4FA1F39E012F5F3F4F79015E013FEB38
S1133450A31A3EEFB30A670160E0C80138DFF60142
S1133460608371838283938361E0C80130DFF60156
S11334706483758386839783F8E0CF0ED11CCA14C6
S1133480DB0451F7789420E030E0F70180809180EC
S1133490A280B3804481558166817781FFEF8F16C6
S11334A09F06AF06BF0631F04F3F8FEF58076807FE
S11334B0780721F4F801118A80E02DC0F90183E036
S11334C0F595E7958A95E1F7E00FF11F8081880F64
S11334D084169506A606B70608F4816080832F5FDC
S11334E03F4FF8E0EF0EF11C2832310571F6F80178
S11334F0248130E04081818190E0840F911D4281DC
S1133500840F911D4381840F911D99272817390732
S113351089F681E0818BC05CDE4F0FB6F894DEBF84
S11335200FBECDBFDF91CF911F910F91FF90EF9010
S1133530DF90CF90BF90AF909F908F900895CF92DF
S1133540DF92EF92FF920F931F93CF93DF938C013F
S1133550C62F642FF9DE882309F478C0F801868128
S11335608C3009F445C018F48B30C9F06FC0855114
S1133570823008F06BC0F801D2816D2F6F7770E054
S1133580762F66278381682B80E090E00E94D32DFC
S11335902DEC3CEC4CEC5DE30E94892E46C0F80116
S11335A0628170E080E090E00E94D32D6B017C0189
S11335B0F801D381D7FF0AC09B01AC0160E070E041
S11335C080E89FEB0E946A2D6B017C016D2F6F7068
S11335D070E080E090E00E94D52D2DEC3CEC4CECAA
S11335E05DE30E94892EA70196010E946B2D1FC0E6
S11335F0F801D28163816F7070E080E090E00E94F6
S1133600D52D2DEC3CEC4CEC5DE30E94892E6B0136
S11336107C016D2F70E080E090E00E94D32D9B012F
S1133620AC01C701B6010E946B2DD7FD9058CC2385
S113363089F026E636E646EE5FE30E94892E20E016
S113364030E040E052E40E946B2D04C060E070E082
S113365080EC9FE7DF91CF911F910F91FF90EF9046
S1133660DF90CF900895CF92DF92EF92FF92CF93A5
S1133670DF93EC0169DE882399F18E818B3080F130
S11336808D3098F08551823058F56881798176279C
S11336906727762780E090E00E94D32D2DEC3CEC48
S11336A04CEC5DE30E94892E1FC0698170E080E0CC
S11336B090E00E94D52D2DEC3CEC4CEC5DE30E9497
S11336C0892E6B017C01688170E080E090E00E94AB
S11336D0D52D9B01AC01C701B6010E946B2D04C01E
S11336E060E070E080EC9FE7DF91CF91FF90EF9076
S11336F0DF90CF900895DC01ED91FC910190F08171
S1133700E02D1994DB01A05DB74030E0E7E5FBE074
S113371081E0841730F49491290F311D8F5F319625
S1133720F8CF423029F4CD0183709927892BA9F071
S11337306D5C774076956795769567954DE651E093
S1133740A49FC001A59F900DB49F900D1124860FD6
S1133750971F0197820F931F08952F5F3F4FE8CF64
S11337601F93CF93DF93FC01C681D58114816081BF
S1133770718123814281C6DF9C01A8E1B0E00E94EF
S1133780AE389B01AC01210F311D411D511DACE32D
S1133790B0E00E94BD389B01AC012D0F311D411DCD
S11337A0511D0E94BD38DC01CB018C0F911DA11D60
S11337B0B11DBC01CD0160597A4C8249974CDF910F
S11337C0CF911F910895CF93DF93D62FC42F68E62E
S11337D070E087E495E00E94D72C6D2F87E495E094
S11337E00E947D2C6C2F87E495E00E947D2C87E459
S11337F095E0DF91CF910C944C2DAF92BF92CF9274
S1133800DF92EF92FF920F931F93CF93DF93CDB785
S1133810DEB72E970FB6F894DEBF0FBECDBF7C0186
S11338208B0168E670E087E495E00E94D72C60E0A5
S113383070E087E495E05FDF87E495E00E944C2D1B
S113384047E050E068E670E087E495E00E944A2D86
S113385087E495E00E94EF2B892BD1F35E012FE0E2
S1133860A20EB11CCE0101966C0187E495E00E9482
S1133870F72B982F92959F708F70EAE09E9F800D92
S1133880112490E0F501929382935F01EC15FD05FC
S113389061F787E495E00E944C2D89819A818053D9
S11338A0984FF801918380838B8182838D818383F8
S11338B08F818783898584838B8585838D858683A2
S11338C0C8014EDFF80160877187828793878CE097
S11338D0D70101900D928A95E1F7C7012E960FB694
S11338E0F894DEBF0FBECDBFDF91CF911F910F9132
S11338F0FF90EF90DF90CF90BF90AF900895CF935B
S1133900C62F68E670E087E495E00E94D72C6C2F00
S113391087E495E00E947D2C87E495E00E944C2D7D
S113392041E050E068E670E087E495E00E944A2DAB
S113393087E495E00E94EF2B892BD1F387E495E08F
S11339400E94F72BC82F87E495E00E944C2D8C2F02
S1133950CF9108950F931F93CF93DF93EC01162F0C
S1133960042F6EE0CCDF002311F0806401C08F7B54
S1133970482F112311F04B7701C040686EE0CE014F
S1133980DF91CF911F910F911ECFCF93DF93EC0165
S113399087E495E00E94BB2C40E061E0CE01DADFD1
S11339A080ED97E09983888381E08A838B831C82EE
S11339B01D821E8286E08F8380E795E3ADE6B8E33F
S11339C088879987AA87BB8781E0DF91CF91089583
S11339D0FC011082138214820895862F0C94E13521
S11339E0862F642F0C94B335862F642F0C9477356F
S11339F04F925F926F927F928F929F92AF92BF92FB
S1133A00CF92DF92EF920F93CF93DF93EC016B0190
S1133A104A0159010296DCDF8DEE92E09983888396
S1133A202E018BE1480E511C3E018DE4680E711C81
S1133A30C201CEDF85E0480E511C46145704C1F77D
S1133A40FE01E95AFF4F918280823296B182A082B0
S1133A50329600833196E0823797D182C0823896BD
S1133A608AE090E091838083329684EF91E09183A1
S1133A708083339611821082719710821182128290
S1133A801382CF59DF4F1882DF91CF910F91EF90BE
S1133A90DF90CF90BF90AF909F908F907F906F906A
S1133AA05F904F9008952F923F924F925F926F9242
S1133AB07F928F929F92AF92BF92CF92DF92EF92BA
S1133AC0FF920F931F93CF93DF93CDB7DEB7289761
S1133AD00FB6F894DEBF0FBECDBF98878F8310E07A
S1133AE05C012BE5A20EB11C7C0137E5E30EF11C51
S1133AF0D5018C911817B8F0312CEF81F885E45A70
S1133B00FF4FFC83EB83CF80D884F9E5CF0ED11C23
S1133B10412C512C320143942F813885295A3F4F2F
S1133B203E832D8360C0F701A081B181A10FB11D37
S1133B30EF81F88580819181FC012081318142E00F
S1133B406C918F819885F90119951F5FD1CF022D52
S1133B5010E0AD81BE818D919C91DC01A00FB11F5D
S1133B600480F581E02D6C918F8198851995000F63
S1133B70111FEF81F885E00FF11F892B09F06FC049
S1133B808781908529813A81822B932B9087878323
S1133B902394D5018C91AF81B885ED91FC912816C1
S1133BA0B0F2D6018D919C91DC01AE0DBF1D028057
S1133BB0F381E02D41E06C918F8198851995F60190
S1133BC080819181DC01AE0DBF1DEF81F88580817C
S1133BD09181FC012081318140E06C918F81988535
S1133BE0F90119953394AB81BC818C913816E0F5B9
S1133BF0E32CF12CF601A081B181AE0DBF1DEF8144
S1133C00F88580819181FC012081318141E06C91B2
S1133C108F819885F9011995F601A081B181AE0DC6
S1133C20BF1DEF81F88580819181FC012281338160
S1133C3040E06C918F819885F9011995D301C201F7
S1133C40032C04C0880F991FAA1FBB1F0A94D2F724
S1133C509A8389834C0180949094212C9ACF8781F4
S1133C6090858821992192CF28960FB6F894DEBFCB
S1133C700FBECDBFDF91CF911F910F91FF90EF90B9
S1133C80DF90CF90BF90AF909F908F907F906F9078
S1133C905F904F903F902F900895FC0180E090E05A
S1133CA0248D358D2617370739F0019635968A30DD
S1133CB09105B1F78FEF9FEF0895DC0125E0629F36
S1133CC0A00DB11D11245E964C935E9721E05F9682
S1133CD02C935F97FC01EF59FF4F2081319601909F
S1133CE0F081E02D222331F0309749F0611107C0B3
S1133CF0DC0102C0309719F05B968C9119940895F9
S1133D00CF92DF92EF92FF920F931F93CF93DF93A3
S1133D10EC01162F042FFC0185E0689FE00DF11DD6
S1133D201124178E868D8130A9F030F0823069F12C
S1133D308330C9F540E02CC04423A9F141E0CE0111
S1133D40BCDF0E946033C35BDF4F688379838A835F
S1133D509B8329C00E946033FE01E35BFF4FC08058
S1133D60D180E280F380AB01BC014C195D096E097E
S1133D707F09729680819181A0E0B0E08417950755
S1133D80A607B70710F442E003C001110CC043E0DA
S1133D90612FCE01DF91CF911F910F91FF90EF9092
S1133DA0DF90CF908ACFDF91CF911F910F91FF9039
S1133DB0EF90DF90CF9008952F923F924F925F92B1
S1133DC06F927F928F929F92AF92BF92CF92DF9227
S1133DD0EF92FF920F931F93CF93DF9300D000D005
S1133DE0CDB7DEB79E838D837C015C0122E3A20EF6
S1133DF0B11CFC018FEF9FEF268D211104C0138E9F
S1133E00958F848F178E3596AE16BF06A9F7512C61
S1133E108D819E81855A9F4F9A838983AD81BE810E
S1133E20A45ABF4FBC83AB836D807E80B5E56B0E17
S1133E30711C85E0282EE981FA818081581608F0EA
S1133E4057C0412C0D811E81050D111D050D111D3D
S1133E50095F1F4FAB81BC818C90481408F046C0A9
S1133E60F801C080D180042C02C0D694C7940A946F
S1133E70E2F7FC2DF1703F2E589C40011124840C74
S1133E80911CB4018D819E8108DF97FD05C0432DEF
S1133E90682F8D819E8120C0019631F5C0FE24C01B
S1133EA0ED81FE8160E070E0838D811117C0D30144
S1133EB0ED91FC91E80DF91D8081269EF001279E6D
S1133EC0F00D11242D813E81E20FF31F838F958E17
S1133ED0848E168E432DC90113DF06C06F5F7F4F9A
S1133EE035966A30710501F74394B4CF5394A3CF48
S1133EF080E0D7015F969C91911181E0B5E0EB0ED3
S1133F00F11CAE14BF04A9F726960FB6F894DEBFD1
S1133F100FBECDBFDF91CF911F910F91FF90EF9016
S1133F20DF90CF90BF90AF909F908F907F906F90D5
S1133F305F904F903F902F900895CF92DF92EF9231
S1133F40FF920F931F93CF93DF93EC010E94603392
S1133F508E010F5A1F4FF801C080D180E280F38098
S1133F60AB01BC014C195D096E097F093C96808147
S1133F709181A0E0B0E084179507A607B70768F41D
S1133F80CE0191DDCE0118DFC82F0E946033F80105
S1133F90608371838283938301C0C0E08C2FDF919F
S1133FA0CF911F910F91FF90EF90DF90CF900895E4
S1133FB00F931F93CF93DF93EC018C010F591F4F85
S1133FC081E0F8018083CE01B8DF882341F08F8D32
S1133FD0882329F08E8D813011F48B8D03C0F80174
S1133FE0108280E0DF91CF911F910F910895CF93BC
S1133FF0DF93EC0160E08E810E94B33581E090E0B4
S11340000E94CA3361E08E810E94B33581E090E062
S11340100E94CA3360E08E810E94B33584E690E04A
S1134020DF91CF910C94CA33CF92DF92EF92FF923B
S11340300F931F93CF93DF936C017C0187E0E80E0D
S1134040F11CC0E0D0E0062F10E0B8010C2E02C035
S1134050759567950A94E2F76170F70181917F0184
S11340600E94B3352196C430D10579F7C601DF919A
S1134070CF911F910F91FF90EF90DF90CF90B7CF2A
S1134080CF92DF92EF92FF920F931F93CF93DF9320
S11340906C017C0187E0E80EF11CC0E0D0E0062F43
S11340A010E0B8010C2E02C0759567950A94E2F7EA
S11340B06170F70181917F010E94B3352196C83068
S11340C0D10579F7C601DF91CF911F910F91FF9030
S11340D0EF90DF90CF908BCF1F93CF93DF93EC01C2
S11340E0162F642F8C810E94B3358D818F3F19F078
S11340F060E00E94B3358F85612F84FF05C0CE0137
S1134100DF91CF911F91BCCF70E084E075956795E6
S11341108A95E1F7CE0188DF612FCE01DF91CF913F
S11341201F9182CF40E0D8CF61E0FCDF80ED97E0C3
S11341300C94CA33FC01443008F043E083894817E7
S113414010F04FEF480FDF01A40FB11D54969C915E
S1134150690F6068CF01E6CFFC016089262F2460D7
S1134160208B6C60DFCFEF92FF920F931F93CF935E
S1134170DF93EC01423018F08F8588608F874B8B7A
S11341801C8A80E48D8B6E8B70E0605C7F4F6F8B3C
S1134190222329F0413019F48F8584608F8761E0F0
S11341A08C810E9477358D818F3F19F061E00E94E8
S11341B0773561E08E810E9477357E0187E0E80ED5
S11341C0F11C00E010E08F8584FD03C084E090E0E2
S11341D002C088E090E0081719074CF461E0F70189
S11341E081917F010E9477350F5F1F4FECCF80E5EF
S11341F093EC0E94CA3360E08C810E94B33560E086
S11342008E810E94B3358D818F3F19F060E00E944A
S1134210B3356F8564FD19C063E0CE0105DF84E921
S113422091E10E94CA3363E0CE01FEDE84E991E1AC
S11342300E94CA3363E0CE01F7DE86E990E00E9473
S1134240CA3362E0CE01F0DE13C06062CE016ADFE1
S113425084E991E10E94CA336F856062CE0162DF16
S113426086E990E00E94CA336F856062CE015ADF0E
S11342706F856062CE0156DF84E0888BCE016CDFEF
S1134280CE0152DF82E0898B66E0CE01DF91CF91CF
S11342901F910F91FF90EF9045CFCF92EF920F9324
S11342A0FC011382128287EF92E0918380836483FE
S11342B08FEF8583468327830087E186C286138632
S11342C0148615861686178620E041E060E1CF014A
S11342D00F91EF90CF9047CF41E0FEDE81E090E078
S11342E00895BC016E5F7F4FDC01ED91FC9101905C
S11342F0F081E02D40E0199591E0811190E0892F43
S11343000895AF92BF92CF92DF92EF92FF920F93F4
S11343101F93CF93DF936C01A42E79016068B62EAE
S113432080E590E00E94B30B60E0F60186850E9470
S1134330B335AA948B2D0E940E130023A1F0CFEF66
S1134340D0E001C0CC0F0A95EAF78B2D0E940E1322
S11343502C2F2095F701908192238C23892BF70130
S1134360808311E001C010E0812F90E0E701C80FC5
S1134370D91F1A1530F48B2D0E940E1388831F5FEA
S1134380F3CF80E00E940E13888361E0F6018685F6
S11343900E94B335DF91CF911F910F91FF90EF9061
S11343A0DF90CF90BF90AF900C94CD0BFC0183E0D5
S11343B093E0918380836687478708950F931F93C3
S11343C0CF93DF93EC01062F142F80E590E00E9439
S11343D0B30B60E08E850E94B335802F0E940E13CC
S11343E0812F0E940E1361E08E850E94B335DF9108
S11343F0CF911F910F910C94CD0BDF92EF92FF920E
S11344000F931F93CF93DF938C01C62FF42ED22EDC
S1134410E32E80E590E00E94B30B60E0F80186850E
S11344200E94B3358C2F0E940E13CD2DDE2DCE01AC
S11344308F0D911D7C01EC16FD0621F089910E94DF
S11344400E13F9CF61E0F80186850E94B335DF9140
S1134450CF911F910F91FF90EF90DF900C94CD0BB3
S11344601F93CF93DF93EC01162F80E590E00E9419
S1134470B30B60E08E850E94B335812F80680E9463
S11344800E1380E00E940E13182F61E08E850E94A7
S1134490B3350E94CD0B812FDF91CF911F910895E9
S11344A00F9341112EDF0F9108950F931F93CF9314
S11344B0DF938C01D62FC42FD3DF482F4C2B6D2FC5
S11344C0C801DF91CF911F910F9178CF0F931F9364
S11344D0CF93DF938C01D62FC42FC2DFC0954C2F0E
S11344E048236D2FC801DF91CF911F910F9166CFA3
S11344F0CF92DF92EF92FF920F931F93CF93DF93AC
S1134500EC016B01142F790140E062E057DF44E0D5
S11345106AE0CE0153DF40E864E1CE014FDF96014B
S1134520412F62E1CE0169DF43E062E0CE0146DF64
S113453008E813E16AE0CE0193DF82FF10C040E097
S113454062E0CE013BDF64E4CE018ADFF7018083C1
S113455062E4CE0185DFF701818380E004C001506D
S1134560110941F783E0DF91CF911F910F91FF90E3
S1134570EF90DF90CF9008950F931F93CF938C010A
S11345804FE062E01BDFC3E062E370E080E090E0B4
S11345900E94913362E0C80163DF84FF02C0C1500E
S11345A099F7CF911F910F910895CF93DF93EC0169
S11345B068E256DF982F9370933039F0482F4360A8
S11345C068E2CE01DF91CF91F9CEDF91CF910895CA
S11345D0CF93DF93EC0161E08E850E94773561E033
S11345E08E850E94B3358F858F3F09F447C060E004
S11345F00E9477358F850E94E135892B09F03EC0F2
S113460061E08F850E94773560E08F850E94B33525
S113461082E090E00E94CA3361E08F850E94B33546
S113462062E370E080E090E00E94913340E064E255
S1134630CE01C4DE40E066E2CE01C0DE46E268E4BC
S1134640CE01BCDE40E864E5CE01B8DE49EA66E5A9
S1134650CE01B4DE43E068E5CE01B0DE48EE6AE5A3
S1134660CE01ACDE40E46AE2CE01A8DE4DE362E2B4
S1134670CE01A4DECE01DF91CF9197CFCE017CDFB6
S1134680D5CF3F924F925F926F927F928F929F927B
S1134690AF92BF92CF92DF92EF92FF920F931F934C
S11346A0CF93DF931F921F92CDB7DEB73C01162F35
S11346B0942E2901A114B10419F0F501408101C01F
S11346C040E0342EF0E18F9E300C112440E062E093
S11346D0C30174DE4FE768E0C30170DE40E864E1C3
S11346E0C3016CDE9201402F62E1C30186DE432DDB
S11346F06AE1C30163DE412F62E0C3015FDE1C3067
S113470021F440E86AE1C301D0DE00ED17E068E07F
S1134710C301A6DE982F992139F480FD03C001500E
S11347201109A9F783E060C06CE0C30199DE182F7A
S1134730837109F056C0E114F104E1F0C114D1040D
S1134740C9F064E1C3018CDEF6019081981708F486
S113475042C08083082D9701482F62E1C301A0DE87
S113476068E1C3017DDE8770A114B10421F0F50175
S1134770808301C080E013FD30C0E114F10479F1BD
S1134780C114D10461F19F89992349F1F601408153
S1134790413021F4843039F58FEF26C0423018F1CE
S11347A0811121C042509E012F5F3F4FB701C301C9
S11347B09FDE811119C0F6018081E80EF11CF7011A
S11347C032979081898198130EC0319690818A81A5
S11347D0981309C004C084E007C082E005C080E0EB
S11347E003C081E001C087E00F900F90DF91CF916B
S11347F01F910F91FF90EF90DF90CF90BF90AF90FB
S11348009F908F907F906F905F904F903F9008950E
S11348108F92AF92BF92CF92DF92EF92FF920F935B
S11348201F93AF928C2C570168017901042F9B01CF
S113483040E36CE026DF0F901F910F91FF90EF9003
S1134840DF90CF90BF90AF908F9008952F923F92BA
S11348504F925F926F927F928F929F92AF92BF928C
S1134860CF92DF92EF92FF920F931F93CF93DF9338
S1134870CDB7DEB72C970FB6F894DEBF0FBECDBF11
S1134880413508F000C1342E3B014C0140E86CE195
S11348901DDE2224239432E0231691F083E02816AF
S11348A0E1F091E02912F3C083E989833320D1F048
S11348B081E0F3019081953008F480E0B12C17C0B9
S11348C0F5E9F983332081F081E0F3019081983098
S11348D008F480E043E0B42E0AC087E9898336E017
S11348E0B32E04C0B12C02C023E0B22E80E0D32C3E
S11348F0F8E0BF9ED0181124D7FCD12C882321F0D6
S113490098E89B8333E001C032E021E09D2D97704D
S113491009F420E09D2D959595959595290F31F4F1
S1134920882309F48DC038E0D30E8AC0811102C0F7
S113493094E001C093E0291708F4922FEB2DF0E0E6
S11349403196E60DF71D232F4191A1E0B0E0AC0FA5
S1134950BD1FA20FB11D4C932F5F422F431B49175C
S113496098F3DECF8111D8C09FE19D150CF491C05E
S113497080E2D82E90E79A839B818C8189279D8140
S113498089279E8189278F839E01285F3F4F47E0B7
S1134990BE016F5F7F4FC401ABDD8111BDC01B86BB
S11349A0E3E0EA87CE0107962C0199E09C87CB844B
S11349B04C2D4295407F4C0D6AE1C401FFDCA12CD3
S11349C0CE010B967C018E01065F1F4F92014C8530
S11349D0BE016F5F7F4FC4011BDF823009F0C2CF7D
S11349E06CE1C4013DDD85FD50C08F7109F480E2A6
S11349F0282F30E04D2DDD0C550B421753070CF0DA
S1134A0046C0D82E85958595859591E0980F422FBF
S1134A10477081E009F480E0890FE1E0F0E0EC0FF9
S1134A20FD1FE80FF11D215031092770332781E064
S1134A3090E001C0880F2A95EAF79081892B808342
S1134A408FE18D150CF496CF9D2D97709B878D2D3E
S1134A508595859585958E5F292FE0E18E9F200DA4
S1134A6011242A8321E0911101C020E0280F2C8712
S1134A7044244394512C4C0E5D1E480E511CF9E005
S1134A80F81BFA8794CF86E047C082E045C085E0F2
S1134A9043C08B818838E9F182E094E0EB2DF0E0AB
S1134AA03196E60DF71D980FA1E0B0E0AC0FBD1FE5
S1134AB0A80FB11D2C9121938F5F9813F5CF8A8590
S1134AC0833019F58B85811120C09E012D5F3F4FE6
S1134AD041E0B201C4010CDD81111EC09B81F201D1
S1134AE08181981314C09C818281981310C08081A5
S1134AF082FF02C02394CFCEF3018387822D880FD7
S1134B00820D8F5F808380E007C081E005C087E06D
S1134B1003C083E093E0C2CF2C960FB6F894DEBFB7
S1134B200FBECDBFDF91CF911F910F91FF90EF90FA
S1134B30DF90CF90BF90AF909F908F907F906F90B9
S1134B405F904F903F902F9008954F925F926F9295
S1134B507F928F929F92AF92CF92EF92FF920F9398
S1134B601F93CF93DF931F921F92CDB7DEB76A8353
S1134B704115510529F1F9016081623008F14901BB
S1134B802A013C0140E86CE1A1DC87E08983A12C87
S1134B90C12CCE0101967C018401920141E0BE0149
S1134BA06E5F7F4FC30134DE81110DC0F40180813B
S1134BB0823041F481E09981911105C080E003C005
S1134BC084E001C081E00F900F90DF91CF911F919D
S1134BD00F91FF90EF90CF90AF909F908F907F9028
S1134BE06F905F904F9008959A01AB0166E2ADCF4C
S1134BF00F931F93CF93DF9300D0CDB7DEB78C0113
S1134C0082E08B8340E064E2C801D8DB40E066E2E6
S1134C10C801D4DB46E268E4C801D0DBAE014D5FD5
S1134C205F4FBE016F5F7F4FC801DEDF982F81E0C9
S1134C30992319F0923009F080E00F900F900F90B3
S1134C40DF91CF911F910F910895CF92DF92EF9250
S1134C50FF920F931F93CF93DF937B016A01082F79
S1134C6010E0E801CC5CDB4F888187FF04C0FB01C6
S1134C701182108224C08CE0809F9001819F300DAE
S1134C8011248881A901480F511D87FD5A958091EF
S1134C90330490E04817590794F48881A901480F18
S1134CA0511D87FD5A95CA01FA01EE0FFF1F8E0FA1
S1134CB09F1FFC01E85CFB4F808186FD19C0888141
S1134CC08F5F88838CE0809F9001819F300D112439
S1134CD08881A901480F511D87FD5A95809133049D
S1134CE090E048175907BCF488818C3044F113C014
S1134CF08881280F311D87FD3A95F901EE0FFF1FBA
S1134D002E0F3F1FF901E85CFB4F808160E08F7339
S1134D100E94B335D4CFF701808191810496803409
S1134D209C4918F480E49CE904C0F70180819181D6
S1134D300496F601918380838FEF888345C0F70141
S1134D40408151818881B901680F711D87FD7A9571
S1134D50CB01FB01EE0FFF1F8E0F9F1FFC01E85CD0
S1134D60FB4F81819281840F951FF601918380838B
S1134D708881A901480F511D87FD5A95CA01FA017E
S1134D80EE0FFF1F8E0F9F1FFC01E85CFB4F80811D
S1134D9086FF1AC08881280F311D87FD3A95F901D5
S1134DA0EE0FFF1F2E0F3F1FF901E85CFB4F8081C0
S1134DB061E08F73DF91CF911F910F91FF90EF907E
S1134DC0DF90CF900C94B335DF91CF911F910F9169
S1134DD0FF90EF90DF90CF9008951F920F920FB63F
S1134DE00F9211240BB60F922F933F934F935F931F
S1134DF06F937F938F939F93AF93BF93EF93FF939F
S1134E0048E850E064E870E081E01FDFFF91EF9133
S1134E10BF91AF919F918F917F916F915F914F91CE
S1134E203F912F910F900BBE0F900FBE0F901F90CC
S1134E3018951F920F920FB60F9211240BB60F9272
S1134E402F933F934F935F936F937F938F939F938E
S1134E50AF93BF93EF93FF9348E950E064E970E0A8
S1134E6082E0F3DEFF91EF91BF91AF919F918F911B
S1134E707F916F915F914F913F912F910F900BBE56
S1134E800F900FBE0F901F9018951F920F920FB6A0
S1134E900F9211240BB60F922F933F934F935F936E
S1134EA06F937F938F939F93AF93BF93EF93FF93EE
S1134EB048EA50E064EA70E083E0C7DEFF91EF91D6
S1134EC0BF91AF919F918F917F916F915F914F911E
S1134ED03F912F910F900BBE0F900FBE0F901F901C
S1134EE018951F920F920FB60F9211240BB60F92C2
S1134EF02F933F934F935F936F937F938F939F93DE
S1134F00AF93BF93EF93FF9348E251E064E271E003
S1134F1080E09BDEFF91EF91BF91AF919F918F91C4
S1134F207F916F915F914F913F912F910F900BBEA5
S1134F300F900FBE0F901F901895CF93CFB7F89492
S1134F408091CB04811127C0E4E2FCE08491EEED72
S1134F50FBE09491E82FF0E0EE0FFF1FE759F34FC9
S1134F60A591B491EC91E92321F461E085E30E94D9
S1134F70B33561E085E30E9477358CB580618CBDE3
S1134F808CB580648CBD61E084E30E94773561E078
S1134F9083E30E9477358091CB048F5F8093CB04A9
S1134FA0CFBFCF9108951F920F920FB60F92112485
S1134FB00BB60F922F933F934F935F936F937F930F
S1134FC08F939F93AF93BF93EF93FF93E091CC04A0
S1134FD0F091CD041995FF91EF91BF91AF919F91FD
S1134FE08F917F916F915F914F913F912F910F908E
S1134FF00BBE0F900FBE0F901F9018951F920F922B
S11350000FB60F9211240BB60F922F933F934F9329
S11350105F936F937F938F939F93AF93BF93EF931C
S1135020FF93E091D104F091D2041995FF91EF918F
S1135030BF91AF919F918F917F916F915F914F91AC
S11350403F912F910F900BBE0F900FBE0F901F90AA
S113505018951092460581E080934405109243050B
S113506061E084E10E94B33561E085E10E94B335DB
S1135070E9EBF0E080818E7F808380818D7F808367
S113508088E48093B80085E48093BC000895ECEB39
S1135090F0E080818A7B808360E084E10E94B33504
S11350A060E085E10C94B3359B01AC0160E074E2EF
S11350B084EF90E00E946838DA01C9014097A109A1
S11350C0B109B695A795979587958093B8000895EB
S11350D04091F504262F30E0240F311D2132310593
S11350E0DCF4209146052430C9F4FC0180E090E012
S11350F0861758F43091F5042191DC01A950BB4F77
S1135100A30FB11D2C930196F3CF8091F504680F82
S11351106093F50480E0089581E0089582E00895A5
S113512090933A0580933905089590933C058093B4
S11351303B05089585EC8093BC00109246050895C4
S1135140CF93DF9391E090933E05882351F0C09173
S1135150B800D091BA009BDF7CDFD093BA00C09333
S1135160B800DF91CF9108954F925F926F927F9232
S11351708F929F92AF92BF92CF92DF92EF92FF9263
S11351800F931F93CF93DF93F82E162F072FC42F5F
S1135190E22E413208F0BCC00E946C334B015C012A
S11351A0D0914605DD2329F180913F05909140057A
S11351B0A0914105B0914205892B8A2B8B2B81F359
S11351C00E946C3340903F0550904005609041052B
S11351D070904205DC01CB0188199909AA09BB0921
S11351E0481659066A067B06D8F680913D05A8DF65
S11351F08FC081E080934605E09244059FEF909331
S1135200D304109218059C0F9093170580934505BD
S1135210909145058F2D880F892B809345058091AA
S11352204305813089F5109243050E946C336B016C
S11352307C01809145058093BB0080913F0590914E
S11352404005A0914105B0914205892B8A2B8B2BF7
S1135250A9F00E946C3380903F0590904005A09087
S11352604105B0904205DC01CB018C199D09AE09C2
S1135270BF0988169906AA06BB0690F18091BC0066
S113528083FDD7CF85EC01C085EE8093BC000E94DE
S11352906C336B017C0180914605813029F5809146
S11352A03F0590914005A0914105B0914205892B9D
S11352B08A2B8B2B81F30E946C3380903F05909056
S11352C04005A0904105B0904205DC01CB018C194A
S11352D09D09AE09BF0988169906AA06BB06D8F629
S11352E080913D052DDF15C0809118058C1710F4B1
S11352F0C0911805A9E1B5E0912FE12FF02F8E2F71
S1135300891B8C1718F48D918193F9CFDC2F01C080
S1135310D0E08D2FDF91CF911F910F91FF90EF90EF
S1135320DF90CF90BF90AF909F908F907F906F90C1
S11353305F904F9008954F925F926F927F928F92F9
S11353409F92AF92BF92CF92DF92EF92FF920F9310
S11353501F93CF93DF93413208F0C5C0122FF42E70
S1135360D72EE62ED82F0E946C334B015C01C091DE
S11353704605CC2311F180913F0590914005A09101
S11353804105B0914205892B8A2B8B2B81F30E9416
S11353906C3340903F0550904005609041057090FB
S11353A04205DC01CB0188199909AA09BB094816F1
S11353B059066A067B06D8F683C082E080934605C8
S11353C0009344058FEF8093D30410921805F09254
S11353D017059E2DA9E1B5E0EE2DFD2D8E2F891B1D
S11353E08F1518F481918D93F9CF10924505909102
S11353F04505DD0FD92BD0934505809143058130B8
S113540089F5109243050E946C336B017C018091F5
S113541045058093BB0080913F0590914005A09184
S11354204105B0914205892B8A2B8B2BA9F00E9450
S11354306C3380903F0590904005A0904105B0905A
S11354404205DC01CB018C199D09AE09BF09881600
S11354509906AA06BB06A0F18091BC0083FDD7CFB4
S113546085EC01C085EE8093BC000E946C336B0117
S11354707C01112351F180914605823031F58091F0
S11354803F0590914005A0914105B0914205892BBB
S11354908A2B8B2B71F30E946C3380903F05909084
S11354A04005A0904105B0904205DC01CB018C1968
S11354B09D09AE09BF0988169906AA06BB06C8F657
S11354C080913D053DDEC5E013C08091D3048F3F3C
S11354D079F08091D304803241F08091D3048033F9
S11354E031F0C4E005C0C1E003C0C2E001C0C3E0C4
S11354F08C2FDF91CF911F910F91FF90EF90DF9050
S1135500CF90BF90AF909F908F907F906F905F905F
S11355104F90089585ED8093BC0080913F05909154
S11355204005A0914105B09142050796A11DB11D0A
S113553023E0B695A795979587952A95D1F720915D
S1135540BC0024FF1BC040913F0550914005609171
S1135550410570914205452B462B472B81F300975B
S1135560A105B10541F025E32A95F1F70000019763
S1135570A109B109E4CF80913D05E2CD1092460521
S113558008951F920F920FB60F9211240BB60F922B
S11355902F933F934F935F936F937F938F939F9337
S11355A0AF93BF93EF93FF938091B900887F8036C8
S11355B009F49DC070F5883209F45CC090F4803120
S11355C009F455C038F4882309F4F3C0883009F489
S11355D04EC0F2C0883109F44DC0803209F45EC077
S11355E0EBC0803409F469C050F4803309F456C028
S11355F0883309F0E1C08093D3049CDDDDC080359D
S113560009F44FC0883509F45DC0883409F0D4C06A
S1135610D2C0883909F4C3C0A8F4883709F467C034
S113562038F4883609F463C0803709F460C0C4C014
S1135630883809F4B4C0803909F45FC0803809F0AF
S1135640BBC05BC0803B09F482C038F4803A09F4E3
S113565066C0883A09F47BC0AFC0803C09F4A3C09B
S1135660883C09F4A0C0883B09F486C0A5C0809199
S1135670450510C09091180580911705981770F58D
S1135680E091180581E08E0F80931805F0E0E75E45
S1135690FA4F80818093BB0085EC82C08093D30451
S11356A08AC0E091180581E08E0F809318058091DF
S11356B0BB00F0E0E75EFA4F80839091180580917B
S11356C017056AC0E091180581E08E0F80931805D4
S11356D08091BB00F0E0E75EFA4F8083809144053F
S11356E0811169C081E08093430584EA5DC083E051
S11356F0809346051092D404CFCF8091D404803295
S113570008F04DC0E091D40481E08E0F8093D4045E
S11357108091BB00F0E0EB52FB4F8083BDCF0ADDEC
S11357208091D404803230F4E091D404F0E0EB5260
S1135730FB4F10826091D40470E0E0913905F09140
S11357403A0585ED94E019951092D40435C084E0AF
S1135750809346051092F6041092F504E0913B05FF
S1135760F0913C0519958091F504811105C081E003
S11357708093F5041092F704E091F60481E08E0F13
S11357808093F604F0E0E950FB4F80818093BB00E6
S11357909091F6048091F504981708F47DCF85E87C
S11357A08093BC0009C085EC8093BC001092460530
S11357B003C01092D304AEDEFF91EF91BF91AF917D
S11357C09F918F917F916F915F914F913F912F9115
S11357D00F900BBE0F900FBE0F901F9018958091E5
S11357E07B0590E020917C05821B9109089590919E
S11357F07C0580917B05981750F4E92FF0E0E3587D
S1135800FA4F208130E09F5F90937C0502C02FEF18
S11358103FEFC9010895E0917C0580917B05E8176D
S113582030F4F0E0E358FA4F808190E008958FEF70
S11358309FEF08950895CF93DF93EC01E091530512
S1135840F09154053097F1F090917C0580917B059F
S11358509817C0F090E0292F30E02617370754F44A
S1135860DE01A20FB31F4C91D901A358BA4F4C9338
S11358709F5FF1CF10927C0560937B05CB01DF9194
S1135880CF911994DF91CF910895E0915505F0914E
S11358905605309729F0109259051092580519941D
S11358A00895CF92DF92EF92FF920F931F93CF93BD
S11358B0DF937C01CB018A0120915705222389F0D3
S11358C0EB016B01C40ED51ECC15DD0561F06991A9
S11358D0D701ED91FC910190F081E02DC70119955C
S11358E0F3CF642FF5DBC801DF91CF911F910F91A6
S11358F0FF90EF90DF90CF900895CF93DF931F92A6
S1135900CDB7DEB76983209157052223D1F02091CA
S11359105805203240F021E030E0FC01338322833B
S113592080E090E014C080915905E82FF0E0E65A39
S1135930FA4F998190838F5F80935905809358051E
S113594004C061E0CE010196C3DB81E090E00F90DA
S1135950DF91CF910895FC011382128288EE93E0C7
S1135960A0E0B0E084839583A683B7838DE093E0C1
S113597091838083089510927C0510927B05109288
S113598059051092580565DB85E49CE2CEDB8BE17A
S11359909CE2C6CBCB01BA0187CB81E0809357054B
S11359A060937A0510925905109258050895F5CF21
S11359B00F93062F21E0409158056AE575E0809128
S11359C07A05B9DC109259051092580510925705C2
S11359D00F9108954F925F926F927F92AF92BF9210
S11359E0CF92EF92FF920F931F93CF93DF935C01BB
S11359F0F62ED42F28013901EE2011F1CEDFCE2D61
S1135A00C43008F0C3E0C150C0F028E0C29FC00118
S1135A101124A301920104C0569547953795279503
S1135A208A95D2F7CA01B901D501ED91FC91019093
S1135A30F081E02DC5011995E6CF60E0C501B8DF1E
S1135A404D2FD13208F040E22C2D6DE775E08F2DFB
S1135A508BDB10927C0580937B05DF91CF911F91A6
S1135A600F91FF90EF90CF90BF90AF907F906F9089
S1135A705F904F900895CF92EF920F931F93C22E91
S1135A80E12C00E010E09801A5DF1F910F91EF9049
S1135A90CF90089521E0EFCF61E08ACF87E495E0CD
S1135AA05ACFCF93DF93EC016DE673E00E94FD1BA8
S1135AB0CE01DF91CF910895CF93DF93EC010A9744
S1135AC02CF467E672E08FE493E0FAD3CE01DF9121
S1135AD0CF9108955058BB27AA270ED0DCC0CDD053
S1135AE030F0D2D020F031F49F3F11F41EF4C2C044
S1135AF00EF4E095E7FBB8C0E92FDED080F3BA17C7
S1135B00620773078407950718F071F49EF5F6C0D1
S1135B100EF4E0950B2EBA2FA02D0B01B9019001C4
S1135B200C01CA01A0011124FF27591B99F0593F08
S1135B3050F4503E68F11A16F040A22F232F342F50
S1135B404427585FF3CF469537952795A795F0409E
S1135B505395C9F77EF41F16BA0B620B730B840BB3
S1135B60BAF09150A1F0FF0FBB1F661F771F881F6B
S1135B70C2F70EC0BA0F621F731F841F48F48795C3
S1135B8077956795B795F7959E3F08F0B3CF9395B2
S1135B90880F08F09927EE0F97958795089540D0C0
S1135BA008F481E00895E89409C097FB3EF49095C9
S1135BB08095709561957F4F8F4F9F4F9923A9F0E2
S1135BC0F92F96E9BB279395F69587957795679571
S1135BD0B795F111F8CFFAF4BB0F11F460FF1BC0B5
S1135BE06F5F7F4F8F4F9F4F16C0882311F096E948
S1135BF011C0772321F09EE8872F762F05C06623F6
S1135C0071F096E8862F70E060E02AF09A95660FAE
S1135C10771F881FDAF7880F9695879597F9089567
S1135C20990F0008550FAA0BE0E8FEEF16161706A9
S1135C30E807F907C0F012161306E407F50798F011
S1135C40621B730B840B950B39F40A2661F0232B2A
S1135C50242B252B21F408950A2609F4A140A695A6
S1135C608FEF811D811D089597F99F6780E870E08B
S1135C7060E008959FEF80EC089500240A941616BE
S1135C80170618060906089500240A941216130626
S1135C90140605060895092E0394000C11F48823B4
S1135CA052F0BB0F40F4BF2B11F460FF04C06F5FD0
S1135CB07F4F8F4F9F4F089557FD9058440F551FA6
S1135CC059F05F3F71F04795880F97FB991F61F07A
S1135CD09F3F79F087950895121613061406551FF1
